:0400000007EF00F016
:0A0008007F82A3ED0FF0ABEF26F0AE
:10100000003738392F3435362A3132332D40303DD0
:051010002B2569000022
:10101600B2EC24F00101F705D8B414EF08F016EF8E
:1010260008F075EF0AF0B10E0B6F010E0C6FFD0E96
:101036000D6F010E0E6F23EC25F00BC1FEF10CC1F6
:10104600FFF10101FD05D8A42BEF08F02DEF08F004
:101056009AEF08F0960E006F010E016FBB0E036F3C
:10106600A40E026FF3EC2DF0020E0101F2653EEFC5
:1010760008F040EF08F09AEF08F0F62BF605D8A432
:1010860047EF08F049EF08F06BEF08F0D30E0B6F4F
:10109600000E0C6F08EC28F00BC1FEF10CC1FFF13D
:1010A600D20E01010B6F000E0C6F53EC28F00BC132
:1010B600FEF10CC1FFF1D10E01010B6F000E0C6F9A
:1010C60053EC28F00BC1FEF10CC1FFF197EF08F0CD
:1010D600020EF619D8A472EF08F074EF08F080EF4C
:1010E60008F0D20E0B6F000E0C6F08EC28F00BC147
:1010F600FEF10CC1FFF197EF08F0030EF619D8A424
:1011060087EF08F089EF08F095EF08F0D10E0B6F26
:10111600000E0C6F08EC28F00BC1FEF10CC1FFF1BC
:1011260097EF08F0000EF66F000E0101F26FAE0E9B
:101136000B6F010E0C6FFC0E0D6F010E0E6F23EC84
:1011460025F00BC1FEF10CC1FFF10101FC05D8A48D
:10115600AFEF08F0B1EF08F04AEF09F0960E006F16
:10116600010E016FBB0E036FA40E026FF3EC2DF0A0
:10117600010E0101F165C2EF08F0C4EF08F04AEF75
:1011860009F0F52BF505D8A4CBEF08F0CDEF08F064
:10119600EFEF08F0C20E0B6F000E0C6F08EC28F094
:1011A6000BC1FEF10CC1FFF1D00E01010B6F000E59
:1011B6000C6F53EC28F00BC1FEF10CC1FFF1CF0E02
:1011C60001010B6F000E0C6F53EC28F00BC1FEF102
:1011D6000CC1FFF147EF09F0020EF519D8A4F6EF9E
:1011E60008F0F8EF08F01AEF09F0C20E0B6F000EC8
:1011F6000C6F53EC28F00BC1FEF10CC1FFF1D00EC1
:1012060001010B6F000E0C6F08EC28F00BC1FEF10C
:101216000CC1FFF1CF0E01010B6F000E0C6F53ECEA
:1012260028F00BC1FEF10CC1FFF147EF09F0030EE8
:10123600F519D8A421EF09F023EF09F045EF09F0DD
:10124600C20E0B6F000E0C6F53EC28F00BC1FEF1B3
:101256000CC1FFF1D00E01010B6F000E0C6F53ECA9
:1012660028F00BC1FEF10CC1FFF1CF0E01010B6F8F
:10127600000E0C6F08EC28F00BC1FEF10CC1FFF15B
:1012860047EF09F0000EF56F000E0101F16FAB0E8E
:101296000B6F010E0C6FFB0E0D6F010E0E6F23EC24
:1012A60025F00BC1FEF10CC1FFF10101FB05D8A42D
:1012B6005FEF09F061EF09F0B9EF09F0960E006FE4
:1012C600010E016FBB0E036FA40E026FF3EC2DF03F
:1012D600010E0101F06572EF09F074EF09F0B9EF44
:1012E60009F0F42BF405D8A47BEF09F07DEF09F0A3
:1012F60094EF09F0CE0E0B6F000E0C6F08EC28F081
:101306000BC1FEF10CC1FFF1CD0E01010B6F000EFA
:101316000C6F53EC28F00BC1FEF10CC1FFF1B6EFD8
:1013260009F0020EF419D8A49BEF09F09DEF09F01D
:10133600B4EF09F0CE0E0B6F000E0C6F53EC28F0D5
:101346000BC1FEF10CC1FFF1CD0E01010B6F000EBA
:101356000C6F08EC28F00BC1FEF10CC1FFF1B6EFE3
:1013660009F0000EF46F000E0101F06FA80E0B6F6E
:10137600010E0C6FFA0E0D6F010E0E6F23EC25F0A9
:101386000BC1FEF10CC1FFF10101FA05D8A4CEEFA5
:1013960009F0D0EF09F069EF0AF0960E006F010E22
:1013A600016FBB0E036FA40E026FF3EC2DF0010E5E
:1013B6000101EF65E1EF09F0E3EF09F069EF0AF0EB
:1013C600F32BF305D8A4EAEF09F0ECEF09F00EEFE2
:1013D6000AF0CC0E0B6F000E0C6F08EC28F00BC158
:1013E600FEF10CC1FFF1CB0E01010B6F000E0C6F6D
:1013F60053EC28F00BC1FEF10CC1FFF1CA0E01013E
:101406000B6F000E0C6F53EC28F00BC1FEF10CC1F4
:10141600FFF166EF0AF0020EF319D8A415EF0AF0F1
:1014260017EF0AF039EF0AF0CC0E0B6F000E0C6FB7
:1014360053EC28F00BC1FEF10CC1FFF1CB0E0101FC
:101446000B6F000E0C6F08EC28F00BC1FEF10CC1FF
:10145600FFF1CA0E01010B6F000E0C6F53EC28F062
:101466000BC1FEF10CC1FFF166EF0AF0030EF31992
:10147600D8A440EF0AF042EF0AF064EF0AF0CC0E6F
:101486000B6F000E0C6F53EC28F00BC1FEF10CC174
:10149600FFF1CB0E01010B6F000E0C6F53EC28F021
:1014A6000BC1FEF10CC1FFF1CA0E01010B6F000E5C
:1014B6000C6F08EC28F00BC1FEF10CC1FFF166EFD2
:1014C6000AF0000EF36F000E0101EF6F010EBD6F03
:1014D600F6C1BEF1F5C1BFF1F4C1C0F1F3C1C1F16E
:1014E6000DEF08F0EE51D8B47BEF0AF07DEF0AF06D
:1014F6000DEF08F0B60E006F010E016F000E026FC1
:10150600A9EC20F000C1FEF101C1FFF1F80E0101C6
:10151600006F010E016FBD5141EC2CF000C1FEF1D0
:1015260001C1FFF1B60E0101006F010E016F010E40
:10153600026FA9EC20F000C1FEF101C1FFF1010E1E
:1015460002014B6FB60E0101006F010E016F000E16
:10155600026FA9EC20F000C1FEF101C1FFF1F80E07
:101566000101006F010E016FBD0E02014B25D96E00
:10157600DA6A010EDA22DF5041EC2CF000C1FEF1EE
:1015860001C1FFF1B60E0101006F010E016F010EE0
:10159600026FA9EC20F000C1FEF101C1FFF10201CA
:1015A6004B2B040E4B65DAEF0AF0DCEF0AF0A5EFE1
:1015B6000AF00101EE070DEF08F007EF00F0010158
:1015C6004351800B4C6F435143254E6F42AFEEEFB4
:1015D6000AF0F0EF0AF0F1EF0AF04E814E51D8B45E
:1015E600F7EF0AF0F9EF0AF00EEF0BF04E29D8A448
:1015F600FFEF0AF001EF0BF009EF0BF0000E406F62
:10160600000E416F000E426F000E436F428F000EB8
:10161600436F16EF0BF0000E406F000E416F000E89
:10162600426F000E436F4751800B4D6F4C514D1961
:10163600D8B420EF0BF022EF0BF023EF0BF04C8D1C
:10164600475147254D6F46AF2BEF0BF02DEF0BF0B3
:101656002EEF0BF04D814D51D8B434EF0BF036EF31
:101666000BF04BEF0BF04D29D8A43CEF0BF03EEFFF
:101676000BF046EF0BF0000E446F000E456F000EA8
:10168600466F000E476F468F000E476F53EF0BF005
:10169600000E446F000E456F000E466F000E476F3A
:1016A6004E514D5DD8B05AEF0BF05CEF0BF083EF67
:1016B6000BF04CAD61EF0BF063EF0BF065EF0BF049
:1016C600800E4C1B4EC14FF14DC14EF14FC14DF135
:1016D60040C14FF144C140F14FC144F141C14FF106
:1016E60045C141F14FC145F142C14FF146C142F1F9
:1016F6004FC146F143C14FF147C143F14FC147F1D5
:10170600000E4F6F4E514DC148F1496B485F000EB8
:10171600495B49BF98EF0BF0495109E11A0E485D44
:10172600D8A098EF0BF09AEF0BF0D1EF0BF04051E9
:10173600411142114311D8A4A3EF0BF0A6EF0BF011
:10174600010EA7EF0BF0000E4F6F000E406F000E5C
:10175600416F000E426F000E436F4DC14EF1DAEF3E
:101766000BF04FA1B9EF0BF0BBEF0BF0C1EF0BF095
:10177600D8904F3101094F6FC3EF0BF0D8904F331C
:1017860040A1C8EF0BF0CAEF0BF0CBEF0BF04F8F79
:10179600433543334233413340334E2B4D514E5D37
:1017A600D8A0D8EF0BF0DAEF0BF0B4EF0BF04CBD8E
:1017B600DFEF0BF0E1EF0BF021EF0CF04E51D8A468
:1017C600E7EF0BF0E9EF0BF0F3EF0BF0000E406FD5
:1017D600000E416F000E426F000E436F42EF0DF098
:1017E6004451402745514123465142234751432303
:1017F60043A100EF0CF002EF0CF0AEEF0CF04FA19E
:1018060007EF0CF009EF0CF00FEF0CF0D8904F310A
:1018160001094F6F11EF0CF0D8904F3340A116EF2E
:101826000CF018EF0CF019EF0CF04F8F43354333E3
:101836004233413340334E2BAEEF0CF04451405D02
:1018460045514159465142594351800A486F4751C3
:10185600800A4859D8B032EF0CF034EF0CF05FEF45
:101866000CF04051445D486F41514559496F425112
:1018760046594A6F435147594B6FFF0E4825406FF3
:10188600FF0E4921416FFF0E4A21426FFF0E4B2189
:10189600436F800E4C1B4F6D4F51D8A455EF0CF083
:1018A60057EF0CF067EF0CF0010E4027000E4123B6
:1018B6004223432367EF0CF04451405F4551415B9F
:1018C6004651425B4751435B40514111421143111E
:1018D600D8A470EF0CF072EF0CF0A7EF0CF04F519C
:1018E600D8A478EF0CF07AEF0CF0A7EF0CF0000E0E
:1018F600406F000E416F000E426F000E436F42EFC5
:101906000DF0D89040374137423743374FAF8EEF0F
:101916000CF090EF0CF091EF0CF040814FA196EF98
:101926000CF098EF0CF09CEF0CF0D8804F379EEF40
:101936000CF0D8904F374E51D8B4A4EF0CF0A6EF68
:101946000CF0A7EF0CF04E0742AFACEF0CF0AEEF89
:101956000CF084EF0CF0000E4D6F4FAFB5EF0CF0AE
:10196600B7EF0CF0CFEF0CF04FC148F17F0E4817E0
:10197600D8B4C0EF0CF0C2EF0CF0C6EF0CF0010EBD
:101986004D6FCFEF0CF040A1CBEF0CF0CDEF0CF08C
:10199600CFEF0CF0C2EF0CF04D51D8B4D5EF0CF0F0
:1019A600D7EF0CF002EF0DF0010E4027000E412399
:1019B6004223432343A1E2EF0CF0E4EF0CF002EFE5
:1019C6000DF040C148F141C149F142C14AF143C15C
:1019D6004BF14B354B334A334933483348C140F119
:1019E60049C141F14AC142F14BC143F14E29D8B434
:1019F600FFEF0CF001EF0DF002EF0DF04E2B4E292C
:101A0600D8B408EF0DF00AEF0DF012EF0DF04E51BD
:101A1600D8A410EF0DF012EF0DF024EF0DF0000E2C
:101A2600406F000E416F000E426F000E436F4E5125
:101A3600D8A420EF0DF022EF0DF024EF0DF0000EEC
:101A46004C6F4EA129EF0DF02BEF0DF02EEF0DF0A0
:101A5600428F2FEF0DF0429FD8904E31436F4CAF1F
:101A660037EF0DF039EF0DF03AEF0DF0438F40C12F
:101A760040F141C141F142C142F143C143F112007B
:101A86002B50800B346E2B502B24366E2AAE4EEF25
:101A96000DF050EF0DF051EF0DF036803650D8B402
:101AA60057EF0DF059EF0DF06EEF0DF03628D8A474
:101AB6005FEF0DF061EF0DF069EF0DF0000E286E8F
:101AC600000E296E000E2A6E000E2B6E2A8E000E58
:101AD6002B6E76EF0DF0000E286E000E296E000EAE
:101AE6002A6E000E2B6E2F50800B356E3450351833
:101AF600D8B480EF0DF082EF0DF083EF0DF0348C4B
:101B06002F502F24356E2EAE8BEF0DF08DEF0DF08E
:101B16008EEF0DF035803550D8B494EF0DF096EF7A
:101B26000DF0ABEF0DF03528D8A49CEF0DF09EEF2D
:101B36000DF0A6EF0DF0000E2C6E000E2D6E000EB1
:101B46002E6E000E2F6E2E8E000E2F6EB3EF0DF042
:101B5600000E2C6E000E2D6E000E2E6E000E2F6ED9
:101B66003650355CD8B0BAEF0DF0BCEF0DF0E3EFB0
:101B76000DF034ACC1EF0DF0C3EF0DF0C5EF0DF075
:101B8600800E341A36C037F035C036F037C035F01F
:101B960028C037F02CC028F037C02CF029C037F009
:101BA6002DC029F037C02DF02AC037F02EC02AF0FC
:101BB60037C02EF02BC037F02FC02BF037C02FF0D8
:101BC600000E376E365035C030F0316A305E000E8A
:101BD600315A31BEF8EF0DF0315009E11A0E305C82
:101BE600D8A0F8EF0DF0FAEF0DF031EF0EF0285017
:101BF60029102A102B10D8A403EF0EF006EF0EF0D2
:101C0600010E07EF0EF0000E376E000E286E000E66
:101C1600296E000E2A6E000E2B6E35C036F03AEF96
:101C26000EF037A019EF0EF01BEF0EF021EF0EF0BD
:101C3600D89037300109376E23EF0EF0D89037323F
:101C460028A028EF0EF02AEF0EF02BEF0EF0378EBD
:101C56002B342B322A3229322832362A3550365C3A
:101C6600D8A038EF0EF03AEF0EF014EF0EF034BCB9
:101C76003FEF0EF041EF0EF081EF0EF03650D8A494
:101C860047EF0EF049EF0EF053EF0EF0000E286E00
:101C9600000E296E000E2A6E000E2B6EA2EF0FF0BC
:101CA6002C5028262D5029222E502A222F502B2206
:101CB6002BA060EF0EF062EF0EF00EEF0FF037A0E4
:101CC60067EF0EF069EF0EF06FEF0EF0D890373039
:101CD6000109376E71EF0EF0D890373228A076EFF3
:101CE6000EF078EF0EF079EF0EF0378E2B342B32A4
:101CF6002A3229322832362A0EEF0FF02C50285C71
:101D06002D5029582E502A582B50800A306E2F50AD
:101D1600800A3058D8B092EF0EF094EF0EF0BFEF75
:101D26000EF028502C5C306E29502D58316E2A50FA
:101D36002E58326E2B502F58336EFF0E3024286EDD
:101D4600FF0E3120296EFF0E32202A6EFF0E332041
:101D56002B6E800E341A376C3750D8A4B5EF0EF0C0
:101D6600B7EF0EF0C7EF0EF0010E2826000E29225F
:101D76002A222B22C7EF0EF02C50285E2D50295A0E
:101D86002E502A5A2F502B5A285029102A102B1021
:101D9600D8A4D0EF0EF0D2EF0EF007EF0FF03750C9
:101DA600D8A4D8EF0EF0DAEF0EF007EF0FF0000E22
:101DB600286E000E296E000E2A6E000E2B6EA2EF04
:101DC6000FF0D890283629362A362B3637AEEEEF66
:101DD6000EF0F0EF0EF0F1EF0EF0288037A0F6EFE0
:101DE6000EF0F8EF0EF0FCEF0EF0D8803736FEEF6F
:101DF6000EF0D89037363650D8B404EF0FF006EF11
:101E06000FF007EF0FF036062AAE0CEF0FF00EEFCD
:101E16000FF0E4EF0EF0000E356E37AE15EF0FF053
:101E260017EF0FF02FEF0FF037C030F07F0E3016A0
:101E3600D8B420EF0FF022EF0FF026EF0FF0010ECF
:101E4600356E2FEF0FF028A02BEF0FF02DEF0FF0D0
:101E56002FEF0FF022EF0FF03550D8B435EF0FF01B
:101E660037EF0FF062EF0FF0010E2826000E292241
:101E76002A222B222BA042EF0FF044EF0FF062EF45
:101E86000FF028C030F029C031F02AC032F02BC044
:101E960033F03334333232323132303230C028F01C
:101EA60031C029F032C02AF033C02BF03628D8B41E
:101EB6005FEF0FF061EF0FF062EF0FF0362A362872
:101EC600D8B468EF0FF06AEF0FF072EF0FF03650EC
:101ED600D8A470EF0FF072EF0FF084EF0FF0000E42
:101EE600286E000E296E000E2A6E000E2B6E3650DE
:101EF600D8A480EF0FF082EF0FF084EF0FF0000E02
:101F0600346E36A089EF0FF08BEF0FF08EEF0FF0E7
:101F16002A8E8FEF0FF02A9ED89036302B6E34AE75
:101F260097EF0FF099EF0FF09AEF0FF02B8E28C076
:101F360028F029C029F02AC02AF02BC02BF0120065
:101F46000600FACF70F0FBCF71F0E1CF72F0E2CF6E
:101F560073F0D9CF74F0DACF75F0F3CF76F0F4CF13
:101F660077F0F2A8B9EF0FF0BBEF0FF0C4EF0FF068
:101F7600F2A2C0EF0FF0C2EF0FF0C4EF0FF060EC6B
:101F86002DF0F0A6C9EF0FF0CBEF0FF0D4EF0FF066
:101F9600F0A0D0EF0FF0D2EF0FF0D4EF0FF046EC39
:101FA6002DF0F0A8D9EF0FF0DBEF0FF0E4EF0FF014
:101FB600F0A2E0EF0FF0E2EF0FF0E4EF0FF02CEC01
:101FC6002DF0F2A6E9EF0FF0EBEF0FF006EF10F0B1
:101FD600F2A0F0EF0FF0F2EF0FF006EF10F081A88D
:101FE600F7EF0FF0F9EF0FF006EF10F07B04D8A42F
:101FF600FFEF0FF001EF10F006EF10F0000E7B6E12
:10200600000E2BEC2EF0F2A60BEF10F00DEF10F0F9
:1020160028EF10F0F2A012EF10F014EF10F028EFF6
:1020260010F081BA19EF10F01BEF10F028EF10F046
:102036007B50D8A421EF10F023EF10F028EF10F01A
:10204600010E7B6E010E2BEC2EF0F2A62DEF10F09A
:102056002FEF10F04AEF10F0F2A034EF10F036EF49
:1020660010F04AEF10F081AA3BEF10F03DEF10F0B0
:102076004AEF10F07A04D8A443EF10F045EF10F0C1
:102086004AEF10F0000E7A6E000E1EEC2EF0F2A64D
:102096004FEF10F051EF10F06CEF10F0F2A056EF8A
:1020A60010F058EF10F06CEF10F081BA5DEF10F001
:1020B6005FEF10F06CEF10F07A50D8A465EF10F0D7
:1020C60067EF10F06CEF10F0010E7A6E010E1EEC49
:1020D6002EF0F2A671EF10F073EF10F08EEF10F005
:1020E600F2A078EF10F07AEF10F08EEF10F081ACDE
:1020F6007FEF10F081EF10F08EEF10F07904D8A486
:1021060087EF10F089EF10F08EEF10F0000E796E69
:10211600000E11EC2EF0F2A693EF10F095EF10F0F2
:10212600B0EF10F0F2A09AEF10F09CEF10F0B0EFC5
:1021360010F081BCA1EF10F0A3EF10F0B0EF10F09B
:102146007950D8A4A9EF10F0ABEF10F0B0EF10F073
:10215600010E796E010E11EC2EF0F2A6B5EF10F01D
:10216600B7EF10F0D2EF10F0F2A0BCEF10F0BEEF18
:1021760010F0D2EF10F081AEC3EF10F0C5EF10F003
:10218600D2EF10F07804D8A4CBEF10F0CDEF10F01A
:10219600D2EF10F0000E786E000E04EC2EF0F2A6D0
:1021A600D7EF10F0D9EF10F0F4EF10F0F2A0DEEF59
:1021B60010F0E0EF10F0F4EF10F081BEE5EF10F054
:1021C600E7EF10F0F4EF10F07850D8A4EDEF10F030
:1021D600EFEF10F0F4EF10F0010E786E010E04EC44
:1021E6002EF09DACF9EF10F0FBEF10F004EF11F0BC
:1021F6009EAC00EF11F002EF11F004EF11F061EC6C
:102206002EF0F2AA09EF11F00BEF11F014EF11F016
:10221600F2A410EF11F012EF11F014EF11F0F2EC3E
:102226002CF09DA019EF11F01BEF11F024EF11F027
:102236009EA020EF11F022EF11F024EF11F04EECEA
:102246002EF09DA229EF11F02BEF11F034EF11F0D3
:102256009EA230EF11F032EF11F034EF11F060EC86
:102266002EF0A0A239EF11F03BEF11F044EF11F080
:10227600A1A240EF11F042EF11F044EF11F041EC52
:102286002EF09DA449EF11F04BEF11F054EF11F031
:102296009EA450EF11F052EF11F054EF11F05DECE7
:1022A6002EF0A0A059EF11F05BEF11F064EF11F0E2
:1022B600A1A060EF11F062EF11F064EF11F094EC61
:1022C6002DF09DA469EF11F06BEF11F074EF11F092
:1022D6009EA470EF11F072EF11F074EF11F05BEC49
:1022E6002EF09DA879EF11F07BEF11F084EF11F03D
:1022F6009EA880EF11F082EF11F084EF11F055ECFB
:102306002EF09DAA89EF11F08BEF11F094EF11F0EA
:102316009EAA90EF11F092EF11F094EF11F05FEC9E
:102326002EF09DA699EF11F09BEF11F09CEF11F0A6
:102336009E509DA6A1EF11F0A3EF11F0ACEF11F0A6
:102346009EA6A8EF11F0AAEF11F0ACEF11F057EC32
:102356002EF0A0A6B1EF11F0B3EF11F0BCEF11F023
:10236600A1A6B8EF11F0BAEF11F0BCEF11F059ECDD
:102376002EF077C0F4FF76C0F3FF75C0DAFF74C0A5
:10238600D9FF73C0E2FF72C0E1FF71C0FBFF70C0EE
:10239600FAFF7F92110001011151800B1A6F115142
:1023A6001125206F10AFDAEF11F0DCEF11F0DDEF41
:1023B60011F020812051D8B4E3EF11F0E5EF11F0D0
:1023C600F8EF11F02029D8A4EBEF11F0EDEF11F0A2
:1023D600F5EF11F0000E0E6F000E0F6F000E106F6E
:1023E600000E116F108F00EF12F0000E0E6F000E30
:1023F6000F6F000E106F000E116F1551800B1A1B18
:10240600155115251B6F14AF0BEF12F00DEF12F0DF
:102416000EEF12F01B811B51D8B414EF12F016EF19
:1024260012F029EF12F01B29D8A41CEF12F01EEFB0
:1024360012F026EF12F0000E126F000E136F000E50
:10244600146F000E156F148F31EF12F0000E126F1D
:10245600000E136F000E146F000E156F1B51D8B4CB
:1024660037EF12F039EF12F041EF12F02051D8A4F5
:102476003FEF12F041EF12F04BEF12F0000E0E6F2D
:10248600000E0F6F000E106F000E116FE3EF13F0CA
:1024960014510E03F3CF25F1F4CF26F125511C6F0D
:1024A6001D6B1E6B1F6B2651216F226B236B246BDA
:1024B60013510F03F3CF25F1F4CF26F125511C2735
:1024C600000E1D231E231F2326512127000E222323
:1024D6002323242312511003F3CF25F1F4CF26F141
:1024E60025511C27000E1D231E231F23265121279D
:1024F600000E2223232324231EC11FF11DC11EF11A
:102506001CC11DF11C6B12510F03F3CF25F1F4CF43
:1025160026F125511C2726511D23000E1E23000ED1
:102526001F2313510E03F3CF25F1F4CF26F12551C6
:102536001C2726511D23000E1E23000E1F231EC11D
:102546001FF11DC11EF11CC11DF11C6B12510E03A2
:10255600F3CF25F1F4CF26F125511C2726511D2353
:10256600000E1E23000E1F2314510F03F3CF25F177
:10257600F4CF26F12551212726512223000E2323AD
:10258600000E242313511003F3CF25F1F4CF26F1C7
:102596002551212726512223000E2323000E242312
:1025A60014511003F3CF25F1F4CF26F12551166F00
:1025B6002651176F186B196B18C119F117C118F14D
:1025C60016C117F1166B16512127175122231851E0
:1025D6002323195124231CC116F11DC117F11EC155
:1025E60018F11FC119F1190EFEEF12F0D890193328
:1025F600183317331633E82EF9EF12F01651212748
:102606001751222318512323195124231EC11FF1C8
:102616001DC11EF11CC11DF11C6B1B5120C116F101
:10262600176B1627000E1723820E1625256FFF0E31
:102636001721266F34EF13F0D8902137223723372E
:1026460024371FAF29EF13F02BEF13F02CEF13F005
:102656002181D8901C371D371E371F372507D8A074
:10266600260723AF39EF13F03BEF13F01FEF13F0FC
:10267600000E1B6F1FAF42EF13F044EF13F068EF2D
:1026860013F0FF0E1C15166FFF0E1D15176FFF0EAC
:102696001E15186F7F0E1F15196F16511711181179
:1026A6001911D8B459EF13F05BEF13F05FEF13F085
:1026B600010E1B6F68EF13F021A164EF13F066EFB4
:1026C60013F068EF13F05BEF13F01B51D8B46EEF05
:1026D60013F070EF13F094EF13F0010E2127000EA4
:1026E60022232323242324A17BEF13F07DEF13F071
:1026F60094EF13F021C116F122C117F123C118F18D
:1027060024C119F11935193318331733163316C185
:1027160021F117C122F118C123F119C124F1254B6A
:10272600262B26BF9FEF13F0265108E12529D8A0B6
:102736009FEF13F0A1EF13F0ABEF13F0000E216F34
:10274600000E226F800E236F7F0E246FD9EF13F0D9
:1027560026BFB8EF13F0265106E12505D8B0B6EF2F
:1027660013F0B8EF13F0C4EF13F0000E216F000E54
:10277600226F000E236F000E246F000E1A6FD9EF22
:1027860013F025C120F1FF0E2117FF0E22177F0E31
:102796002317000E241720A1D3EF13F0D5EF13F063
:1027A600D6EF13F0238FD8902031246F1A512413BB
:1027B60021C10EF122C10FF123C110F124C111F183
:1027C60012003B50800B446E3B503B244A6E3AAE9F
:1027D600EFEF13F0F1EF13F0F2EF13F04A804A50E7
:1027E600D8B4F8EF13F0FAEF13F00DEF14F04A280F
:1027F600D8A400EF14F002EF14F00AEF14F0000E64
:10280600386E000E396E000E3A6E000E3B6E3A8E32
:1028160015EF14F0000E386E000E396E000E3A6E8B
:10282600000E3B6E3F50800B441A3F503F24496ECA
:102836003EAE20EF14F022EF14F023EF14F049809F
:102846004950D8B429EF14F02BEF14F03EEF14F0F2
:102856004928D8A431EF14F033EF14F03BEF14F00D
:10286600000E3C6E000E3D6E000E3E6E000E3F6E7C
:102876003E8E46EF14F0000E3C6E000E3D6E000ECE
:102886003E6E000E3F6E4950D8B44CEF14F04EEF3A
:1028960014F056EF14F04A50D8A454EF14F056EF43
:1028A60014F060EF14F0000E386E000E396E000E54
:1028B6003A6E000E3B6EF8EF15F03E503802F3CF3D
:1028C6004FF0F4CF50F04F50456E466A476A486A5B
:1028D60050504B6E4C6A4D6A4E6A3D503902F3CFEA
:1028E6004FF0F4CF50F04F504526000E46224722B7
:1028F600482250504B26000E4C224D224E223C5070
:102906003A02F3CF4FF0F4CF50F04F504526000E69
:1029160046224722482250504B26000E4C224D227A
:102926004E2247C048F046C047F045C046F0456ACB
:102936003C503902F3CF4FF0F4CF50F04F504526BC
:1029460050504622000E4722000E48223D503802C3
:10295600F3CF4FF0F4CF50F04F504526505046225B
:10296600000E4722000E482247C048F046C047F0F6
:1029760045C046F0456A3C503802F3CF4FF0F4CFDD
:1029860050F04F50452650504622000E4722000E6A
:1029960048223E503902F3CF4FF0F4CF50F04F505B
:1029A6004B2650504C22000E4D22000E4E223D501A
:1029B6003A02F3CF4FF0F4CF50F04F504B26505021
:1029C6004C22000E4D22000E4E223E503A02F3CF0C
:1029D6004FF0F4CF50F04F50406E5050416E426A67
:1029E600436A42C043F041C042F040C041F0406AF1
:1029F60040504B2641504C2242504D2243504E22CD
:102A060045C040F046C041F047C042F048C043F0E0
:102A1600190E13EF15F0D89043324232413240324C
:102A2600E82E0EEF15F040504B2641504C224250F6
:102A36004D2243504E2247C048F046C047F045C09D
:102A460046F0456A49504AC040F0416A4026000EA9
:102A56004122820E40244F6EFF0E4120506E49EFF8
:102A660015F0D8904B364C364D364E3648AE3EEFC6
:102A760015F040EF15F041EF15F04B80D890453634
:102A86004636473648364F06D8A050064DAE4EEF6E
:102A960015F050EF15F034EF15F0000E496E48AE04
:102AA60057EF15F059EF15F07DEF15F0FF0E4514B1
:102AB600406EFF0E4614416EFF0E4714426E7F0EA7
:102AC6004814436E4050411042104310D8B46EEF84
:102AD60015F070EF15F074EF15F0010E496E7DEFED
:102AE60015F04BA079EF15F07BEF15F07DEF15F0A3
:102AF60070EF15F04950D8B483EF15F085EF15F057
:102B0600A9EF15F0010E4B26000E4C224D224E2247
:102B16004EA090EF15F092EF15F0A9EF15F04BC00F
:102B260040F04CC041F04DC042F04EC043F043343B
:102B3600433242324132403240C04BF041C04CF049
:102B460042C04DF043C04EF04F4A502A50BEB4EF3B
:102B560015F0505008E14F28D8A0B4EF15F0B6EFA5
:102B660015F0C0EF15F0000E4B6E000E4C6E800E89
:102B76004D6E7F0E4E6EEEEF15F050BECDEF15F09A
:102B8600505006E14F04D8B0CBEF15F0CDEF15F05D
:102B9600D9EF15F0000E4B6E000E4C6E000E4D6E0A
:102BA600000E4E6E000E446EEEEF15F04FC04AF06A
:102BB600FF0E4B16FF0E4C167F0E4D16000E4E16D0
:102BC6004AA0E8EF15F0EAEF15F0EBEF15F04D8EA1
:102BD600D8904A304E6E44504E124BC038F04CC01E
:102BE60039F04DC03AF04EC03BF0120001012A51B7
:102BF600800B376F2A512A253E6F29AF05EF16F055
:102C060007EF16F008EF16F03E813E51D8B40EEFEE
:102C160016F010EF16F025EF16F03E29D8A416EFA1
:102C260016F018EF16F020EF16F0000E276F000EC4
:102C3600286F000E296F000E2A6F298F000E2A6F4B
:102C46002DEF16F0000E276F000E286F000E296F6D
:102C5600000E2A6F2E51800B371B2E512E253F6FEB
:102C66002DAF38EF16F03AEF16F03BEF16F03F8136
:102C76003F51D8B441EF16F043EF16F058EF16F077
:102C86003F29D8A449EF16F04BEF16F053EF16F094
:102C9600000E2B6F000E2C6F000E2D6F000E2E6F88
:102CA6002D8F000E2E6F60EF16F0000E2B6F000EAC
:102CB6002C6F000E2D6F000E2E6F2B512C112D1127
:102CC6002E11D8A469EF16F06BEF16F083EF16F00D
:102CD600000E276F000E286F000E296F000E2A6F58
:102CE600800E29137F0E2A1337512A1327C127F185
:102CF60028C128F129C129F12AC12AF1C6EF17F006
:102D06003E51D8A489EF16F08BEF16F095EF16F02A
:102D1600000E276F000E286F000E296F000E2A6F17
:102D2600C6EF17F03F513EC12FF1306B2F5F000EFB
:102D3600305B7F0E2F25386F000E3021396F27C18B
:102D460033F128C134F129C135F12AC136F1000E1B
:102D5600276F000E286F000E296F000E2A6F000ED7
:102D66003A6F000E3B6F000E3C6F000E3D6F000E7B
:102D76003F6FF6EF16F03F51D8B4C4EF16F0C6EF2A
:102D860016F0DDEF16F0D89033373437353736374F
:102D9600D8902737283729372A373DAFD5EF16F091
:102DA600D7EF16F0D8EF16F02781D8903A373B3791
:102DB6003C373D372B51335D2C5134592D51355904
:102DC6002E513659D8A0EAEF16F0ECEF16F0F5EFD3
:102DD60016F03D8D2B51335F2C51345B2D51355BF5
:102DE6002E51365B3F2B190E3F65FCEF16F0FEEFBA
:102DF60016F0BEEF16F03351341135113611D8B432
:102E060007EF17F009EF17F021EF17F03A8121EFDE
:102E160017F0D8902737283729372A373DAF16EFCE
:102E260017F018EF17F019EF17F02781D8903A37F7
:102E36003B373C373D373807D8A0390729AF26EF4F
:102E460017F028EF17F00CEF17F0000E3F6F3DAFAD
:102E56002FEF17F031EF17F055EF17F0FF0E3A1579
:102E66002F6FFF0E3B15306FFF0E3C15316F7F0E37
:102E76003D15326F2F51301131113211D8B446EF52
:102E860017F048EF17F04CEF17F0010E3F6F55EFB4
:102E960017F027A151EF17F053EF17F055EF17F082
:102EA60048EF17F03F51D8B45BEF17F05DEF17F01E
:102EB60081EF17F0010E2727000E282329232A2346
:102EC6002AA168EF17F06AEF17F081EF17F027C114
:102ED6002FF128C130F129C131F12AC132F1323541
:102EE6003233313330332F332FC127F130C128F13C
:102EF60031C129F132C12AF1384B392B39BF8CEF58
:102F060017F0395108E13829D8A08CEF17F08EEF69
:102F160017F099EF17F0000E396F3869000E276F1A
:102F2600000E286F000E296F000E2A6F39BFA6EF1C
:102F360017F0395106E13805D8B0A4EF17F0A6EF1F
:102F460017F0B4EF17F0000E396F000E386F000E51
:102F5600276F000E286F000E296F000E2A6F000ED5
:102F6600376F38C13EF13EA1BBEF17F0BDEF17F04A
:102F7600C0EF17F0298FC1EF17F0299FD8903E3187
:102F86002A6F77EF16F012001250800B1F6E125048
:102F96001224266E11AED2EF17F0D4EF17F0D5EF4C
:102FA60017F026802650D8B4DBEF17F0DDEF17F0C8
:102FB600F2EF17F02628D8A4E3EF17F0E5EF17F0A5
:102FC600EDEF17F0000E0F6E000E106E000E116E74
:102FD600000E126E118E000E126EFAEF17F0000E32
:102FE6000F6E000E106E000E116E000E126E165051
:102FF600800B1F1A16501624276E15AE05EF18F013
:1030060007EF18F008EF18F027802750D8B40EEF16
:1030160018F010EF18F025EF18F02728D8A416EFAF
:1030260018F018EF18F020EF18F0000E136E000ECF
:10303600146E000E156E000E166E158E000E166EB0
:103046002DEF18F0000E136E000E146E000E156EA6
:10305600000E166E1350141015101610D8A436EF65
:1030660018F038EF18F050EF18F0000E0F6E000E43
:10307600106E000E116E000E126E800E11127F0E73
:1030860012121F5012120FC00FF010C010F011C014
:1030960011F012C012F093EF19F02650D8A456EF93
:1030A60018F058EF18F062EF18F0000E0F6E000ED1
:1030B600106E000E116E000E126E93EF19F027506F
:1030C60026C017F0186A175E000E185A7F0E1724CE
:1030D600206E000E1820216E0FC01BF010C01CF0D1
:1030E60011C01DF012C01EF0000E0F6E000E106E05
:1030F600000E116E000E126E000E226E000E236E72
:10310600000E246E000E256E000E276EC3EF18F01B
:103116002750D8B491EF18F093EF18F0AAEF18F0F3
:10312600D8901B361C361D361E36D8900F361036F4
:103136001136123625AEA2EF18F0A4EF18F0A5EF5F
:1031460018F00F80D89022362336243625361350B1
:103156001B5C14501C5815501D5816501E58D8A0EC
:10316600B7EF18F0B9EF18F0C2EF18F0258C13502E
:103176001B5E14501C5A15501D5A16501E5A272AEB
:10318600190E2764C9EF18F0CBEF18F08BEF18F083
:103196001B501C101D101E10D8B4D4EF18F0D6EF1B
:1031A60018F0EEEF18F02280EEEF18F0D8900F36F8
:1031B60010361136123625AEE3EF18F0E5EF18F0AB
:1031C600E6EF18F00F80D8902236233624362536BF
:1031D6002006D8A0210611AEF3EF18F0F5EF18F08F
:1031E600D9EF18F0000E276E25AEFCEF18F0FEEFB3
:1031F60018F022EF19F0FF0E2214176EFF0E23149B
:10320600186EFF0E2414196E7F0E25141A6E1750B1
:10321600181019101A10D8B413EF19F015EF19F089
:1032260019EF19F0010E276E22EF19F00FA01EEF0D
:1032360019F020EF19F022EF19F015EF19F02750C9
:10324600D8B428EF19F02AEF19F04EEF19F0010E55
:103256000F26000E10221122122212A035EF19F0AD
:1032660037EF19F04EEF19F00FC017F010C018F035
:1032760011C019F012C01AF01A341A321932183263
:10328600173217C00FF018C010F019C011F01AC08D
:1032960012F0204A212A21BE59EF19F0215008E1E7
:1032A6002028D8A059EF19F05BEF19F066EF19F056
:1032B600000E216E2068000E0F6E000E106E000EBE
:1032C600116E000E126E21BE73EF19F0215006E149
:1032D6002004D8B071EF19F073EF19F081EF19F0EF
:1032E600000E216E000E206E000E0F6E000E106E88
:1032F600000E116E000E126E000E1F6E20C026F01C
:1033060026A088EF19F08AEF19F08DEF19F0118ECB
:103316008EEF19F0119ED8902630126E44EF18F0F9
:103326001200000E0001856F000E866F000E876F7B
:10333600000E886FB40E846F000E806F000E816FD2
:10334600800E826F3F0E836F000E896F000E8A6FAC
:10335600000E8B6F000E8C6F000E8D6F000E8E6F41
:10336600000E8F6F000E906F6B506C10D8A4BEEFDE
:1033760019F0C0EF19F0C2EF19F02EEF1BF06BC079
:10338600D9FF6CC0DAFFDF50D8A4CCEF19F0CEEF2E
:1033960019F07FEF1AF022EE0DF010EE91F00C0E00
:1033A600DBCFE3FFE806FCE26DC06EF06F6A6EBE2F
:1033B6006F065F0E6E26000E6F226EC001F06FC0A4
:1033C60002F0000E02BEFF0E036E046E010EFCEC50
:1033D6001CF001C00FF002C010F003C011F004C0D1
:1033E60012F0B40E016E000E026E000E036E000E99
:1033F600046E000EFCEC1CF001C013F002C014F0C9
:1034060003C015F004C016F0C7EC17F00FC089F022
:1034160010C08AF011C08BF012C08CF080C013F07F
:1034260081C014F082C015F083C016F089C00FF079
:103436008AC010F08BC011F08CC012F0C7EC17F0E8
:103446000FC028F010C029F011C02AF012C02BF0CE
:10345600000E2C6E000E2D6E800E2E6E3F0E2F6E01
:1034660043EC0DF028C08DF029C08EF02AC08FF0F5
:103476002BC090F0000E136E000E146EA00E156E8B
:10348600410E166E8DC00FF08EC010F08FC011F079
:1034960090C012F0C7EC17F00FC038F010C039F02A
:1034A60011C03AF012C03BF0000E3C6E000E3D6EAD
:1034B600C80E3E6E420E3F6EE4EC13F038C085F047
:1034C60039C086F03AC087F03BC088F0910E5B6E3B
:1034D600000E5C6E85C05DF086C05EF087C05FF052
:1034E60088C060F0D6EC1DF0910E016E000E026EE3
:1034F60004EC2BF02EEF1BF022EE00F010EE9EF007
:103506000C0EDBCFE3FFE806FCE26DC06EF06F6ADF
:103516006EBE6F065A0E6E26000E6F226EC001F04A
:103526006FC002F0000E02BEFF0E036E046E010EA7
:10353600FCEC1CF001C00FF002C010F003C011F04B
:1035460004C012F0B40E016E000E026E000E036E81
:10355600000E046E000EFCEC1CF001C013F002C05D
:1035660014F003C015F004C016F0C7EC17F00FC036
:1035760089F010C08AF011C08BF012C08CF080C0A8
:1035860013F081C014F082C015F083C016F089C014
:103596000FF08AC010F08BC011F08CC012F0C7EC8F
:1035A60017F00FC028F010C029F011C02AF012C081
:1035B6002BF0000E2C6E000E2D6E800E2E6E3F0E22
:1035C6002F6E43EC0DF028C08DF029C08EF02AC076
:1035D6008FF02BC090F0000E136E000E146EA00E2E
:1035E600156E410E166E8DC00FF08EC010F08FC096
:1035F60011F090C012F0C7EC17F00FC038F010C0F1
:1036060039F011C03AF012C03BF0000E3C6E000ECD
:103616003D6EC80E3E6E420E3F6EE4EC13F038C0AF
:1036260085F039C086F03AC087F03BC088F09E0E20
:103636005B6E000E5C6E85C05DF086C05EF087C076
:103646005FF088C060F0D6EC1DF09E0E016E000E95
:10365600026E04EC2BF012005AC1D9FF5BC1DAFFEF
:10366600DF50D8A439EF1BF03BEF1BF051EF1BF0F6
:10367600010120EE02F05A51D9265B51DA220C0ED6
:10368600DE18D8A449EF1BF04BEF1BF071EF1BF0CF
:10369600BD50F00B0C09BD6E71EF1BF05AC1D9FF7E
:1036A6005BC1DAFFDE04D8A45BEF1BF05DEF1BF015
:1036B60071EF1BF0010120EE02F05A51D9265B5141
:1036C600DA220C0EDE18D8A46BEF1BF06DEF1BF0A0
:1036D60071EF1BF0BA50F00B0C09BA6E000E010127
:1036E600126F000E136F800E146F400E156F20EED2
:1036F60005F05A51D9265B51DA22DECF5CF1DDCFD7
:103706005DF15CC100F15DC101F1026B036B000E5E
:1037160020EC1CF000C10EF101C10FF102C110F145
:1037260003C111F1CEEC11F00EC15EF10FC15FF1D4
:1037360010C160F111C161F1010120EE07F05A518B
:10374600D9265B51DA22DF505C6F5C51006F016B4A
:10375600026B036B000E20EC1CF000C112F101C1DC
:1037660013F102C114F103C115F15EC10EF15FC17F
:103776000FF160C110F161C111F1CEEC11F00EC173
:1037860062F10FC163F110C164F111C165F1000E60
:103796000101446F000E456F800E466FBF0E476FE6
:1037A60020EE08F05A51D9265B51DA22DF505C6FC1
:1037B6005C51006F016B026B036B000E20EC1CF07A
:1037C60000C112F101C113F102C114F103C115F1D7
:1037D60062C10EF163C10FF164C110F165C111F14F
:1037E600CEEC11F00EC12BF10FC12CF110C12DF151
:1037F60011C12EF1000E0101276FE60E286F2A0E69
:10380600296F490E2A6FF9EC15F027C140F128C13E
:1038160041F129C142F12AC143F1E2EC0AF040C16B
:1038260050F141C151F142C152F143C153F12DEC66
:1038360023F001015051CB6E12000101086F010106
:103846000851D8B429EF1CF02BEF1CF04DEF1CF0FB
:1038560003BF32EF1CF030EF1CF04DEF1CF000C13F
:1038660004F101C105F102C106F103C107F1041F0C
:10387600051F061F071F042B000E0523062307231B
:1038860004C10AF105C10BF106C10CF107C10DF126
:1038960055EF1CF000C10AF101C10BF102C10CF198
:1038A60003C10DF10051011102110311D8A45EEFFD
:1038B6001CF060EF1CF06AEF1CF0000E006F000EAB
:1038C600016F000E026F000E036FFBEF1CF0960EE9
:1038D600096F74EF1CF0092BD8900D330C330B33A2
:1038E6000A33000E0A15046F000E0B15056F000E45
:1038F6000C15066FFE0E0D15076F04510511061106
:103906000711D8A489EF1CF08BEF1CF06EEF1CF0AA
:1039160099EF1CF0092B010E0A27000E0B230C232E
:103926000D23D8900D330C330B330A33000E0A15D2
:10393600046F000E0B15056F000E0C15066FFF0EBB
:103946000D15076F0451051106110711D8A4AEEF26
:103956001CF0B0EF1CF08DEF1CF0B8EF1CF009075F
:10396600D8900A370B370C370D370CBFBDEF1CF05C
:10397600BFEF1CF0C7EF1CF0020E0961C5EF1CF08B
:10398600C7EF1CF0B2EF1CF009B1CCEF1CF0CEEF84
:103996001CF0CFEF1CF00C9FD890093309C104F13D
:1039A600056B066B076B04C107F1066B056B046BB1
:1039B60004510A1305510B1306510C1307510D132D
:1039C6000851D8B4E9EF1CF0EBEF1CF0F3EF1CF054
:1039D60003BFF2EF1CF0F0EF1CF0F3EF1CF00D8FBD
:1039E6000AC100F10BC101F10CC102F10DC103F1D5
:1039F6001200096E0950D8B403EF1DF005EF1DF053
:103A060027EF1DF004BE0CEF1DF00AEF1DF027EFA7
:103A16001DF001C005F002C006F003C007F004C0A7
:103A260008F0051E061E071E081E052A000E0622A1
:103A36000722082205C00BF006C00CF007C00DF0E7
:103A460008C00EF02FEF1DF001C00BF002C00CF005
:103A560003C00DF004C00EF0015002100310041054
:103A6600D8A438EF1DF03AEF1DF044EF1DF0000E1C
:103A7600016E000E026E000E036E000E046ED5EF90
:103A86001DF0960E0A6E4EEF1DF00A2AD8900E32E1
:103A96000D320C320B32000E0B14056E000E0C1498
:103AA600066E000E0D14076EFE0E0E14086E0550FF
:103AB600061007100810D8A463EF1DF065EF1DF07F
:103AC60048EF1DF073EF1DF00A2A010E0B26000EBB
:103AD6000C220D220E22D8900E320D320C320B32F1
:103AE600000E0B14056E000E0C14066E000E0D145F
:103AF600076EFF0E0E14086E05500610071008100C
:103B0600D8A488EF1DF08AEF1DF067EF1DF092EF45
:103B16001DF00A06D8900B360C360D360E360DBE45
:103B260097EF1DF099EF1DF0A1EF1DF0020E0A6050
:103B36009FEF1DF0A1EF1DF08CEF1DF00AB0A6EF70
:103B46001DF0A8EF1DF0A9EF1DF00D9ED8900A32CA
:103B56000AC005F0066A076A086A05C008F0076A1F
:103B6600066A056A05500B1206500C1207500D1214
:103B760008500E120950D8B4C3EF1DF0C5EF1DF062
:103B8600CDEF1DF004BECCEF1DF0CAEF1DF0CDEF5A
:103B96001DF00E8E0BC001F00CC002F00DC003F03C
:103BA6000EC004F01200000E686E010E676E5B50C8
:103BB6005C10D8A4E1EF1DF0E3EF1DF0E9EF1DF076
:103BC600000E686E000E676E95EF1EF0000E3C6EDE
:103BD600000E3D6E800E3E6E400E3F6E000E2C6E49
:103BE600000E2D6E800E2E6E3F0E2F6ECB50016E88
:103BF600026A036A046A000EFCEC1CF001C028F09D
:103C060002C029F003C02AF004C02BF043EC0DF0EB
:103C160028C038F029C039F02AC03AF02BC03BF052
:103C2600E4EC13F038C063F039C064F03AC065F0D4
:103C36003BC066F0000E136E000E146EC80E156EB5
:103C4600420E166E5DC00FF05EC010F05FC011F040
:103C560060C012F0C7EC17F00FC03CF010C03DF08A
:103C660011C03EF012C03FF063C038F064C039F0B6
:103C760065C03AF066C03BF0E4EC13F038C051F092
:103C860039C052F03AC053F03BC054F0B1EC23F0C7
:103C960051C069F052C06AF05BC0D9FF5CC0DAFF60
:103CA600DF50D8A459EF1EF05BEF1EF073EF1EF045
:103CB60069C061F0030E6116613ABD506118CF0B01
:103CC6006118BD6E69C061F06AC062F0D890623258
:103CD6006132D890623261326150BE6E95EF1EF04D
:103CE6005BC0D9FF5CC0DAFFDE04D8A47DEF1EF00E
:103CF6007FEF1EF095EF1EF069C061F0030E6116AE
:103D0600613ABA506118CF0B6118BA6E69C061F09A
:103D16006AC062F0D89062326132D8906232613203
:103D26006150BB6E67C05BF068C05CF01200000EAD
:103D36000101156F010E146F11511211D8A4A6EFCF
:103D46001EF0A8EF1EF0AEEF1EF0000E156F000E6F
:103D5600146F49EF1FF0C69A11C1D9FF12C1DAFFDD
:103D6600DF50136FC6501319F00B1319C66E11C12D
:103D7600D9FF12C1DAFFDF50D8B4C4EF1EF0C6EF88
:103D86001EF0ECEF1EF011C1D9FF12C1DAFFDE04FE
:103D9600D8B4D0EF1EF0D2EF1EF0ECEF1EF011C13A
:103DA600D9FF12C1DAFF020EDE18D8B4DDEF1EF01D
:103DB600DFEF1EF0ECEF1EF011C1D9FF12C1DAFFE2
:103DC600030EDE18D8A4EAEF1EF0ECEF1EF003EFA8
:103DD6001FF010EC2DF0010120EE01F01151D92653
:103DE6001251DA22DF30E832030B136F1333133329
:103DF600C75013197F0B1319C76E849425EF1FF054
:103E060011C1D9FF12C1DAFF040EDE18D8B40EEFC5
:103E16001FF010EF1FF01DEF1FF011C1D9FF12C1E7
:103E2600DAFF050EDE18D8A41BEF1FF01DEF1FF0FA
:103E360025EF1FF011C10AF112C10BF1E2EC2BF0D4
:103E4600C79E8484010120EE01F01151D92612513A
:103E5600DA22DF50030B136F133BC6501319EF0B17
:103E66001319C66E20EE01F01151D9261251DA222D
:103E7600DF38030B136F133B13471347C750131950
:103E8600BF0B1319C76EC69EC69CC68A14C111F114
:103E960015C112F1120003C1D9FF04C1DAFFDF50C8
:103EA600D8A458EF1FF05AEF1FF0A2EF1FF07AEFD9
:103EB6001FF0BD50F00B0809BD6EF6EF1FF0BD50A8
:103EC600F00B0909BD6EF6EF1FF0BD50F00B0209AD
:103ED600BD6EF6EF1FF0BD50F00B0A09BD6EF6EF92
:103EE6001FF0BD50F00B0B09BD6EF6EF1FF0010180
:103EF60020EE02F00351D9260451DA22DF50056F75
:103F0600066B0651000AD8B48BEF1FF0F6EF1FF0D0
:103F16000551020AD8B468EF1FF00A0AD8B45CEF5C
:103F26001FF0010AD8B462EF1FF0030AD8B46EEF8F
:103F36001FF0010AD8B474EF1FF0F6EF1FF003C1AB
:103F4600D9FF04C1DAFFDE04D8A4ACEF1FF0AEEF50
:103F56001FF0F6EF1FF0CEEF1FF0BA50F00B080976
:103F6600BA6EF6EF1FF0BA50F00B0909BA6EF6EF0B
:103F76001FF0BA50F00B0209BA6EF6EF1FF0BA50F6
:103F8600F00B0A09BA6EF6EF1FF0BA50F00B0B09E8
:103F9600BA6EF6EF1FF0010120EE02F00351D926AA
:103FA6000451DA22DF50056F066B0651000AD8B4B9
:103FB600DFEF1FF0F6EF1FF00551020AD8B4BCEF91
:103FC6001FF00A0AD8B4B0EF1FF0010AD8B4B6EF52
:103FD6001FF0030AD8B4C2EF1FF0010AD8B4C8EF25
:103FE6001FF0F6EF1FF003C100F104C101F177ECF9
:103FF6002BF01200000E0101096F010E086F00512F
:104006000111D8B409EF20F00BEF20F01CEF20F0DF
:1040160000C1D9FF01C1DAFFDF30E832E832070B11
:10402600026F070E02651AEF20F01CEF20F083EFF7
:1040360020F0000E096F000E086FA4EF20F000C1FB
:10404600D9FF01C1DAFFDF30E832E832070B026F31
:10405600010E036F022B32EF20F0D8900337022FA8
:1040660030EF20F001010351FF0A046F00C1D9FFB0
:1040760001C1DAFFDF50070B056F0551020D890EEE
:10408600F324D96E010EF420DA6EDECF06F1DDCF11
:1040960007F106C1D9FF07C1DAFF0451DF16A4EF05
:1040A60020F000C1D9FF01C1DAFFDF30E832E83283
:1040B600070B026F010E036F022B64EF20F0D890FE
:1040C6000337022F62EF20F000C1D9FF01C1DAFFEA
:1040D600DF50070B0101046F0451020D890EF32412
:1040E600D96E010EF420DA6EDECF05F1DDCF06F1D2
:1040F60005C1D9FF06C1DAFF0351DF12A4EF20F094
:1041060000C1D9FF01C1DAFFDFBC8CEF20F08FEFD1
:1041160020F0010E90EF20F0000E026F036B0351AA
:10412600000AD8B499EF20F01CEF20F00251000AE3
:10413600D8B422EF20F0010AD8B454EF20F01CEFD7
:1041460020F008C100F109C101F11200000E0101C1
:104156000A6F000E096F00510111D8B4B5EF20F0B7
:10416600B7EF20F0C8EF20F000C1D9FF01C1DAFF98
:10417600DF30E832E832070B036F070E0365C6EF40
:1041860020F0C8EF20F035EF21F0000E0A6F010E87
:10419600096F4AEF21F000C1D9FF01C1DAFFDF3014
:1041A600E832E832070B036F010E046F032BDEEFD4
:1041B60020F0D8900437032FDCEF20F001010451E2
:1041C600FF0A056F00C1D9FF01C1DAFFDF50070BF7
:1041D600066F0651020D7F0EF324D96E010EF420F0
:1041E600DA6EDECF07F1DDCF08F107C1D9FF08C1CE
:1041F600DAFF0551DF164AEF21F000C1D9FF01C1F0
:10420600DAFFDF30E832E832070B036F010E046F86
:10421600032B10EF21F0D8900437032F0EEF21F077
:1042260000C1D9FF01C1DAFFDF50070B0101056F9D
:104236000551020D7F0EF324D96E010EF420DA6EBD
:10424600DECF06F1DDCF07F106C1D9FF07C1DAFFE0
:104256000451DF124AEF21F0000E0A6F000E096FBB
:104266004AEF21F00251036F046B0451000AD8B4DF
:104276003FEF21F02FEF21F00351000AD8B4CEEF23
:1042860020F0010AD8B400EF21F02FEF21F009C188
:1042960000F10AC101F11200000E0B6E000E0A6E4B
:1042A60001500210D8B45AEF21F05CEF21F06DEF07
:1042B60021F001C0D9FF02C0DAFFDF30E832E83270
:1042C600070B046E070E04646BEF21F06DEF21F00F
:1042D600D8EF21F0000E0B6E010E0A6EEDEF21F005
:1042E60001C0D9FF02C0DAFFDF30E832E832070B3F
:1042F600046E010E056E042A83EF21F0D890053670
:10430600042E81EF21F00550FF0A066E01C0D9FF89
:1043160002C0DAFFDF50070B076E0750020D7F0E53
:10432600F324D96E010EF420DA6EDECF08F0DDCF6D
:1043360009F008C0D9FF09C0DAFF0650DF16EDEF15
:1043460021F001C0D9FF02C0DAFFDF30E832E832DF
:10435600070B046E010E056E042AB4EF21F0D89007
:104366000536042EB2EF21F001C0D9FF02C0DAFFF4
:10437600DF50070B066E0650020D7F0EF324D96E32
:10438600010EF420DA6EDECF07F0DDCF08F007C0AD
:10439600D9FF08C0DAFF0550DF12EDEF21F0000E5D
:1043A6000B6E000E0A6EEDEF21F00350046E056AE7
:1043B6000550000AD8B4E2EF21F0D2EF21F0045004
:1043C600000AD8B473EF21F0010AD8B4A4EF21F0A3
:1043D600D2EF21F00AC001F00BC002F01200000E6D
:1043E6000101056F010E046F00510111D8A4FEEF03
:1043F60021F000EF22F06EEF22F0000E056F000EA6
:10440600046F8DEF22F020EE04F00051D926015101
:10441600DA22DF50D8A412EF22F014EF22F017EFC1
:1044260022F0F19C8DEF22F020EE04F00051D92607
:104436000151DA22DE04D8A423EF22F025EF22F080
:1044460028EF22F0F18C8DEF22F08DEF22F020EE96
:1044560004F00051D9260151DA22DF50D8A436EFF4
:1044660022F038EF22F03BEF22F0F19C8DEF22F0A4
:1044760020EE04F00051D9260151DA22DE04D8A438
:1044860047EF22F049EF22F08DEF22F0F18C8DEF0D
:1044960022F020EE04F00051D9260151DA22DF5035
:1044A600D8A458EF22F05AEF22F05DEF22F0F19CEB
:1044B6008DEF22F020EE04F00051D9260151DA22C8
:1044C600DE04D8A469EF22F06BEF22F08DEF22F024
:1044D600F18C8DEF22F020EE03F00051D926015128
:1044E600DA22DF50026F036B0351000AD8B47EEF65
:1044F60022F000EF22F00251000AD8B406EF22F0B3
:10450600010AD8B42AEF22F0030AD8B44CEF22F0FD
:1045160000EF22F004C100F105C101F1120003C150
:10452600D9FF04C1DAFFDF50D8A49CEF22F09EEF3A
:1045360022F0DCEF22F0B8EF22F0BD50F00B0409B8
:10454600BD6E26EF23F0BD50F00B0509BD6E26EFBC
:1045560023F0BD50F00B0609BD6E26EF23F0BD50CB
:10456600F00B0709BD6E26EF23F0010120EE02F0E5
:104576000351D9260451DA22DF50056F066B065126
:10458600000AD8B4C9EF22F026EF23F00551040A39
:10459600D8B4A0EF22F0010AD8B4A6EF22F0030A9D
:1045A600D8B4ACEF22F0010AD8B4B2EF22F026EF6D
:1045B60023F003C1D9FF04C1DAFFDE04D8A4E6EF75
:1045C60022F0E8EF22F026EF23F002EF23F0BA50B4
:1045D600F00B0409BA6E26EF23F0BA50F00B05096A
:1045E600BA6E26EF23F0BA50F00B0609BA6E26EF24
:1045F60023F0BA50F00B0709BA6E26EF23F001013B
:1046060020EE02F00351D9260451DA22DF50056F5D
:10461600066B0651000AD8B413EF23F026EF23F0F9
:104626000551040AD8B4EAEF22F0010AD8B4F0EF33
:1046360022F0030AD8B4F6EF22F0010AD8B4FCEF50
:1046460022F026EF23F003C100F104C101F177EC5B
:104656002BF01200010152355335596F5951D8A428
:1046660037EF23F039EF23F043EF23F0000E506FBE
:10467600000E516F000E526F000E536FB0EF23F015
:1046860050C154F151C155F152C156F153C157F1C0
:10469600200E53EF23F0D890573356335533543307
:1046A600E82E4EEF23F05451586F528FFF0E5017DD
:1046B600FF0E5117FF0E5217000E5317960E595F35
:1046C60059BF6AEF23F068EF23F080EF23F05951CA
:1046D600800A970FD8B072EF23F074EF23F076EFCD
:1046E60023F039EF23F0D8905333523351335033FC
:1046F600593F76EF23F098EF23F01F0E596586EFAA
:1047060023F088EF23F090EF23F039EF23F0D890D1
:10471600503751375237533759075951D8A496EF66
:1047260023F098EF23F08AEF23F05851D8B49EEF88
:1047360023F0A0EF23F0A8EF23F0531F521F511FC1
:10474600506D000E51235223532350C150F151C1D5
:1047560051F152C152F153C153F112005334543442
:104766005A6E5A50D8A4BAEF23F0BCEF23F0C6EF26
:1047760023F0000E516E000E526E000E536E000EA8
:10478600546E33EF24F051C055F052C056F053C06A
:1047960057F054C058F0200ED6EF23F0D890583278
:1047A600573256325532E82ED1EF23F05550596E16
:1047B600538EFF0E5116FF0E5216FF0E5316000EA5
:1047C6005416960E5A5E5ABEEDEF23F0EBEF23F029
:1047D60003EF24F05A50800A970FD8B0F5EF23F074
:1047E600F7EF23F0F9EF23F0BCEF23F0D890543223
:1047F6005332523251325A3EF9EF23F01BEF24F076
:104806001F0E5A6409EF24F00BEF24F013EF24F087
:10481600BCEF23F0D89051365236533654365A06EA
:104826005A50D8A419EF24F01BEF24F00DEF24F012
:104836005950D8B421EF24F023EF24F02BEF24F0C5
:10484600541E531E521E516C000E522253225422E5
:1048560051C051F052C052F053C053F054C054F0FE
:104866001200010166516711D8A43CEF24F03EEF17
:1048760024F045EF24F0000E0201296F000E286F88
:10488600ADEF24F066C1D9FF67C1DAFFDF50D8A4C7
:104896004FEF24F051EF24F055EF24F0F00EBD1643
:1048A60057EF24F0F00EBA1620EE01F06651D92625
:1048B6006751DA22DF50D8A463EF24F065EF24F0C5
:1048C6006DEF24F066C103F167C104F192EC22F0AA
:1048D6009AEF24F020EE01F06651D9266751DA22CC
:1048E600DE04D8A479EF24F07BEF24F083EF24F0E4
:1048F60066C103F167C104F14EEC1FF09AEF24F094
:1049060020EE01F06651D9266751DA22020EDE1832
:10491600D8A490EF24F092EF24F09AEF24F066C129
:104926005AF167C15BF12FEC1BF09AEF24F0030EEE
:10493600010166250B6F000E67210C6FB0EC2BF0A2
:104946000BC128F20CC129F266C100F167C101F161
:104956003EEC2BF028C266F129C267F11200B3ECD7
:1049660027F0B10E01010A6F010E0B6FD3EC2CF08C
:104976000AC1FEF10BC1FFF1AE0E01010A6F010E75
:104986000B6FD3EC2CF00AC1FEF10BC1FFF1AB0E9D
:1049960001010A6F010E0B6FD3EC2CF00AC1FEF178
:1049A6000BC1FFF1A80E01010A6F010E0B6FD3ECCC
:1049B6002CF00AC1FEF10BC1FFF1960E0101036F47
:1049C600010E046F50EC26F003C1FEF104C1FFF1A5
:1049D600A20E01010E6F010E0F6F5DEC27F00EC1E6
:1049E600FEF10FC1FFF19C0E01010E6F010E0F6F5C
:1049F6005DEC27F00EC1FEF10FC1FFF1F90E0201C9
:104A06002A6F010E2B6F05EC27F02AC2FEF12BC28E
:104A1600FFF1B40E0101116F010E126F9AEC1EF038
:104A260011C1FEF112C1FFF1B60E01010B6F010EAD
:104A36000C6FB0EC2BF00BC1FEF10CC1FFF11200B4
:104A4600000E0101126F0B510C11D8B42DEF25F099
:104A56002FEF25F038EF25F00D510E11D8A436EFC3
:104A660025F038EF25F03EEF25F0000E116F000E11
:104A7600106F8AEF25F00BC100F10CC101F1120E87
:104A8600026F010E036F8FEC25F000C110F101C11A
:104A960011F1010120EE02F00B51D9260C51DA2258
:104AA600DF50D8A459EF25F05BEF25F072EF25F023
:104AB6001205D8A461EF25F063EF25F06BEF25F022
:104AC6000DC1D9FF0EC1DAFF010EDF6E8AEF25F0A8
:104AD6000DC1D9FF0EC1DAFFDF6A8AEF25F020EE9D
:104AE60002F00B51D9260C51DA22DE04D8A47EEF4F
:104AF60025F080EF25F08AEF25F01205D8A486EF81
:104B060025F088EF25F063EF25F06BEF25F010C157
:104B16000BF111C10CF11200000E01010A6F010E1A
:104B2600096F00510111D8B49BEF25F09DEF25F0D8
:104B3600B7EF25F002510311D8B4A4EF25F0A6EF84
:104B460025F0B7EF25F000C1D9FF01C1DAFFDF304C
:104B5600E832E832070B046F070E0465B5EF25F05F
:104B6600B7EF25F0BDEF25F0000E0A6F000E096FB6
:104B7600EFEF25F000C1D9FF01C1DAFFDF30E832DF
:104B8600E832070B046F00C1D9FF01C1DAFFDF501D
:104B9600070B056F0551020D750EF324D96E010E34
:104BA600F420DA6EDECF06F1DDCF07F106C1D9FFBC
:104BB60007C1DAFFDF50086F042BE4EF25F0D89029
:104BC6000833042FE2EF25F001010851010B02C161
:104BD600D9FF03C1DAFFDF6E09C100F10AC101F195
:104BE6001200000E0101076F010E066F025103113C
:104BF600D8A400EF26F002EF26F02CEF26F0000EE8
:104C0600076F000E066F4BEF26F002C1D9FF03C1F6
:104C1600DAFFDECF00F1DDCF01F1E2EC2DF04BEF54
:104C260026F002C1D9FF03C1DAFFDECF00F1DDCFE6
:104C360001F1D1EC2DF04BEF26F002C1D9FF03C1F3
:104C4600DAFFDECF00F1DDCF01F1C0EC2DF04BEF46
:104C560026F020EE03F00251D9260351DA22DF5066
:104C6600046F056B0551000AD8B43CEF26F002EF3D
:104C760026F00451000AD8B408EF26F0010AD8B489
:104C860014EF26F0030AD8B420EF26F002EF26F040
:104C960006C102F107C103F11200000E0101086FFF
:104CA600010E076F03510411D8A45CEF26F05EEFE6
:104CB60026F064EF26F0000E086F000E076FA6EFD1
:104CC60026F0D59E03C100F104C101F114EC2CF0CD
:104CD60003C100F104C101F189EC2AF003C100F11E
:104CE60004C101F1B3EC2CF0010120EE03F00351F5
:104CF600D9260451DA22DECF05F1DDCF06F106C151
:104D060005F1066B0551D76E20EE03F00351D92647
:104D16000451DA22DF50D66E20EE03F00351D92675
:104D26000451DA22DECFADF0DDCFAEF0F28AF29496
:104D360003C1D9FF04C1DAFFDECFAFF0DDCFB0F09B
:104D4600F28EF28CD58E07C103F108C104F1120070
:104D5600580EF66E5B0EF76E000EF86E02EE00F061
:104D660010EE27F00900F5CFEEFFE550E150FAE12D
:104D7600D40EF66E580EF76E000EF86E01EE68F061
:104D860010EE4FF00900F5CFEEFFE550E150FAE1E5
:104D9600700EF66E5C0EF76E000EF86E00EEC3F047
:104DA60010EE12F00900F5CFEEFFE550E150FAE102
:104DB600A60EF66E5C0EF76E000EF86E00EE78F03C
:104DC60010EE04F00900F5CFEEFFE550E150FAE1F0
:104DD60002EE4CF00B0EEE6AE806FDE101EEB7F0CE
:104DE600470EEE6AE806FDE100EEABF0180EEE6A3D
:104DF600E806FDE17E6A7D6A7C6A7F907F9200010B
:104E06000BEF08F002012A512B11D8A40DEF27F061
:104E16000FEF27F015EF27F0000E306F000E2F6F03
:104E260058EF27F093C12CF294C12DF295C12EF2C2
:104E36002C0E0101006F020E016F79EC29F02AC2D7
:104E4600D9FF2BC2DAFFDF50D8A42CEF27F02EEFC4
:104E560027F044EF27F021EE68F012EE31F00C0E49
:104E6600DBCFE3FFE806FCE2310E0101666F020EBE
:104E7600676F34EC24F066C12FF267C130F258EF49
:104E860027F022EE1AF012EE3EF00C0EDBCFE3FF17
:104E9600E806FCE23E0E0101666F020E676F34EC17
:104EA60024F066C12FF267C130F22FC22AF230C257
:104EB6002BF2120001010E510F11D8A465EF27F055
:104EC60067EF27F06DEF27F0000E116F000E106FE1
:104ED600AEEF27F00EC100F10FC101F107EC2AF089
:104EE60000C110F101C111F10EC100F10FC101F1B4
:104EF60048EC2AF0010100511013015111130EC1A3
:104F060000F10FC101F1F2EC21F001010051101383
:104F1600015111130EC10AF10FC10BF192EC2CF0E5
:104F260001010A5110130B5111130EC102F10FC1E9
:104F360003F1F4EC25F00101025110130351111392
:104F46000EC100F10FC101F1C0EC29F001010051C1
:104F560010130151111310C10EF111C10FF11200FE
:104F6600D40E01010F6F000E106F9EEC28F0D30EC9
:104F760001010F6F000E106F9EEC28F0D20E01019A
:104F86000F6F000E106F9EEC28F0D10E01010F6F0F
:104F9600000E106F9EEC28F0C20E01010F6F000E7E
:104FA600106F9EEC28F0D00E01010F6F000E106FEF
:104FB6009EEC28F0CF0E01010F6F000E106F9EECD5
:104FC60028F0CE0E01010F6F000E106F9EEC28F038
:104FD600CD0E01010F6F000E106F9EEC28F0CC0E67
:104FE60001010F6F000E106F9EEC28F0CB0E010131
:104FF6000F6F000E106F9EEC28F0CA0E01010F6FA6
:10500600000E106F9EEC28F0120001010B510C11DE
:10501600D8A410EF28F012EF28F018EF28F0000EB1
:105026000F6F000E0E6F4EEF28F0C0C010F10BC1CF
:10503600D9FF0CC1DAFFDF50070B0D6F10510D19A8
:10504600F80B0D19106F0BC1D9FF0CC1DAFFDF3059
:10505600E832E832070B0D6F0D470D470D4710512B
:105066000D19C70B0D19106F109D0BC1D9FF0CC17F
:10507600DAFFDFAC02D0108F02D00101109F100EB4
:10508600006F010E016F010E026FA9EC20F000C146
:105096000EF101C10FF10EC10BF10FC10CF112009F
:1050A60001010B510C11D8A45BEF28F05DEF28F03D
:1050B60063EF28F0000E0F6F000E0E6F99EF28F0C9
:1050C600BFC010F10BC1D9FF0CC1DAFFDF50070BCF
:1050D6000D6F10510D19F80B0D19106F0BC1D9FF7B
:1050E6000CC1DAFFDF30E832E832070B0D6F0D47EF
:1050F6000D470D4710510D19C70B0D19106F109D57
:105106000BC1D9FF0CC1DAFFDFAC02D0108F02D081
:105116000101109F100E006F010E016F000E026F4D
:10512600A9EC20F000C10EF101C10FF10EC10BF187
:105136000FC10CF1120001010F511011D8A4A6EFF6
:1051460028F0A8EF28F0AEEF28F0000E136F000E3F
:10515600126FE2EF28F0C1C014F10FC1D9FF10C1E0
:10516600DAFFDF50070B116F14511119F80B1119E3
:10517600146F0FC1D9FF10C1DAFFDF30E832E83211
:10518600070B116F11471147114714511119C70B1E
:105196001119146F149D0FC1D9FF10C1DAFFDFACCE
:1051A60002D0148F02D00101149F140E0B6F010E52
:1051B6000C6FB0EC2BF00BC112F10CC113F112C144
:1051C6000FF113C110F112000C500D10D8A4EEEF20
:1051D60028F0F0EF28F0F6EF28F0000E106E000E23
:1051E6000F6E2BEF29F0C0C011F00CC0D9FF0DC017
:1051F600DAFFDF50070B0E6E11500E18F80B0E1863
:10520600116E0CC0D9FF0DC0DAFFDF30E832E8328C
:10521600070B0E6E0E460E460E4611500E18C70BA5
:105226000E18116E119C0CC0D9FF0DC0DAFFDFAC51
:1052360002D0118E01D0119E110E016E000E026E6B
:10524600010E036E4FEC21F001C00FF002C010F00A
:105256000FC00CF010C00DF012000C500D10D8A4A9
:1052660037EF29F039EF29F03FEF29F0000E106EE5
:10527600000E0F6E74EF29F0BFC011F00CC0D9FFFD
:105286000DC0DAFFDF50070B0E6E11500E18F80B2B
:105296000E18116E0CC0D9FF0DC0DAFFDF30E832F0
:1052A600E832070B0E6E0E460E460E4611500E18CD
:1052B600C70B0E18116E119C0CC0D9FF0DC0DAFF7A
:1052C600DFAC02D0118E01D0119E110E016E000EC0
:1052D600026E000E036E4FEC21F001C00FF002C00B
:1052E60010F00FC00CF010C00DF01200000E0101FE
:1052F600046F010E036F00510111D8A485EF29F048
:1053060087EF29F08DEF29F0000E046F000E036F72
:10531600BBEF29F0CA9420EE02F00051D9260151C4
:10532600DA22DF50026FCA500219FC0B0219CA6E4C
:1053360020EE01F00051D9260151DA22DF50026F2A
:10534600024702470247CA500219870B0219CA6E62
:1053560000C1D9FF01C1DAFFDF50CC6E00C1D9FF11
:1053660001C1DAFFDF50026F0251D06FD16BCA84E0
:1053760003C100F104C101F11200000E0101056F25
:10538600010E046F00510111D8A4CCEF29F0CEEF25
:1053960029F0E3EF29F0000E056F000E046F02EF0F
:1053A6002AF0F28EF28CF28802EF2AF0F28EF28C5C
:1053B600F08602EF2AF0F28EF28CF08802EF2AF0E5
:1053C60020EE03F00051D9260151DA22DF50026F98
:1053D600036B0351000AD8B4F3EF29F0CEEF29F09E
:1053E6000251000AD8B4D4EF29F0010AD8B4D9EF93
:1053F60029F0030AD8B4DEEF29F0CEEF29F004C174
:1054060000F105C101F11200000E0101056F010E48
:10541600046F00510111D8A413EF2AF015EF2AF0FA
:1054260024EF2AF0000E056F000E046F43EF2AF0FA
:10543600F29843EF2AF0F09643EF2AF0F09843EF04
:105446002AF020EE03F00051D9260151DA22DF506E
:10545600026F036B0351000AD8B434EF2AF015EF3C
:105466002AF00251000AD8B41BEF2AF0010AD8B478
:105476001EEF2AF0030AD8B421EF2AF015EF2AF01E
:1054860004C100F105C101F11200000E0101056F12
:10549600010E046F00510111D8A454EF2AF056EF03
:1054A6002AF065EF2AF0000E056F000E046F84EFF8
:1054B6002AF0F29284EF2AF0F09084EF2AF0F0922C
:1054C60084EF2AF020EE03F00051D9260151DA22AA
:1054D600DF50026F036B0351000AD8B475EF2AF050
:1054E60056EF2AF00251000AD8B45CEF2AF0010AFE
:1054F600D8B45FEF2AF0030AD8B462EF2AF056EF69
:105506002AF004C100F105C101F11200010120EEEB
:1055160005F00051D9260151DA22DFB495EF2AF0C1
:1055260097EF2AF09AEF2AF0D59AC8EF2AF020EEE4
:1055360005F00051D9260151DA22DFA4A5EF2AF0A1
:10554600A7EF2AF0C8EF2AF0D58A20EE05F0005121
:10555600D9260151DA22DFA2B3EF2AF0B5EF2AF0FD
:10556600B8EF2AF0D588C8EF2AF020EE05F00051F2
:10557600D9260151DA22DFB2C3EF2AF0C5EF2AF0AD
:10558600C8EF2AF0D598C8EF2AF012007E50D8A4AA
:10559600CFEF2AF0D1EF2AF0E7EF2AF0010E7E6E68
:1055A600D40E0C6E000E0D6EE7EC28F00CC0FEF16A
:1055B6000DC0FFF1F90E6B6E010E6C6E5A0E6D6E1C
:1055C60094EC19F003EF2BF07E04D8A4EDEF2AF04B
:1055D600EFEF2AF003EF2BF0000E7E6ED40E0C6E6A
:1055E600000E0D6E30EC29F00CC0FEF10DC0FFF17F
:1055F600F90E6B6E010E6C6EA10E6D6E94EC19F0C9
:105606001200000E056E010E046E01500210D8A4A1
:105616000FEF2BF011EF2BF017EF2BF0000E056EAE
:10562600000E046E39EF2BF001C0D9FF02C0DAFF7D
:10563600DF50D8A421EF2BF023EF2BF029EF2BF02E
:10564600BD50F00B0C09BD6E39EF2BF001C0D9FF30
:1056560002C0DAFFDE04D8A433EF2BF035EF2BF0CF
:1056660039EF2BF0BA50F00B0C09BA6E04C001F0FA
:1056760005C002F0120000C1D9FF01C1DAFFDF50F8
:10568600D8A448EF2BF04AEF2BF05BEF2BF09D846C
:105696009E94010120EE09F00051D9260151DA222B
:1056A600DECFECF1DDCFEDF1F28EF28C76EF2BF062
:1056B60000C1D9FF01C1DAFFDE04D8A465EF2BF0E3
:1056C60067EF2BF076EF2BF0A0809E94010120EE81
:1056D6000BF00051D9260151DA22DECFB7F0DDCF2B
:1056E600B8F0F28EF28C1200010120EE04F00051A7
:1056F600D9260151DA22DF50D8A484EF2BF086EFA9
:105706002BF08AEF2BF0B196B18CAFEF2BF020EE99
:1057160004F00051D9260151DA22DE04D8A496EF0E
:105726002BF098EF2BF09CEF2BF0B186B19CAFEFEE
:105736002BF020EE04F00051D9260151DA22020E98
:10574600DE18D8A4A9EF2BF0ABEF2BF0AFEF2BF0C0
:10575600B196B19CAFEF2BF0120001010B510C1169
:10576600D8A4B8EF2BF0BAEF2BF0C0EF2BF0000E59
:105776000E6F000E0D6FDDEF2BF00BC100F10CC1AB
:1057860001F1FDEC1FF000C10DF101C10EF10BC1DD
:1057960000F10CC101F10BC1D9FF0CC1DAFF010107
:1057A600000EDFBE010E026FA9EC20F000C10DF164
:1057B60001C10EF10DC10BF10EC10CF11200C6C0F4
:1057C6000DF1C5C00EF1C4C00FF1C3C010F10D0E2E
:1057D6000101006F010E016FFDEC1FF00E0E0101BD
:1057E600006F010E016FFDEC1FF00F0E0101006F3F
:1057F600010E016FFDEC1FF00AC1D9FF0BC1DAFFE4
:10580600040EDE18D8A40AEF2CF00CEF2CF013EFE0
:105816002CF0100E0101006F010E016FFDEC1FF060
:105826001200010120EE05F00051D9260151DA22BD
:10583600DFB020EF2CF022EF2CF032EF2CF0D596D3
:1058460020EE02F00051D9260151DA22DF50026F14
:10585600D5500219F80B0219D56E40EF2CF020EE48
:1058660005F00051D9260151DA22DFA03DEF2CF0D8
:105876003FEF2CF040EF2CF0D58612000101026FAD
:10588600000E0101046F000E036F00510111D8B420
:105896004FEF2CF051EF2CF065EF2CF0000E046F5B
:1058A600010E036F02C1C9FF9EA65CEF2CF05EEFEE
:1058B6002CF057EF2CF09E9600C1D9FF01C1DAFFFC
:1058C600C9CFDFFF03C100F104C101F112000002DC
:1058D6000C12003200011000000000800F810F82C0
:1058E6000F830F840F890F8A0F8B0F8C0F8D0F92EA
:1058F6000F930F940F950F960F000002905C00A473
:10590600BB00F45A510201009255490101005B00A7
:0D591600005900007900007A000000118B9C
:1059240001010A510B11D8A49AEF2CF09CEF2CF032
:10593400A2EF2CF0000E0D6F000E0C6FAEEF2CF0EA
:10594400020E0A25006F000E0B21016FFDEC1FF003
:1059540000C10CF101C10DF10CC10AF10DC10BF133
:105964001200010120EE05F00051D9260151DA227E
:10597400DFA6BFEF2CF0C1EF2CF0C4EF2CF0D58CD8
:10598400D2EF2CF020EE05F00051D9260151DA2295
:10599400DFB6CFEF2CF0D1EF2CF0D2EF2CF0D59C6A
:1059A400120001010A510B11D8A4DBEF2CF0DDEF3A
:1059B4002CF0E3EF2CF0000E0D6F000E0C6FEDEFEA
:1059C4002CF00AC100F10BC101F1FDEC1FF000C184
:1059D4000CF101C10DF10CC10AF10DC10BF1120062
:1059E400F2940001AE51D76EADC0D6FFAF51B011E5
:1059F400D8A4FFEF2CF001EF2DF003EF2DF00FEF03
:105A04002DF002D80FEF2DF00500FA6EAF51FD6EA8
:105A1400B051FE6EFF6AFA5012001200C9C00AF1BA
:105A2400C8C00BF1C7C00CF10A0E0101006F010ED2
:105A3400016FFDEC1FF00B0E0101006F010E016FF1
:105A4400FDEC1FF00C0E0101006F010E016FFDEC67
:105A54001FF01200F0920001B151B211D8A435EF39
:105A64002DF037EF2DF039EF2DF045EF2DF002D862
:105A740045EF2DF00500FA6EB151FD6EB251FE6E88
:105A8400FF6AFA5012001200F0900001B351B411F1
:105A9400D8A44FEF2DF051EF2DF053EF2DF05FEF21
:105AA4002DF002D85FEF2DF00500FA6EB351FD6EB4
:105AB400B451FE6EFF6AFA5012001200F292000115
:105AC400B551B611D8A469EF2DF06BEF2DF06DEF41
:105AD4002DF079EF2DF002D879EF2DF00500FA6E54
:105AE400B551FD6EB651FE6EFF6AFA5012001200F7
:105AF4000101F751D8A481EF2DF083EF2DF089EF48
:105B04002DF0010EF76F050EEE6F93EF2DF0F705F4
:105B1400D8A48FEF2DF091EF2DF093EF2DF0000E20
:105B2400F76F1200A1900001B751B811D8B49DEFDE
:105B34002DF09FEF2DF0ABEF2DF002D8ABEF2DF051
:105B44000500FA6EB751FD6EB851FE6EFF6AFA5049
:105B54001200120001020C0A0032000110000000C1
:105B64000000020C120032000110000000000102CB
:0B5B74000C0A003200011000000000CD
:105B8000010100510111D8A4C8EF2DF0CAEF2DF08A
:105B9000CCEF2DF0D0EF2DF000C1B1F001C1B2F08B
:105BA0001200010100510111D8A4D9EF2DF0DBEF53
:105BB0002DF0DDEF2DF0E1EF2DF000C1B3F001C1CC
:105BC000B4F01200010100510111D8A4EAEF2DF048
:105BD000ECEF2DF0EEEF2DF0F2EF2DF000C1B5F06F
:105BE00001C1B6F01200010100510111D8A4FBEF70
:105BF0002DF0FDEF2DF0FFEF2DF003EF2EF0035110
:105C0000D76E02C1D6FF1200016EF2900150D8A4E7
:105C10000CEF2EF00EEF2EF010EF2EF010EF2EF016
:105C20001200016EF2900150D8A419EF2EF01BEF74
:105C30002EF01DEF2EF01DEF2EF01200016EF290EF
:105C40000150D8A426EF2EF028EF2EF02AEF2EF0E8
:105C50002AEF2EF01200016EF2900150D8A433EF1B
:105C60002EF035EF2EF037EF2EF037EF2EF012003A
:105C7000685A622A1A622A032802332B1008312933
:105C80002132A1920001AC51B36EABC0B2FF120041
:105C90000101F12BF22BF02BEF2B12007D50CF6E78
:105CA0007CC0CEFF1200010101019D9812009E965A
:105CB0001200A19612009E9412009E9412001200EF
:045CC00012001200BC
:020000040020DA
:08000000FFFFFFFFFFFFFFFF00
:020000040030CA
:0E000000FF02091EFF8181FF0FC00FE00F40BD
:00000001FF
