:0400000007EF00F016
:0A0008006982FFED0DF0F4EF23F024
:10100000003738392F3435362A3132332D40303DD0
:051010002B2569000022
:10101600B9EC1CF00001CC51D8A414EF08F016EF7F
:1010260008F024EF08F0770E206E010E216E000EF8
:10103600226E54EC29F020C0FEF121C0FFF138EFFA
:1010460008F0CC05D8A42AEF08F02CEF08F038EF0A
:1010560008F0770E206E010E216E010E226E54EC02
:1010660029F020C0FEF121C0FFF1F60E0001846FC9
:10107600280E856F9C0E866F400E876FD1C117F0C4
:10108600D2C118F0196A1A6A000E95EC16F017C04C
:1010960080F018C081F019C082F01AC083F022ECEB
:1010A60010F080C095F081C096F082C097F083C0A2
:1010B60098F04AEC1DF095C0B8F096C0B9F0F60E5F
:1010C6000001846F280E856F9C0E866F400E876F19
:1010D600CFC117F0D0C118F0196A1A6A000E95EC44
:1010E60016F017C080F018C081F019C082F01AC03F
:1010F60083F022EC10F080C095F081C096F082C09B
:1011060097F083C098F04AEC1DF095C0B6F096C0F3
:10111600B7F0B8C01DF0B9C01EF0000E206E0A0E62
:101126001F6ED6EC26F01DC0B8F01EC0B9F0B6C0D2
:101136001DF0B7C01EF0000E206E0A0E1F6ED6EC14
:1011460026F01DC0B6F01EC0B7F0B6C017F0B7C087
:1011560018F0000E1A6E640E196E11EC2BF017C003
:101166001DF018C01EF0010E206EF40E1F6ED6EC98
:1011760026F01DC0B6F01EC0B7F0DCEF08F0000E7A
:101186000001B56FCA0EB525176E186A010E182232
:10119600010E2DEC29F017C0FEF118C0FFF1000179
:1011A600B52B040EB565DAEF08F0DCEF08F0C5EFF5
:1011B60008F00101CE51D8B4E3EF08F0E5EF08F0EE
:1011C600C2EF08F0CAC1D4F0CBC1D3F0CCC1D2F083
:1011D600CDC1D1F0CEC1D0F00001D405D8A4F6EF30
:1011E60008F0F8EF08F00DEF08F0D305D8A4FEEFED
:1011F60008F000EF09F018EF09F01E0EB619B71146
:10120600D8A408EF09F00AEF09F018EF09F0010E6B
:10121600CF6FDE0E226E000E236E19EC28F022C070
:10122600FEF123C0FFF14CEF09F0020ED319D8A44A
:101236001FEF09F021EF09F02DEF09F0410EB61965
:10124600B711D8A429EF09F02BEF09F02DEF09F01B
:101256000AEF09F0030ED319D8A434EF09F036EFDC
:1012660009F042EF09F0620EB619B711D8A43EEFA5
:1012760009F040EF09F042EF09F00AEF09F0DE0E3F
:10128600226E000E236EB5EC27F022C0FEF123C0BD
:10129600FFF10001D005D8A453EF09F055EF09F08E
:1012A60063EF09F0140EB819B911D8A45DEF09F06F
:1012B6005FEF09F063EF09F0010ECE6F8DEF09F0D5
:1012C600020ED019D8A46AEF09F06CEF09F078EF96
:1012D60009F01E0EB819B911D8A474EF09F076EF0B
:1012E60009F078EF09F05FEF09F0030ED019D8A4E2
:1012F6007FEF09F081EF09F08DEF09F0280EB8199C
:10130600B911D8A489EF09F08BEF09F08DEF09F038
:101316005FEF09F0CE05D8A493EF09F095EF09F039
:101326000DEF08F0CF05D8A49BEF09F09DEF09F06B
:101336000DEF08F0D105D8A4A3EF09F0A5EF09F049
:10134600A9EF09F0030EC76FABEF09F0060EC76FE2
:10135600D205D8A4B1EF09F0B3EF09F0B7EF09F061
:10136600040EC86F1EEF0AF0020ED219D8A4BEEF03
:1013760009F0C0EF09F0C4EF09F0080EC86F1EEFC0
:101386000AF0030ED219D8A4CBEF09F0CDEF09F07D
:101396001EEF0AF00C0EC86F580E9F6F010EA06F5D
:1013A600000EA16F000EA26F480EA36F420EA46F2F
:1013B6006FEC17F09FC0FEF1A0C0FFF1580E176E3C
:1013C600010E186E9CEC26F017C0FEF118C0FFF156
:1013D60013EF0AF0E00E226E000E236EB5EC27F036
:1013E60022C0FEF123C0FFF1E40E0001B46F440EEB
:1013F600E82EFED7B42FFCD700F0E00E226E000ECA
:10140600236EE7EC27F022C0FEF123C0FFF1E40EC5
:101416000001B46F440EE82EFED7B42FFCD700F0BF
:101426000B0E0001CA651AEF0AF01CEF0AF0EDEF89
:1014360009F01EEF0AF0C851C725C96FC9C057F099
:10144600000ECB6F000ECA6F6B0E1A6E010E1B6E6E
:101456006BEC21F01AC0FEF11BC0FFF1580E000123
:101466009F6F010EA06F000EA16F000EA26F480EB7
:10147600A36F420EA46F6FEC17F09FC0FEF1A0C0E1
:10148600FFF1580E176E010E186E9CEC26F017C071
:10149600FEF118C0FFF1BEEF0AF0E30E226E000E59
:1014A600236E62EC23F022C0FEF123C0FFF1E00EB2
:1014B600226E000E236EB5EC27F022C0FEF123C08B
:1014C600FFF1E40E0001B46F440EE82EFED7B42FF0
:1014D600FCD700F0E00E226E000E236E19EC28F009
:1014E60022C0FEF123C0FFF1720E0001B46FA10EFF
:1014F600E82EFED7B42FFCD700D0E00E226E000EE9
:10150600236EE7EC27F022C0FEF123C0FFF1720E36
:101516000001B46FA10EE82EFED7B42FFCD700D081
:10152600ABEF0AF0E00E226E000E236E19EC28F0E7
:1015360022C0FEF123C0FFF1E30E206E000E216EE5
:10154600C9EC24F020C0FEF121C0FFF18AEF0AF0B9
:101556000001D6A1B1EF0AF0B3EF0AF095EF0AF059
:10156600CA51C55DD8B0BAEF0AF0BCEF0AF0BEEFBB
:101576000AF05706C52B0001C851CA5DD8A0C6EFB0
:101586000AF0C8EF0AF050EF0AF0000ECB6F000E1B
:10159600CA6F580E9F6F010EA06F000EA16F000E4E
:1015A600A26FC80EA36F420EA46F6FEC17F09FC018
:1015B600FEF1A0C0FFF1580E176E010E186E9CECDE
:1015C60026F017C0FEF118C0FFF1E40E0001AF6F60
:1015D600000EB06F5A0EB16F05EC14F03BEF0BF036
:1015E600E00E226E000E236EB5EC27F022C0FEF14F
:1015F60023C0FFF1E30E226E000E236E62EC23F091
:1016060022C0FEF123C0FFF126EF0BF0E00E226EA2
:10161600000E236E19EC28F022C0FEF123C0FFF164
:10162600E30E206E000E216EC9EC24F020C0FEF100
:1016360021C0FFF1720E0001B46FA10EE82EFED795
:10164600B42FFCD700D00001D6A12CEF0BF02EEF63
:101656000BF009EF0BF0010EC66FCA51C55DD8B08D
:1016660037EF0BF039EF0BF03BEF0BF05706C52BBE
:101676000001C751CA5DD8A043EF0BF045EF0BF050
:10168600F3EF0AF0C605D8A44BEF0BF04DEF0BF0C5
:101696000DEF08F0E00E226E000E236E19EC28F016
:1016A60022C0FEF123C0FFF1E30E226E000E236E70
:1016B600ABEC23F022C0FEF123C0FFF1000E0001C7
:1016C600CB6F93EF0BF0E20E176E000E186E010E45
:1016D600196E3BEC1AF017C0FEF118C0FFF1720E3E
:1016E6000001B46FA10EE82EFED7B42FFCD700D0B0
:1016F600E20E176E000E186E000E196E3BEC1AF015
:1017060017C0FEF118C0FFF1720E0001B46FA10EF2
:10171600E82EFED7B42FFCD700D0000E0001D46F00
:10172600070ECB6599EF0BF09BEF0BF066EF0BF016
:101736000DEF08F007EF00F04150800B4A6E415064
:1017460041244C6E40AEAAEF0BF0ACEF0BF0ADEFC0
:101756000BF04C804C50D8B4B3EF0BF0B5EF0BF058
:10176600CAEF0BF04C28D8A4BBEF0BF0BDEF0BF083
:10177600C5EF0BF0000E3E6E000E3F6E000E406E83
:10178600000E416E408E000E416ED2EF0BF0000E41
:101796003E6E000E3F6E000E406E000E416E4550CE
:1017A600800B4B6E4A504B18D8B4DCEF0BF0DEEFD3
:1017B6000BF0DFEF0BF04A8C455045244B6E44AEE0
:1017C600E7EF0BF0E9EF0BF0EAEF0BF04B804B5035
:1017D600D8B4F0EF0BF0F2EF0BF007EF0CF04B285C
:1017E600D8A4F8EF0BF0FAEF0BF002EF0CF0000EB6
:1017F600426E000E436E000E446E000E456E448E21
:10180600000E456E0FEF0CF0000E426E000E436E9A
:10181600000E446E000E456E4C504B5CD8B016EF71
:101826000CF018EF0CF03FEF0CF04AAC1DEF0CF08B
:101836001FEF0CF021EF0CF0800E4A1A4CC04DF051
:101846004BC04CF04DC04BF03EC04DF042C03EF098
:101856004DC042F03FC04DF043C03FF04DC043F095
:1018660040C04DF044C040F04DC044F041C04DF082
:1018760045C041F04DC045F0000E4D6E4C504BC07A
:1018860046F0476A465E000E475A47BE54EF0CF0D4
:10189600475009E11A0E465CD8A054EF0CF056EFFB
:1018A6000CF08DEF0CF03E503F1040104110D8A4C4
:1018B6005FEF0CF062EF0CF0010E63EF0CF0000E20
:1018C6004D6E000E3E6E000E3F6E000E406E000E18
:1018D600416E4BC04CF096EF0CF04DA075EF0CF03E
:1018E60077EF0CF07DEF0CF0D8904D3001094D6E7E
:1018F6007FEF0CF0D8904D323EA084EF0CF086EFCF
:101906000CF087EF0CF04D8E4134413240323F32BD
:101916003E324C2A4B504C5CD8A094EF0CF096EF1C
:101926000CF070EF0CF04ABC9BEF0CF09DEF0CF046
:10193600DDEF0CF04C50D8A4A3EF0CF0A5EF0CF0A3
:10194600AFEF0CF0000E3E6E000E3F6E000E406EC6
:10195600000E416EFEEF0DF042503E2643503F22F0
:10196600445040224550412241A0BCEF0CF0BEEF4E
:101976000CF06AEF0DF04DA0C3EF0CF0C5EF0CF0C4
:10198600CBEF0CF0D8904D3001094D6ECDEF0CF039
:10199600D8904D323EA0D2EF0CF0D4EF0CF0D5EF3C
:1019A6000CF04D8E4134413240323F323E324C2AA9
:1019B6006AEF0DF042503E5C43503F584450405849
:1019C6004150800A466E4550800A4658D8B0EEEF20
:1019D6000CF0F0EF0CF01BEF0DF03E50425C466E43
:1019E6003F504358476E40504458486E4150455802
:1019F600496EFF0E46243E6EFF0E47203F6EFF0ED9
:101A06004820406EFF0E4920416E800E4A1A4D6CEA
:101A16004D50D8A411EF0DF013EF0DF023EF0DF09C
:101A2600010E3E26000E3F224022412223EF0DF0FA
:101A360042503E5E43503F5A4450405A4550415AE8
:101A46003E503F1040104110D8A42CEF0DF02EEF61
:101A56000DF063EF0DF04D50D8A434EF0DF036EFD6
:101A66000DF063EF0DF0000E3E6E000E3F6E000EA1
:101A7600406E000E416EFEEF0DF0D8903E363F36BA
:101A8600403641364DAE4AEF0DF04CEF0DF04DEFBE
:101A96000DF03E804DA052EF0DF054EF0DF058EFD3
:101AA6000DF0D8804D365AEF0DF0D8904D364C508B
:101AB600D8B460EF0DF062EF0DF063EF0DF04C0659
:101AC60040AE68EF0DF06AEF0DF040EF0DF0000E3E
:101AD6004B6E4DAE71EF0DF073EF0DF08BEF0DF019
:101AE6004DC046F07F0E4616D8B47CEF0DF07EEF63
:101AF6000DF082EF0DF0010E4B6E8BEF0DF03EA058
:101B060087EF0DF089EF0DF08BEF0DF07EEF0DF006
:101B16004B50D8B491EF0DF093EF0DF0BEEF0DF0F2
:101B2600010E3E26000E3F224022412241A09EEF9A
:101B36000DF0A0EF0DF0BEEF0DF03EC046F03FC039
:101B460047F040C048F041C049F049344932483274
:101B56004732463246C03EF047C03FF048C040F0EC
:101B660049C041F04C28D8B4BBEF0DF0BDEF0DF0E5
:101B7600BEEF0DF04C2A4C28D8B4C4EF0DF0C6EFDA
:101B86000DF0CEEF0DF04C50D8A4CCEF0DF0CEEF0B
:101B96000DF0E0EF0DF0000E3E6E000E3F6E000EF3
:101BA600406E000E416E4C50D8A4DCEF0DF0DEEF17
:101BB6000DF0E0EF0DF0000E4A6E4CA0E5EF0DF0D3
:101BC600E7EF0DF0EAEF0DF0408EEBEF0DF0409EE3
:101BD600D8904C30416E4AAEF3EF0DF0F5EF0DF0B4
:101BE600F6EF0DF0418E3EC03EF03FC03FF040C0E4
:101BF60040F041C041F012000600FACF11F0FBCFD1
:101C060012F0D9CF13F0DACF14F0F3CF15F0F4CFEA
:101C160016F0F2A811EF0EF013EF0EF01CEF0EF017
:101C2600F2A218EF0EF01AEF0EF01CEF0EF0ABEC6E
:101C36002AF0F0A621EF0EF023EF0EF02CEF0EF0B7
:101C4600F0A028EF0EF02AEF0EF02CEF0EF091EC3C
:101C56002AF0F0A831EF0EF033EF0EF03CEF0EF065
:101C6600F0A238EF0EF03AEF0EF03CEF0EF077EC04
:101C76002AF0F2A641EF0EF043EF0EF05EEF0EF003
:101C8600F2A048EF0EF04AEF0EF05EEF0EF081A8DC
:101C96004FEF0EF051EF0EF05EEF0EF06204D8A497
:101CA60057EF0EF059EF0EF05EEF0EF0000E626E7B
:101CB600000E7BEC2BF0F2A663EF0EF065EF0EF054
:101CC60080EF0EF0F2A06AEF0EF06CEF0EF080EFF0
:101CD6000EF081BA71EF0EF073EF0EF080EF0EF09A
:101CE6006250D8A479EF0EF07BEF0EF080EF0EF085
:101CF600010E626E010E7BEC2BF0F2A685EF0EF064
:101D060087EF0EF0A2EF0EF0F2A08CEF0EF08EEF42
:101D16000EF0A2EF0EF081AA93EF0EF095EF0EF003
:101D2600A2EF0EF06104D8A49BEF0EF09DEF0EF02B
:101D3600A2EF0EF0000E616E000E6EEC2BF0F2A616
:101D4600A7EF0EF0A9EF0EF0C4EF0EF0F2A0AEEF83
:101D56000EF0B0EF0EF0C4EF0EF081BAB5EF0EF054
:101D6600B7EF0EF0C4EF0EF06150D8A4BDEF0EF041
:101D7600BFEF0EF0C4EF0EF0010E616E010E6EECB9
:101D86002BF0F2A6C9EF0EF0CBEF0EF0E6EF0EF059
:101D9600F2A0D0EF0EF0D2EF0EF0E6EF0EF081AC2F
:101DA600D7EF0EF0D9EF0EF0E6EF0EF06004D8A4F0
:101DB600DFEF0EF0E1EF0EF0E6EF0EF0000E606ED4
:101DC600000E61EC2BF0F2A6EBEF0EF0EDEF0EF04D
:101DD60008EF0FF0F2A0F2EF0EF0F4EF0EF008EFBE
:101DE6000FF081BCF9EF0EF0FBEF0EF008EF0FF0ED
:101DF6006050D8A401EF0FF003EF0FF008EF0FF0DB
:101E0600010E606E010E61EC2BF0F2A60DEF0FF0E5
:101E16000FEF0FF02AEF0FF0F2A014EF0FF016EF0E
:101E26000FF02AEF0FF081AE1BEF0FF01DEF0FF052
:101E36002AEF0FF05F04D8A423EF0FF025EF0FF081
:101E46002AEF0FF0000E5F6E000E54EC2BF0F2A698
:101E56002FEF0FF031EF0FF04CEF0FF0F2A036EF4F
:101E66000FF038EF0FF04CEF0FF081BE3DEF0FF0A3
:101E76003FEF0FF04CEF0FF05F50D8A445EF0FF097
:101E860047EF0FF04CEF0FF0010E5F6E010E54ECB2
:101E96002BF09DAC51EF0FF053EF0FF05CEF0FF00E
:101EA6009EAC58EF0FF05AEF0FF05CEF0FF0C5EC59
:101EB6002AF0F2AA61EF0FF063EF0FF06CEF0FF06C
:101EC600F2A468EF0FF06AEF0FF06CEF0FF023EC5F
:101ED6002AF09DA071EF0FF073EF0FF07CEF0FF07B
:101EE6009EA078EF0FF07AEF0FF07CEF0FF098ECF2
:101EF6002BF09DA281EF0FF083EF0FF08CEF0FF028
:101F06009EA288EF0FF08AEF0FF08CEF0FF0ADEC8A
:101F16002BF0A0A291EF0FF093EF0FF09CEF0FF0D4
:101F2600A1A298EF0FF09AEF0FF09CEF0FF041ECA3
:101F36002AF09DA4A1EF0FF0A3EF0FF0ACEF0FF086
:101F46009EA4A8EF0FF0AAEF0FF0ACEF0FF0AAECEB
:101F56002BF0A0A0B1EF0FF0B3EF0FF0BCEF0FF036
:101F6600A1A0B8EF0FF0BAEF0FF0BCEF0FF0A8EC9E
:101F76002BF09DA4C1EF0FF0C3EF0FF0CCEF0FF0E5
:101F86009EA4C8EF0FF0CAEF0FF0CCEF0FF0A6EC4F
:101F96002BF09DA8D1EF0FF0D3EF0FF0DCEF0FF091
:101FA6009EA8D8EF0FF0DAEF0FF0DCEF0FF0A0EC01
:101FB6002BF09DAAE1EF0FF0E3EF0FF0ECEF0FF03F
:101FC6009EAAE8EF0FF0EAEF0FF0ECEF0FF0ACECA3
:101FD6002BF09DA6F1EF0FF0F3EF0FF0F4EF0FF0FB
:101FE6009E509DA6F9EF0FF0FBEF0FF004EF10F0F7
:101FF6009EA600EF10F002EF10F004EF10F0A2EC36
:102006002BF0A0A609EF10F00BEF10F014EF10F074
:10201600A1A610EF10F012EF10F014EF10F0A4ECE0
:102026002BF016C0F4FF15C0F3FF14C0DAFF13C07F
:10203600D9FF12C0FBFF11C0FAFF6992110000011F
:102046008351800B886F835183258E6F82AF2EEF6D
:1020560010F030EF10F031EF10F08E818E51D8B4C1
:1020660037EF10F039EF10F04CEF10F08E29D8A4AE
:102076003FEF10F041EF10F049EF10F0000E806FC7
:10208600000E816F000E826F000E836F828F54EFF9
:1020960010F0000E806F000E816F000E826F000E32
:1020A600836F8751800B881B87518725896F86AF81
:1020B6005FEF10F061EF10F062EF10F08981895147
:1020C600D8B468EF10F06AEF10F07DEF10F08929B0
:1020D600D8A470EF10F072EF10F07AEF10F0000E47
:1020E600846F000E856F000E866F000E876F868FD9
:1020F60085EF10F0000E846F000E856F000E866F60
:10210600000E876F8951D8B48BEF10F08DEF10F069
:1021160095EF10F08E51D8A493EF10F095EF10F0D4
:102126009FEF10F0000E806F000E816F000E826F21
:10213600000E836F37EF12F086518003F3CF93F0D2
:10214600F4CF94F093518A6F8B6B8C6B8D6B94519B
:102156008F6F906B916B926B85518103F3CF93F0E8
:10216600F4CF94F093518A27000E8B238C238D2372
:1021760094518F27000E902391239223845182033A
:10218600F3CF93F0F4CF94F093518A27000E8B236C
:102196008C238D2394518F27000E90239123922315
:1021A6008CC08DF08BC08CF08AC08BF08A6B84510A
:1021B6008103F3CF93F0F4CF94F093518A2794518F
:1021C6008B23000E8C23000E8D2385518003F3CFC5
:1021D60093F0F4CF94F093518A2794518B23000EF9
:1021E6008C23000E8D238CC08DF08BC08CF08AC0A2
:1021F6008BF08A6B84518003F3CF93F0F4CF94F085
:1022060093518A2794518B23000E8C23000E8D2325
:1022160086518103F3CF93F0F4CF94F093518F2737
:1022260094519023000E9123000E92238551820330
:10223600F3CF93F0F4CF94F093518F2794519023DA
:10224600000E9123000E922386518203F3CF93F062
:10225600F4CF94F093514E6E94514F6E506A516A7A
:1022660050C051F04FC050F04EC04FF04E6A4E5025
:102276008F274F50902350509123515092238AC05C
:102286004EF08BC04FF08CC050F08DC051F0190E3F
:1022960052EF11F0D890513250324F324E32E82E72
:1022A6004DEF11F04E508F274F50902350509123F1
:1022B600515092238CC08DF08BC08CF08AC08BF06D
:1022C6008A6B89518EC04EF04F6A4E26000E4F2201
:1022D600820E4E24936FFF0E4F20946F88EF11F0FD
:1022E600D8908F379037913792378DAF7DEF11F0B9
:1022F6007FEF11F080EF11F08F81D8908A378B37FE
:102306008C378D379307D8A0940791AF8DEF11F0D6
:102316008FEF11F073EF11F0000E896F8DAF96EF0E
:1023260011F098EF11F0BCEF11F0FF0E8A154E6E0A
:10233600FF0E8B154F6EFF0E8C15506E7F0E8D1592
:10234600516E4E504F1050105110D8B4ADEF11F0E1
:10235600AFEF11F0B3EF11F0010E896FBCEF11F082
:102366008FA1B8EF11F0BAEF11F0BCEF11F0AFEF9B
:1023760011F08951D8B4C2EF11F0C4EF11F0E8EFB3
:1023860011F0010E8F27000E90239123922392A124
:10239600CFEF11F0D1EF11F0E8EF11F08FC04EF052
:1023A60090C04FF091C050F092C051F0513451326C
:1023B60050324F324E324EC08FF04FC090F050C068
:1023C60091F051C092F0934B942B94BFF3EF11F020
:1023D600945108E19329D8A0F3EF11F0F5EF11F02D
:1023E600FFEF11F0000E8F6F000E906F800E916F51
:1023F6007F0E926F2DEF12F094BF0CEF12F09451F6
:1024060006E19305D8B00AEF12F00CEF12F018EFC0
:1024160012F0000E8F6F000E906F000E916F000E7F
:10242600926F000E886F2DEF12F093C08EF0FF0EA4
:102436008F17FF0E90177F0E9117000E92178EA121
:1024460027EF12F029EF12F02AEF12F0918FD890B1
:102456008E31926F885192138FC080F090C081F0B8
:1024660091C082F092C083F012002850800B356E26
:10247600285028243C6E27AE43EF12F045EF12F0A9
:1024860046EF12F03C803C50D8B44CEF12F04EEFC1
:1024960012F063EF12F03C28D8A454EF12F056EF76
:1024A60012F05EEF12F0000E256E000E266E000E84
:1024B600276E000E286E278E000E286E6BEF12F028
:1024C600000E256E000E266E000E276E000E286E7C
:1024D6002C50800B351A2C502C243D6E2BAE76EFEB
:1024E60012F078EF12F079EF12F03D803D50D8B43B
:1024F6007FEF12F081EF12F096EF12F03D28D8A48C
:1025060087EF12F089EF12F091EF12F0000E296EAC
:10251600000E2A6E000E2B6E000E2C6E2B8E000EF9
:102526002C6E9EEF12F0000E296E000E2A6E000E23
:102536002B6E000E2C6E29502A102B102C10D8A4AE
:10254600A7EF12F0A9EF12F0C1EF12F0000E256E00
:10255600000E266E000E276E000E286E800E2712C5
:102566007F0E28123550281225C025F026C026F0E9
:1025760027C027F028C028F004EF14F03C50D8A458
:10258600C7EF12F0C9EF12F0D3EF12F0000E256E6E
:10259600000E266E000E276E000E286E04EF14F055
:1025A6003D503CC02DF02E6A2D5E000E2E5A7F0E39
:1025B6002D24366E000E2E20376E25C031F026C033
:1025C60032F027C033F028C034F0000E256E000E1E
:1025D600266E000E276E000E286E000E386E000E58
:1025E600396E000E3A6E000E3B6E000E3D6E34EFF5
:1025F60013F03D50D8B402EF13F004EF13F01BEFC5
:1026060013F0D8903136323633363436D8902536F4
:102616002636273628363BAE13EF13F015EF13F0A8
:1026260016EF13F02580D890383639363A363B36D1
:102636002950315C2A5032582B5033582C5034587C
:10264600D8A028EF13F02AEF13F033EF13F03B8CEA
:102656002950315E2A50325A2B50335A2C50345A54
:102666003D2A190E3D643AEF13F03CEF13F0FCEFF0
:1026760012F03150321033103410D8B445EF13F045
:1026860047EF13F05FEF13F038805FEF13F0D89049
:1026960025362636273628363BAE54EF13F056EF4E
:1026A60013F057EF13F02580D890383639363A367E
:1026B6003B363606D8A0370627AE64EF13F066EF32
:1026C60013F04AEF13F0000E3D6E3BAE6DEF13F0C4
:1026D6006FEF13F093EF13F0FF0E38142D6EFF0E0D
:1026E60039142E6EFF0E3A142F6E7F0E3B14306E89
:1026F6002D502E102F103010D8B484EF13F086EF23
:1027060013F08AEF13F0010E3D6E93EF13F025A040
:102716008FEF13F091EF13F093EF13F086EF13F0B2
:102726003D50D8B499EF13F09BEF13F0BFEF13F0C1
:10273600010E2526000E26222722282228A0A6EFF3
:1027460013F0A8EF13F0BFEF13F025C02DF026C04D
:102756002EF027C02FF028C030F0303430322F3220
:102766002E322D322DC025F02EC026F02FC027F098
:1027760030C028F0364A372A37BECAEF13F0375032
:1027860008E13628D8A0CAEF13F0CCEF13F0D7EF44
:1027960013F0000E376E3668000E256E000E266E9C
:1027A600000E276E000E286E37BEE4EF13F037508A
:1027B60006E13604D8B0E2EF13F0E4EF13F0F2EFDF
:1027C60013F0000E376E000E366E000E256E000EEC
:1027D600266E000E276E000E286E000E356E36C071
:1027E6003CF03CA0F9EF13F0FBEF13F0FEEF13F013
:1027F600278EFFEF13F0279ED8903C30286EB5EF5A
:1028060012F01200000E0101D86F000ED96F000EF3
:10281600DA6F000EDB6FB40ED76F000ED36F000EAB
:10282600D46F800ED56F3F0ED66F000EDC6F000E94
:10283600DD6F000EDE6F000EDF6F000EE06F000E24
:10284600E16F000EE26F000EE36F0001AF51B011B1
:10285600D8A430EF14F032EF14F034EF14F0A4EFF4
:1028660015F0AFC0D9FFB0C0DAFFDF50D8A43EEFF5
:1028760014F040EF14F0F3EF14F021EE0DF011EE2A
:10288600E4F00C0EDBCFE3FFE806FCE2B1C0B2F0E9
:10289600B36BB2BFB3075F0EB227000EB323B2C04D
:1028A60017F0B3C018F0000E18BEFF0E196E1A6EA0
:1028B600010E95EC16F017C025F018C026F019C0C9
:1028C60027F01AC028F0B40E176E000E186E000E10
:1028D600196E000E1A6E000E95EC16F017C029F050
:1028E60018C02AF019C02BF01AC02CF038EC12F0E0
:1028F60025C0DCF126C0DDF127C0DEF128C0DFF1FE
:10290600D3C129F0D4C12AF0D5C12BF0D6C12CF001
:10291600DCC125F0DDC126F0DEC127F0DFC128F0DD
:1029260038EC12F025C03EF026C03FF027C040F03C
:1029360028C041F0000E426E000E436E800E446EBB
:102946003F0E456E9FEC0BF03EC0E0F13FC0E1F15B
:1029560040C0E2F141C0E3F1000E296E000E2A6E7E
:10296600A00E2B6E410E2C6EE0C125F0E1C126F0C3
:10297600E2C127F0E3C128F038EC12F025C080F060
:1029860026C081F027C082F028C083F0000E000127
:10299600846F000E856FC80E866F420E876F22EC1D
:1029A60010F080C0D8F181C0D9F182C0DAF183C0BD
:1029B600DBF1E40E00019F6F010EA06FD8C1A1F0FC
:1029C600D9C1A2F0DAC1A3F0DBC1A4F06FEC17F015
:1029D600E40E176E010E186E9CEC26F0A4EF15F0AF
:1029E60021EE00F011EEF1F00C0EDBCFE3FFE8066E
:1029F600FCE2B1C0B2F0B36BB2BFB3075A0EB22756
:102A0600000EB323B2C017F0B3C018F0000E18BE04
:102A1600FF0E196E1A6E010E95EC16F017C025F012
:102A260018C026F019C027F01AC028F0B40E176E89
:102A3600000E186E000E196E000E1A6E000E95EC42
:102A460016F017C029F018C02AF019C02BF01AC0CA
:102A56002CF038EC12F025C0DCF126C0DDF127C0E1
:102A6600DEF128C0DFF1D3C129F0D4C12AF0D5C1E7
:102A76002BF0D6C12CF0DCC125F0DDC126F0DEC17D
:102A860027F0DFC128F038EC12F025C03EF026C052
:102A96003FF027C040F028C041F0000E426E000E05
:102AA600436E800E446E3F0E456E9FEC0BF03EC0AB
:102AB600E0F13FC0E1F140C0E2F141C0E3F1000EB8
:102AC600296E000E2A6EA00E2B6E410E2C6EE0C1F2
:102AD60025F0E1C126F0E2C127F0E3C128F038EC89
:102AE60012F025C080F026C081F027C082F028C0F1
:102AF60083F0000E0001846F000E856FC80E866F8E
:102B0600420E876F22EC10F080C0D8F181C0D9F157
:102B160082C0DAF183C0DBF1F10E00019F6F010E76
:102B2600A06FD8C1A1F0D9C1A2F0DAC1A3F0DBC170
:102B3600A4F06FEC17F0F10E176E010E186E9CECF8
:102B460026F012009FC0D9FFA0C0DAFFDF50D8A43C
:102B5600AFEF15F0B1EF15F0C7EF15F0000120EE5D
:102B660002F09F51D926A051DA220C0EDE18D8A405
:102B7600BFEF15F0C1EF15F0E7EF15F0BD50F00B04
:102B86000C09BD6EE7EF15F09FC0D9FFA0C0DAFFB4
:102B9600DE04D8A4D1EF15F0D3EF15F0E7EF15F06A
:102BA600000120EE02F09F51D926A051DA220C0E28
:102BB600DE18D8A4E1EF15F0E3EF15F0E7EF15F016
:102BC600BA50F00B0C09BA6E000E0001846F000EAD
:102BD600856F800E866F400E876F20EE05F09F5141
:102BE600D926A051DA22DECFA1F0DDCFA2F0A1C016
:102BF60017F0A2C018F0196A1A6A000E95EC16F0C2
:102C060017C080F018C081F019C082F01AC083F096
:102C160022EC10F080C0A3F081C0A4F082C0A5F021
:102C260083C0A6F0000120EE07F09F51D926A051DF
:102C3600DA22DF50A16FA151176E186A196A1A6A53
:102C4600000E95EC16F017C084F018C085F019C078
:102C560086F01AC087F0A3C080F0A4C081F0A5C09A
:102C660082F0A6C083F022EC10F080C0A7F081C0ED
:102C7600A8F082C0A9F083C0AAF0000E426E000E32
:102C8600436E800E446EBF0E456E000120EE08F0C6
:102C96009F51D926A051DA22DF50A16FA151176E9C
:102CA600186A196A1A6A000E95EC16F017C084F0B5
:102CB60018C085F019C086F01AC087F0A7C080F04A
:102CC600A8C081F0A9C082F0AAC083F022EC10F05F
:102CD60080C029F081C02AF082C02BF083C02CF07E
:102CE600000E256EE60E266E2A0E276E490E286EFB
:102CF60038EC12F025C03EF026C03FF027C040F069
:102D060028C041F09FEC0BF03EC095F03FC096F016
:102D160040C097F041C098F04AEC1DF00001955173
:102D2600CB6E12001F6E1F50D8B49CEF16F09EEFAC
:102D360016F0C0EF16F01ABEA5EF16F0A3EF16F0C8
:102D4600C0EF16F017C01BF018C01CF019C01DF01C
:102D56001AC01EF01B1E1C1E1D1E1E1E1B2A000E48
:102D66001C221D221E221BC021F01CC022F01DC0E9
:102D760023F01EC024F0C8EF16F017C021F018C0CB
:102D860022F019C023F01AC024F017501810191099
:102D96001A10D8A4D1EF16F0D3EF16F0DDEF16F027
:102DA600000E176E000E186E000E196E000E1A6ECB
:102DB6006EEF17F0960E206EE7EF16F0202AD890E9
:102DC6002432233222322132000E21141B6E000ED1
:102DD60022141C6E000E23141D6EFE0E24141E6E8D
:102DE6001B501C101D101E10D8A4FCEF16F0FEEF91
:102DF60016F0E1EF16F00CEF17F0202A010E21264F
:102E0600000E222223222422D89024322332223278
:102E16002132000E21141B6E000E22141C6E000EB1
:102E260023141D6EFF0E24141E6E1B501C101D1045
:102E36001E10D8A421EF17F023EF17F000EF17F0BC
:102E46002BEF17F02006D89021362236233624366B
:102E560023BE30EF17F032EF17F03AEF17F0020EFD
:102E6600206038EF17F03AEF17F025EF17F020B093
:102E76003FEF17F041EF17F042EF17F0239ED8907F
:102E8600203220C01BF01C6A1D6A1E6A1BC01EF081
:102E96001D6A1C6A1B6A1B5021121C5022121D50EF
:102EA60023121E5024121F50D8B45CEF17F05EEFA9
:102EB60017F066EF17F01ABE65EF17F063EF17F01D
:102EC60066EF17F0248E21C017F022C018F023C039
:102ED60019F024C01AF01200000E0001AC6F010EAA
:102EE600AB6F9F51A011D8A47BEF17F07DEF17F0C1
:102EF60083EF17F0000EAC6F000EAB6F31EF18F0DA
:102F0600000E846F000E856F800E866F400E876FF1
:102F1600000E426E000E436E800E446E3F0E456EEE
:102F2600CB50176E186A196A1A6A000E95EC16F0DD
:102F360017C03EF018C03FF019C040F01AC041F06B
:102F46009FEC0BF03EC080F03FC081F040C082F0A5
:102F560041C083F022EC10F080C0A7F081C0A8F039
:102F660082C0A9F083C0AAF0000E296E000E2A6E58
:102F7600C80E2B6E420E2C6EA1C025F0A2C026F004
:102F8600A3C027F0A4C028F038EC12F025C084F0C6
:102F960026C085F027C086F028C087F0A7C080F03D
:102FA600A8C081F0A9C082F0AAC083F022EC10F07C
:102FB60080C095F081C096F082C097F083C098F0EB
:102FC6004AEC1DF095C0ADF096C0AEF09FC0D9FF9B
:102FD600A0C0DAFFDF50D8A4F3EF17F0F5EF17F033
:102FE6000EEF18F0ADC0A5F0030E0001A517A53B26
:102FF600BD50A519CF0BA519BD6EADC0A5F0AEC0CD
:10300600A6F0D890A633A533D890A633A533A551FC
:10301600BE6E31EF18F09FC0D9FFA0C0DAFFDE0404
:10302600D8A418EF18F01AEF18F031EF18F0ADC069
:10303600A5F0030E0001A517A53BBA50A519CF0BA5
:10304600A519BA6EADC0A5F0AEC0A6F0D890A6334D
:10305600A533D890A633A533A551BB6EABC09FF060
:10306600ACC0A0F01200000E2C6E010E2B6E285084
:103076002910D8A441EF18F043EF18F049EF18F0E3
:10308600000E2C6E000E2B6EE0EF18F0C69A28C0CC
:10309600D9FF29C0DAFFDF502A6EC6502A18F00B76
:1030A6002A18C66E28C0D9FF29C0DAFFDF50D8B467
:1030B6005FEF18F061EF18F087EF18F028C0D9FF1E
:1030C60029C0DAFFDE04D8B46BEF18F06DEF18F004
:1030D60087EF18F028C0D9FF29C0DAFF020EDE18E4
:1030E600D8B478EF18F07AEF18F087EF18F028C008
:1030F600D9FF29C0DAFF030EDE18D8A485EF18F031
:1031060087EF18F09CEF18F0DFEC2AF020EE01F0C4
:103116002850D9262950DA22DF30E832030B2A6EEE
:103126002A322A32C7502A187F0B2A18C76EBDEFDB
:1031360018F028C0D9FF29C0DAFF040EDE18D8B46B
:10314600A7EF18F0A9EF18F0B6EF18F028C0D9FFCE
:1031560029C0DAFF050EDE18D8A4B4EF18F0B6EFD2
:1031660018F0BDEF18F028C021F029C022F07BEC42
:1031760028F0C79E20EE01F02850D9262950DA22E1
:10318600DF50030B2A6E2A3AC6502A18EF0B2A186C
:10319600C66E20EE01F02850D9262950DA22DF38F3
:1031A600030B2A6E2A3A2A462A46C7502A18BF0B0C
:1031B6002A18C76EC69EC69CC68A2BC028F02CC08D
:1031C60029F012001AC0D9FF1BC0DAFFDF50D8A4BD
:1031D600EFEF18F0F1EF18F038EF19F011EF19F0E2
:1031E600BD50F00B0809BD6E8BEF19F0BD50F00B0A
:1031F6000909BD6E8BEF19F0BD50F00B0209BD6ECB
:103206008BEF19F0BD50F00B0A09BD6E8BEF19F06C
:10321600BD50F00B0B09BD6E8BEF19F020EE02F0DE
:103226001A50D9261B50DA22DF501C6E1D6A1D501B
:10323600000AD8B421EF19F08BEF19F01C50020ADE
:10324600D8B4FFEF18F00A0AD8B4F3EF18F0010A61
:10325600D8B4F9EF18F0030AD8B405EF19F0010A4B
:10326600D8B40BEF19F08BEF19F01AC0D9FF1BC0B9
:10327600DAFFDE04D8A442EF19F044EF19F08BEF21
:1032860019F064EF19F0BA50F00B0809BA6E8BEF1B
:1032960019F0BA50F00B0909BA6E8BEF19F0BA5053
:1032A600F00B0209BA6E8BEF19F0BA50F00B0A094F
:1032B600BA6E8BEF19F0BA50F00B0B09BA6E8BEFA2
:1032C60019F020EE02F01A50D9261B50DA22DF50F0
:1032D6001C6E1D6A1D50000AD8B474EF19F08BEFEE
:1032E60019F01C50020AD8B452EF19F00A0AD8B4E1
:1032F60046EF19F0010AD8B44CEF19F0030AD8B416
:1033060058EF19F0010AD8B45EEF19F08BEF19F0F7
:103316001AC017F01BC018F010EC27F01200000EB0
:10332600206E010E1F6E17501810D8B49DEF19F0BD
:103336009FEF19F0B0EF19F017C0D9FF18C0DAFFE8
:10334600DF30E832E832070B196E070E1964AEEF6C
:1033560019F0B0EF19F015EF1AF0000E206E000EFE
:103366001F6E36EF1AF017C0D9FF18C0DAFFDF302C
:10337600E832E832070B196E010E1A6E192AC6EFEB
:1033860019F0D8901A36192EC4EF19F01A50FF0A00
:103396001B6E17C0D9FF18C0DAFFDF50070B1C6E73
:1033A6001C50020D480EF324D96E010EF420DA6E7D
:1033B600DECF1DF0DDCF1EF01DC0D9FF1EC0DAFF27
:1033C6001B50DF1636EF1AF017C0D9FF18C0DAFF08
:1033D600DF30E832E832070B196E010E1A6E192A31
:1033E600F7EF19F0D8901A36192EF5EF19F017C025
:1033F600D9FF18C0DAFFDF50070B1B6E1B50020DFA
:10340600480EF324D96E010EF420DA6EDECF1CF0DE
:10341600DDCF1DF01CC0D9FF1DC0DAFF1A50DF1228
:1034260036EF1AF017C0D9FF18C0DAFFDFBC1EEF5F
:103436001AF021EF1AF0010E22EF1AF0000E196EA3
:103446001A6A1A50000AD8B42BEF1AF0B0EF19F026
:103456001950000AD8B4B6EF19F0010AD8B4E7EF4C
:1034660019F0B0EF19F01FC017F020C018F01200C5
:10347600000E216E000E206E17501810D8B446EFBD
:103486001AF048EF1AF059EF1AF017C0D9FF18C012
:10349600DAFFDF30E832E832070B1A6E070E1A64DD
:1034A60057EF1AF059EF1AF0C4EF1AF0000E216E1A
:1034B600010E206ED9EF1AF017C0D9FF18C0DAFF37
:1034C600DF30E832E832070B1A6E010E1B6E1A2A3D
:1034D6006FEF1AF0D8901B361A2E6DEF1AF01B50AC
:1034E600FF0A1C6E17C0D9FF18C0DAFFDF50070BA2
:1034F6001D6E1D50020D3E0EF324D96E010EF420F2
:10350600DA6EDECF1EF0DDCF1FF01EC0D9FF1FC062
:10351600DAFF1C50DF16D9EF1AF017C0D9FF18C012
:10352600DAFFDF30E832E832070B1A6E010E1B6E47
:103536001A2AA0EF1AF0D8901B361A2E9EEF1AF010
:1035460017C0D9FF18C0DAFFDF50070B1C6E1C50DE
:10355600020D3E0EF324D96E010EF420DA6EDECF94
:103566001DF0DDCF1EF01DC0D9FF1EC0DAFF1B50B7
:10357600DF12D9EF1AF0000E216E000E206ED9EF81
:103586001AF019501A6E1B6A1B50000AD8B4CEEFF7
:103596001AF0BEEF1AF01A50000AD8B45FEF1AF00C
:1035A600010AD8B490EF1AF0BEEF1AF020C017F057
:1035B60021C018F01200000E0B6E000E0A6E0150AC
:1035C6000210D8B4E9EF1AF0EBEF1AF0FCEF1AF09C
:1035D60001C0D9FF02C0DAFFDF30E832E832070B5C
:1035E600046E070E0464FAEF1AF0FCEF1AF067EFA8
:1035F6001BF0000E0B6E010E0A6E7CEF1BF001C075
:10360600D9FF02C0DAFFDF30E832E832070B046E7A
:10361600010E056E042A12EF1BF0D8900536042E13
:1036260010EF1BF00550FF0A066E01C0D9FF02C05D
:10363600DAFFDF50070B076E0750020D3E0EF3242C
:10364600D96E010EF420DA6EDECF08F0DDCF09F078
:1036560008C0D9FF09C0DAFF0650DF167CEF1BF061
:1036660001C0D9FF02C0DAFFDF30E832E832070BCB
:10367600046E010E056E042A43EF1BF0D890053642
:10368600042E41EF1BF001C0D9FF02C0DAFFDF5064
:10369600070B066E0650020D3E0EF324D96E010E80
:1036A600F420DA6EDECF07F0DDCF08F007C0D9FFD1
:1036B60008C0DAFF0550DF127CEF1BF0000E0B6E20
:1036C600000E0A6E7CEF1BF00350046E056A05506F
:1036D600000AD8B471EF1BF061EF1BF00450000A2A
:1036E600D8B402EF1BF0010AD8B433EF1BF061EF38
:1036F6001BF00AC001F00BC002F01200000E1C6E97
:10370600010E1B6E17501810D8A48CEF1BF08EEF0D
:103716001BF0FCEF1BF0000E1C6E000E1B6E1BEF69
:103726001CF020EE04F01750D9261850DA22DF508C
:10373600D8A4A0EF1BF0A2EF1BF0A5EF1BF0F19CA5
:103746001BEF1CF020EE04F01750D9261850DA2291
:10375600DE04D8A4B1EF1BF0B3EF1BF0B6EF1BF0FD
:10376600F18C1BEF1CF01BEF1CF020EE04F0175041
:10377600D9261850DA22DF50D8A4C4EF1BF0C6EFC2
:103786001BF0C9EF1BF0F19C1BEF1CF020EE04F0C0
:103796001750D9261850DA22DE04D8A4D5EF1BF02C
:1037A600D7EF1BF01BEF1CF0F18C1BEF1CF020EE8B
:1037B60004F01750D9261850DA22DF50D8A4E6EFC5
:1037C6001BF0E8EF1BF0EBEF1BF0F19C1BEF1CF07E
:1037D60020EE04F01750D9261850DA22DE04D8A4B9
:1037E600F7EF1BF0F9EF1BF01BEF1CF0F18C1BEF52
:1037F6001CF020EE03F01750D9261850DA22DF50BD
:10380600196E1A6A1A50000AD8B40CEF1CF08EEF23
:103816001BF01950000AD8B494EF1BF0010AD8B473
:10382600B8EF1BF0030AD8B4DAEF1BF08EEF1BF0EB
:103836001BC017F01CC018F012001AC0D9FF1BC01D
:10384600DAFFDF50D8A42AEF1CF02CEF1CF069EF4A
:103856001CF046EF1CF0BD50F00B0409BD6EB2EF34
:103866001CF0BD50F00B0509BD6EB2EF1CF0BD504B
:10387600F00B0609BD6EB2EF1CF0BD50F00B070948
:10388600BD6EB2EF1CF020EE02F01A50D9261B5086
:10389600DA22DF501C6E1D6A1D50000AD8B456EF9E
:1038A6001CF0B2EF1CF01C50040AD8B42EEF1CF02A
:1038B600010AD8B434EF1CF0030AD8B43AEF1CF06E
:1038C600010AD8B440EF1CF0B2EF1CF01AC0D9FFC1
:1038D6001BC0DAFFDE04D8A473EF1CF075EF1CF0F2
:1038E600B2EF1CF08FEF1CF0BA50F00B0409BA6E61
:1038F600B2EF1CF0BA50F00B0509BA6EB2EF1CF02D
:10390600BA50F00B0609BA6EB2EF1CF0BA50F00BC3
:103916000709BA6EB2EF1CF020EE02F01A50D92653
:103926001B50DA22DF501C6E1D6A1D50000AD8B4E7
:103936009FEF1CF0B2EF1CF01C50040AD8B477EFCE
:103946001CF0010AD8B47DEF1CF0030AD8B483EF4B
:103956001CF0010AD8B489EF1CF0B2EF1CF01AC0B3
:1039660017F01BC018F010EC27F0120019EC23F02A
:10397600870E286E010E296E36EC18F028C0FEF16F
:1039860029C0FFF1770E1A6E010E1B6E2BEC1FF08D
:103996001AC0FEF11BC0FFF1650E256E010E266EE4
:1039A600C9EC22F025C0FEF126C0FFF1710E196E9A
:1039B600010E1A6E59EC20F019C0FEF11AC0FFF183
:1039C600E40E0001AF6F000EB06FC4EC21F0AFC083
:1039D600FEF1B0C0FFF1E00E266E000E276EA9ECD8
:1039E60028F026C0FEF127C0FFF1DE0E266E000E7F
:1039F600276EA9EC28F026C0FEF127C0FFF1580E6D
:103A06000001AB6F010EAC6FCEEC1DF0ABC0FEF14A
:103A1600ACC0FFF1640E226E000E236E4BEC28F054
:103A260022C0FEF123C0FFF1630E226E000E236E4C
:103A36004BEC28F022C0FEF123C0FFF1E20E226E0D
:103A4600000E236E4BEC28F022C0FEF123C0FFF1DE
:103A5600820E266E010E276E9BEC25F026C0FEF127
:103A660027C0FFF17D0E266E010E276E9BEC25F01A
:103A760026C0FEF127C0FFF1E30E266E000E276E6C
:103A860082EC24F026C0FEF127C0FFF112000001EF
:103A9600973598359E6F9E51D8A454EF1DF056EF7A
:103AA6001DF060EF1DF0000E956F000E966F000E74
:103AB600976F000E986FCDEF1DF095C099F096C0E8
:103AC6009AF097C09BF098C09CF0200E70EF1DF006
:103AD600D8909C339B339A339933E82E6BEF1DF0C5
:103AE60099519D6F978FFF0E9517FF0E9617FF0E34
:103AF6009717000E9817960E9E5F9EBF87EF1DF0D4
:103B060085EF1DF09DEF1DF09E51800A970FD8B0EE
:103B16008FEF1DF091EF1DF093EF1DF056EF1DF0A6
:103B2600D89098339733963395339E3F93EF1DF095
:103B3600B5EF1DF01F0E9E65A3EF1DF0A5EF1DF05E
:103B4600ADEF1DF056EF1DF0D890953796379737A5
:103B560098379E079E51D8A4B3EF1DF0B5EF1DF020
:103B6600A7EF1DF09D51D8B4BBEF1DF0BDEF1DF0C2
:103B7600C5EF1DF0981F971F961F956D000E962393
:103B86009723982395C095F096C096F097C097F026
:103B960098C098F012000001AB51AC11D8A4D6EF32
:103BA6001DF0D8EF1DF0DEEF1DF0000EAE6F000E1B
:103BB600AD6F46EF1EF0ABC0D9FFACC0DAFFDF50E9
:103BC600D8A4E8EF1DF0EAEF1DF0EEEF1DF0F00EC1
:103BD600BD16F0EF1DF0F00EBA1620EE01F0AB5157
:103BE600D926AC51DA22DF50D8A4FCEF1DF0FEEF47
:103BF6001DF006EF1EF0ABC01AF0ACC01BF020ECB7
:103C06001CF033EF1EF020EE01F0AB51D926AC517B
:103C1600DA22DE04D8A412EF1EF014EF1EF01CEF19
:103C26001EF0ABC01AF0ACC01BF0E5EC18F033EF99
:103C36001EF020EE01F0AB51D926AC51DA22020E6D
:103C4600DE18D8A429EF1EF02BEF1EF033EF1EF07E
:103C5600ABC09FF0ACC0A0F0A5EC15F033EF1EF0A2
:103C6600030E0001AB25226E000EAC21236E4BEC39
:103C760028F022C0ADF023C0AEF0ABC017F0ACC048
:103C860018F048EC27F0ADC0ABF0AEC0ACF01200B7
:103C9600000E096E010E086E01500210D8B456EFE0
:103CA6001EF058EF1EF061EF1EF003500410D8A46A
:103CB6005FEF1EF061EF1EF067EF1EF0000E096E5B
:103CC600000E086EBDEF1EF020EE05F00150D9265D
:103CD6000250DA22DFA272EF1EF074EF1EF088EFB8
:103CE6001EF0C350C4CF05F0066A05C006F0056A8B
:103CF6000526000E062203C0D9FF04C0DAFF05C060
:103D0600DEFF06C0DDFFBDEF1EF020EE05F0015020
:103D1600D9260250DA22DFB293EF1EF095EF1EF09D
:103D2600B1EF1EF0C350C4CF05F0066A05C006F019
:103D3600056A0526000E0622060E076E06340632B2
:103D46000532072EA1EF1EF003C0D9FF04C0DAFF2B
:103D560005C0DEFF06C0DDFFBDEF1EF0C450C35038
:103D6600056E066A03C0D9FF04C0DAFF05C0DEFF90
:103D760006C0DDFF08C001F009C002F01200196E8E
:103D8600E9EF1EF092822AEF1FF092842AEF1FF0CD
:103D960092862AEF1FF0928A2AEF1FF096802AEF6A
:103DA6001FF096822AEF1FF096842AEF1FF0938465
:103DB6002AEF1FF093862AEF1FF093822AEF1FF057
:103DC60093882AEF1FF093802AEF1FF01950176E81
:103DD600186A1850000AD8B4F3EF1EF02AEF1FF045
:103DE6001750000AD8B4C5EF1EF0010AD8B4C5EFC3
:103DF6001EF0030AD8B4C8EF1EF0010AD8B4CBEF00
:103E06001EF0070AD8B4CEEF1EF0010AD8B4D1EFDF
:103E16001EF0030AD8B4D4EF1EF0010AD8B4D7EFC7
:103E26001EF00F0AD8B4DAEF1EF0010AD8B4DDEF9F
:103E36001EF0030AD8B4E0EF1EF0010AD8B4E3EF8F
:103E46001EF0070AD8B4E6EF1EF02AEF1FF01200A4
:103E5600000E1E6E010E1D6E1A501B10D8A436EFF2
:103E66001FF038EF1FF03EEF1FF0000E1E6E000E23
:103E76001D6E8DEF1FF0C29020EE04F01A50D92669
:103E86001B50DA22DF501C6E1C461C461C46C050D6
:103E96001C18C70B1C18C06E20EE03F01A50D9264A
:103EA6001B50DA22DF501C6EC0501C18F80B1C1871
:103EB600C06E20EE02F01A50D9261B50DA22DF50CF
:103EC6001C6E1C461C46C2501C18C30B1C18C26E26
:103ED60020EE02F01A50D9261B50DA22DF50C2EC2F
:103EE6001EF09D8C9E9CF28EF28C1AC0D9FF1BC0D0
:103EF600DAFFDECFC2F0DDCFC3F01AC017F01BC069
:103F060018F0C2EC29F01AC017F01BC018F07AECB2
:103F160029F0C2801DC01AF01EC01BF01200090E47
:103F2600576498EF1FF09AEF1FF0DEEF1FF0640E54
:103F3600016E000E026E010E036EDEEC1AF001C079
:103F4600FEF102C0FFF1820E0C6E010E0D6E57C01F
:103F560001F0026A000E046E0A0E036EF7EC1FF003
:103F660001500E6E10EC21F00CC0FEF10DC0FFF1F9
:103F7600630E016E000E026E010E036EDEEC1AF089
:103F860001C0FEF102C0FFF17D0E0C6E010E0D6E3A
:103F960057C001F0026A000E046E0A0E036E1CEC96
:103FA60022F001500E6E10EC21F00CC0FEF10DC097
:103FB600FFF1F6EF1FF0640E016E000E026E010EA9
:103FC600036EDEEC1AF001C0FEF102C0FFF1820EB4
:103FD6000C6E010E0D6E57C00EF010EC21F00CC0E9
:103FE600FEF10DC0FFF11200000E066E04BE00EFDA
:103FF60020F0FEEF1FF006EF20F0036C041ED8B091
:10400600042A010E066E02BE0DEF20F00BEF20F023
:1040160013EF20F0016C021ED8B0022A010E061A18
:10402600000E086E000E076E03500410D8B41EEF83
:1040360020F020EF20F048EF20F0010E056E28EF6B
:1040460020F0D89003360436052A04AE2DEF20F072
:104056002FEF20F024EF20F0D890073608360350D3
:10406600015C04500258D8A03BEF20F03DEF20F051
:1040760042EF20F00350015E0450025A0780D890A8
:1040860004320332052E2FEF20F00650D8B44EEF3F
:1040960020F050EF20F054EF20F0076C081ED8B047
:1040A600082A07C001F008C002F01200000E1E6EBA
:1040B600010E1D6E19501A10D8A464EF20F066EF99
:1040C60020F06CEF20F0000E1E6E000E1D6EB0EF9D
:1040D60020F0B19020EE05F01950D9261A50DA22B8
:1040E600DF50030B1B6E1B3AB1501B18CF0B1B186E
:1040F600B16E19C017F01AC018F09FEC29F020EE27
:1041060003F01950D9261A50DA22DECF1BF0DDCF84
:104116001CF01CC01BF01C6A1B50B36E20EE03F093
:104126001950D9261A50DA22DF50B26E20EE03F06B
:104136001950D9261A50DA22DECFA6F1DDCFA7F123
:10414600A082A19219C0D9FF1AC0DAFFDECFA8F16A
:10415600DDCFA9F1F28EF28CB1801DC019F01EC020
:104166001AF01200000E1E6E010E1D6E19501A1066
:10417600D8A4C0EF20F0C2EF20F0ECEF20F0000E44
:104186001E6E000E1D6E0BEF21F019C0D9FF1AC06E
:10419600DAFFDECF17F0DDCF18F044EC2BF00BEF93
:1041A60021F019C0D9FF1AC0DAFFDECF17F0DDCF34
:1041B60018F034EC2BF00BEF21F019C0D9FF1AC020
:1041C600DAFFDECF17F0DDCF18F024EC2BF00BEF83
:1041D60021F020EE03F01950D9261A50DA22DF50CA
:1041E6001B6E1C6A1C50000AD8B4FCEF20F0C2EF0C
:1041F60020F01B50000AD8B4C8EF20F0010AD8B44A
:10420600D4EF20F0030AD8B4E0EF20F0C2EF20F09C
:104216001DC019F01EC01AF012000C500D10D8B4B3
:1042260017EF21F019EF21F021EF21F0090E0E64AE
:104236001FEF21F021EF21F027EF21F0000E106E85
:10424600000E0F6E66EF21F00CC001F00DC002F0FB
:104256000E50010B036EDEEC1AF001C00FF002C027
:1042660010F0010E0C24016E000E0D20026ED89087
:104276000E30010B036EDEEC1AF001C00FF002C027
:1042860010F0020E0C24016E000E0D20026E0E4080
:10429600E8423F0B010B036EDEEC1AF001C00FF093
:1042A60002C010F0030E0C24016E000E0D20026EEB
:1042B6000E38E8461F0B010B036EDEEC1AF001C048
:1042C6000FF002C010F00FC00CF010C00DF012007D
:1042D600000E1F6E010E1E6E1A501B10D8A476EF2C
:1042E60021F078EF21F07EEF21F0000E1F6E000E18
:1042F6001E6EBFEF21F0D59E1AC017F01BC018F036
:10430600D7EC28F01AC017F01BC018F05DEC26F0A9
:104316001AC017F01BC018F004EC2AF020EE03F0C8
:104326001A50D9261B50DA22DECF1CF0DDCF1DF045
:104336001DC01CF01D6A1C50D76E20EE03F01A50EB
:10434600D9261B50DA22DF50D66E20EE03F01A5023
:10435600D9261B50DA22DECF55F0DDCF56F0F28A91
:10436600F2941AC0D9FF1BC0DAFFDECFBAF0DDCF58
:10437600BBF0F28EF28CD58E1EC01AF01FC01BF059
:1043860012000001AF51B011D8A4CCEF21F0CEEF4E
:1043960021F0D5EF21F0000E0101D76F000ED66F88
:1043A60017EF22F055C1D3F156C1D4F157C1D5F15B
:1043B600D30E176E010E186E3BEC24F0AFC0D9FF7A
:1043C600B0C0DAFFDF50D8A4EBEF21F0EDEF21F01B
:1043D60003EF22F021EE27F011EED8F00C0EDBCF22
:1043E600E3FFE806FCE2D80E0001AB6F010EAC6FEE
:1043F600CEEC1DF0ABC0D6F1ACC0D7F117EF22F072
:1044060021EE1AF011EEE5F00C0EDBCFE3FFE80625
:10441600FCE2E50E0001AB6F010EAC6FCEEC1DF0B9
:10442600ABC0D6F1ACC0D7F1D6C1AFF0D7C1B0F0B2
:104436001200000E066E02BE25EF22F023EF22F0D8
:104446002BEF22F0016C021ED8B0022A010E066E76
:1044560004BE32EF22F030EF22F036EF22F0036C8A
:10446600041ED8B0042A03500410D8B43DEF22F03D
:104476003FEF22F063EF22F0010E056E47EF22F0C8
:10448600D89003360436052A04AE4CEF22F04EEFE0
:1044960022F043EF22F00350015C04500258D8A0EA
:1044A60057EF22F059EF22F05DEF22F00350015E44
:1044B6000450025AD89004320332052E4EEF22F0F1
:1044C6000650D8B469EF22F06BEF22F06FEF22F0BE
:1044D600016C021ED8B0022A01C001F002C002F02F
:1044E6001200000E1F6E010E1E6E17501810D8B463
:1044F6007FEF22F081EF22F092EF22F017C0D9FF72
:1045060018C0DAFFDF30E832E832070B196E070E03
:10451600196490EF22F092EF22F098EF22F0000E4D
:104526001F6E000E1E6EC4EF22F017C0D9FF18C012
:10453600DAFFDF30E832E832070B196E010E1A6E29
:10454600192AA8EF22F0D8901A36192EA6EF22F0D3
:1045560017C0D9FF18C0DAFFDF50070B1B6E1B50C0
:10456600020D3E0EF324D96E010EF420DA6EDECF74
:104576001CF0DDCF1DF01CC0D9FF1DC0DAFF1A509C
:10458600DF1A1EC017F01FC018F0120025502610A3
:10459600D8A4D0EF22F0D2EF22F0D8EF22F0000E0E
:1045A600286E000E276E14EF23F025C017F026C0E4
:1045B60018F0DDEC25F017C027F018C028F025C04C
:1045C60017F026C018F01DEC26F0175027121850C9
:1045D600281225C017F026C018F081EC1BF01750E2
:1045E60027121850281225C021F026C022F0E4EC2C
:1045F60029F0215027122250281225C019F026C072
:104606001AF0B5EC20F0195027121A50281225C0BE
:1046160017F026C018F010EC25F017502712185086
:10462600281227C025F028C026F01200680E266E34
:10463600000E276E82EC24F0670E266E000E276EA3
:1046460082EC24F0660E266E000E276E82EC24F0B5
:10465600650E266E000E276E82EC24F0D50E266EB1
:10466600000E276E82EC24F0EB0E266E000E276EEF
:1046760082EC24F0EA0E266E000E276E82EC24F001
:10468600E90E266E000E276E82EC24F0E80E266EEA
:10469600000E276E82EC24F0E70E266E000E276EC3
:1046A60082EC24F0E60E266E000E276E82EC24F0D5
:1046B600E50E266E000E276E82EC24F012002250C4
:1046C6002310D8A469EF23F06BEF23F071EF23F0EA
:1046D600000E266E000E256EA6EF23F05DC027F0B5
:1046E60022C0D9FF23C0DAFFDF50070B246E275004
:1046F6002418F80B2418276E22C0D9FF23C0DAFF2E
:10470600DF30E832E832070B246E2446244624467E
:1047160027502418C70B2418276E279C22C0D9FFC0
:1047260023C0DAFFDFAC02D0278E01D0279E270EEA
:10473600176E000E186E010E196E3BEC1AF017C0BC
:1047460025F018C026F025C022F026C023F012005E
:1047560022502310D8A4B2EF23F0B4EF23F0BAEF1F
:1047660023F0000E266E000E256EEFEF23F05CC0E0
:1047760027F022C0D9FF23C0DAFFDF50070B246ED3
:1047860027502418F80B2418276E22C0D9FF23C0FF
:10479600DAFFDF30E832E832070B246E244624467F
:1047A600244627502418C70B2418276E279C22C09E
:1047B600D9FF23C0DAFFDFAC02D0278E01D0279EB7
:1047C600270E176E000E186E000E196E3BEC1AF0CF
:1047D60017C025F018C026F025C022F026C023F009
:1047E6001200AC0EF66E4A0EF76E000EF86E01EE73
:1047F60000F010EE89F00900F5CFEEFFE550E1502C
:10480600FAE1100EF66E570EF76E000EF86E00EE19
:10481600D6F010EE16F00900F5CFEEFFE550E150A8
:10482600FAE1260EF66E570EF76E000EF86E00EEE3
:104836005FF010EE0AF00900F5CFEEFFE550E1500B
:10484600FAE101EE89F04A0EEE6AE806FDE100EEB5
:10485600B6F0200EEE6AE806FDE100EE53F00C0E0F
:10486600EE6AE806FDE16990699200010BEF08F037
:10487600000E1B6E010E1A6E17501810D8A446EFC4
:1048860024F048EF24F04EEF24F0000E1B6E000ECD
:104896001A6E7DEF24F0CA9420EE02F01750D92646
:1048A6001850DA22DF50196ECA501918FC0B191865
:1048B600CA6E20EE01F01750D9261850DA22DF50C2
:1048C600196E194619461946CA501918870B191830
:1048D600CA6E17C0D9FF18C0DAFFDF50CC6E17C0FA
:1048E600D9FF18C0DAFFDF50196E19500101AA6FFF
:1048F600AB6BCA841AC017F01BC018F01200265002
:104906002710D8A489EF24F08BEF24F091EF24F040
:10491600000E2A6E000E296EC4EF24F05EC02BF046
:1049260026C0D9FF27C0DAFFDF50070B286E2B50B1
:104936002818F80B28182B6E26C0D9FF27C0DAFFD7
:10494600DF30E832E832070B286E2846284628462C
:104956002B502818C70B28182B6E2B9C26C0D9FF66
:1049660027C0DAFFDFAC02D02B8E01D02B9E2B0E98
:10497600226E000E236E4BEC28F022C029F023C0D5
:104986002AF029C026F02AC027F012002050211054
:10499600D8A4D0EF24F0D2EF24F0D8EF24F0000E04
:1049A600246E000E236E0BEF25F05BC025F020C0B1
:1049B600D9FF21C0DAFFDF50070B226E25502218DF
:1049C600F80B2218256E20C0D9FF21C0DAFFDF3090
:1049D600E832E832070B226E22462246224625504E
:1049E6002218C70B2218256E259C20C0D9FF21C08E
:1049F600DAFFDFAC02D0258E01D0259E250E176E7C
:104A0600000E186E74EC22F017C023F018C024F0C4
:104A160023C020F024C021F01200000E1C6E010EEF
:104A26001B6E17501810D8A41BEF25F01DEF25F0AC
:104A360032EF25F0000E1C6E000E1B6E51EF25F0B6
:104A4600F28EF28CF28851EF25F0F28EF28CF0861F
:104A560051EF25F0F28EF28CF08851EF25F020EE22
:104A660003F01750D9261850DA22DF50196E1A6A49
:104A76001A50000AD8B442EF25F01DEF25F0195060
:104A8600000AD8B423EF25F0010AD8B428EF25F0A0
:104A9600030AD8B42DEF25F01DEF25F01BC017F043
:104AA6001CC018F0120001020C0A003200011000AE
:104AB60000000000020C120032000110000000008D
:104AC60001020C0A00320001100000000000020C76
:104AD60012003200011000000000800F810F820FCB
:104AE600830F840F890F8A0F8B0F8C0F8D0F920FF8
:104AF600930F940F950F960F00000100000200021D
:104B06000C1200C8000401000000003A57490101D8
:104B160000243F00A4BB00BA54001A5502FE4E0101
:0F4B260000050210182003002129313900041165
:104B360026502710D8A4A2EF25F0A4EF25F0AAEF5F
:104B460025F0000E296E000E286ED8EF25F026C03F
:104B560022F027C023F04BEC28F022C028F023C017
:104B660029F0010E2624226E000E2720236E4BEC20
:104B760028F022C028F023C029F0020E2624226E37
:104B8600000E2720236E4BEC28F022C028F023C00D
:104B960029F0030E2624226E000E2720236E4BECEE
:104BA60028F022C028F023C029F028C026F029C00A
:104BB60027F01200000E1C6E010E1B6E1750181007
:104BC600D8A4E8EF25F0EAEF25F0F9EF25F0000E7E
:104BD6001C6E000E1B6E18EF26F0F29818EF26F0EA
:104BE600F09618EF26F0F09818EF26F020EE03F076
:104BF6001750D9261850DA22DF50196E1A6A1A5041
:104C0600000AD8B409EF26F0EAEF25F01950000A99
:104C1600D8B4F0EF25F0010AD8B4F3EF25F0030A73
:104C2600D8B4F6EF25F0EAEF25F01BC017F01CC04C
:104C360018F01200000E1C6E010E1B6E1750181095
:104C4600D8A428EF26F02AEF26F039EF26F0000E3A
:104C56001C6E000E1B6E58EF26F0F29258EF26F0EF
:104C6600F09058EF26F0F09258EF26F020EE03F081
:104C76001750D9261850DA22DF50196E1A6A1A50C0
:104C8600000AD8B449EF26F02AEF26F01950000A98
:104C9600D8B430EF26F0010AD8B433EF26F0030A71
:104CA600D8B436EF26F02AEF26F01BC017F01CC04A
:104CB60018F0120020EE05F01750D9261850DA2207
:104CC600DFB468EF26F06AEF26F06DEF26F0D59A8E
:104CD6009BEF26F020EE05F01750D9261850DA2261
:104CE600DFA478EF26F07AEF26F09BEF26F0D58A40
:104CF60020EE05F01750D9261850DA22DFA286EFEB
:104D060026F088EF26F08BEF26F0D5889BEF26F06D
:104D160020EE05F01750D9261850DA22DFB296EFAA
:104D260026F098EF26F09BEF26F0D5989BEF26F01D
:104D36001200000E1B6E010E1A6E17501810D8A422
:104D4600A7EF26F0A9EF26F0AFEF26F0000E1B6EB8
:104D5600000E1A6ED1EF26F017C0D9FF18C0DAFF81
:104D6600DF50D8A4B9EF26F0BBEF26F0C1EF26F04E
:104D7600BD50F00B0C09BD6ED1EF26F017C0D9FF60
:104D860018C0DAFFDE04D8A4CBEF26F0CDEF26F06C
:104D9600D1EF26F0BA50F00B0C09BA6E1AC017F014
:104DA6001BC018F01200000E226E000E216E1F505E
:104DB6002010D8B4E1EF26F0E3EF26F00BEF27F052
:104DC600010E236EEBEF26F0D8901F362036232AED
:104DD60020AEF0EF26F0F2EF26F0E7EF26F0D890BF
:104DE600213622361F501D5C20501E58D8A0FEEFDB
:104DF60026F000EF27F005EF27F01F501D5E20502C
:104E06001E5A2180D89020321F32232EF2EF26F030
:104E160021C01DF022C01EF0120020EE04F0175033
:104E2600D9261850DA22DF50D8A41CEF27F01EEF3F
:104E360027F022EF27F0B196B18C47EF27F020EE4E
:104E460004F01750D9261850DA22DE04D8A42EEF23
:104E560027F030EF27F034EF27F0B186B19C47EF0B
:104E660027F020EE04F01750D9261850DA22020E49
:104E7600DE18D8A441EF27F043EF27F047EF27F0DD
:104E8600B196B19C47EF27F0120017C0D9FF18C0A2
:104E9600DAFFDF50D8A452EF27F054EF27F064EF83
:104EA60027F09D849E9420EE09F01750D9261850BD
:104EB600DA22DECFC8F1DDCFC9F1F28EF28C7EEFB9
:104EC60027F017C0D9FF18C0DAFFDE04D8A46EEFAA
:104ED60027F070EF27F07EEF27F0A0809E9420EE5B
:104EE6000BF01750D9261850DA22DECFC6F1DDCFE7
:104EF600C7F1F28EF28C12000001CC51D8A486EFD5
:104F060027F088EF27F09BEF27F0770E016E010E52
:104F1600026ED10E036E010E046E4BEC1EF001C044
:104F2600FEF102C0FFF1010E0001CC6FB4EF27F0D5
:104F3600CC05D8A4A1EF27F0A3EF27F0B4EF27F014
:104F4600770E016E010E026ECF0E036E010E046E19
:104F56004BEC1EF001C0FEF102C0FFF1000E000195
:104F6600CC6F120022502310D8A4BCEF27F0BEEF5E
:104F760027F0C4EF27F0000E256E000E246EE2EF38
:104F860027F022C017F023C018F0010E196E3BEC73
:104F96001AF017C024F018C025F0010E2224176E4F
:104FA600000E2320186E000E196E3BEC1AF017C087
:104FB60024F018C025F0000E256E010E246E24C0C4
:104FC60022F025C023F0120022502310D8A4EEEFC1
:104FD60027F0F0EF27F0F6EF27F0000E256E000E13
:104FE600246E14EF28F022C017F023C018F0000E2C
:104FF600196E3BEC1AF017C024F018C025F0010E0C
:105006002224176E000E2320186E010E196E3BEC3B
:105016001AF017C024F018C025F0000E256E010EF8
:10502600246E24C022F025C023F012002250231043
:10503600D8A420EF28F022EF28F028EF28F0000E61
:10504600256E000E246E46EF28F022C017F023C00E
:1050560018F0000E196E3BEC1AF017C024F018C0B9
:1050660025F0010E2224176E000E2320186E000E66
:10507600196E3BEC1AF017C024F018C025F0000E8C
:10508600256E010E246E24C022F025C023F01200E6
:1050960022502310D8A452EF28F054EF28F05AEFEC
:1050A60028F0000E256E000E246E76EF28F022C042
:1050B60017F023C018F092EC19F017C024F018C0AE
:1050C60025F022C017F023C018F022C0D9FF23C054
:1050D600DAFF000EDFBE010E196E3BEC1AF017C0A8
:1050E60024F018C025F024C022F025C023F01200B9
:1050F600DAC024F0D9C025F0D8C026F0D7C027F0F2
:10510600240E176E000E186E92EC19F0250E176E0F
:10511600000E186E92EC19F0260E176E000E186E21
:1051260092EC19F021C0D9FF22C0DAFF040EDE1876
:10513600D8A4A0EF28F0A2EF28F0A8EF28F0270EB9
:10514600176E000E186E92EC19F0120026502710FA
:10515600D8A4B0EF28F0B2EF28F0B8EF28F0000E90
:10516600296E000E286ED2EF28F026C022F027C046
:1051760023F04BEC28F022C028F023C029F0010EC2
:105186002624226E000E2720236E4BEC28F022C028
:1051960028F023C029F0000E296E010E286E28C0C3
:1051A60026F029C027F0120020EE05F01750D92668
:1051B6001850DA22DFB0E2EF28F0E4EF28F0F4EF3F
:1051C60028F0D59620EE02F01750D9261850DA228C
:1051D600DF50196ED5501918F80B1918D56E02EF55
:1051E60029F020EE05F01750D9261850DA22DFA054
:1051F600FFEF28F001EF29F002EF29F0D586120023
:10520600000E1F6E010E1E6E1A501B10D8A40EEF54
:1052160029F010EF29F016EF29F0000E1F6E000E90
:105226001E6E28EF29F01CC01DF01D461D46C250FB
:105236001D18C30B1D18C26E20EE02F01A50D92697
:105246001B50DA22DF50C2EC1EF01EC01AF01FC03F
:105256001BF01200196E000E1B6E000E1A6E175010
:105266001810D8B439EF29F03BEF29F04FEF29F0A9
:10527600000E1B6E010E1A6E19C0C9FF9EA646EFE0
:1052860029F048EF29F041EF29F09E9617C0D9FF83
:1052960018C0DAFFC9CFDFFF1AC017F01BC018F01D
:1052A600120020502110D8A45BEF29F05DEF29F001
:1052B60063EF29F0000E246E000E236E75EF29F0C1
:1052C60020C01AF021C01BF022C01CF003EC29F00C
:1052D60020C017F021C018F0F8EC2AF017C023F010
:1052E60018C024F023C020F024C021F0120020EEC4
:1052F60005F01750D9261850DA22DFA085EF29F0DD
:1053060087EF29F08BEF29F0C188C18A9EEF29F03B
:1053160020EE05F01750D9261850DA22DFB096EFA6
:1053260029F098EF29F09CEF29F0C198C19A9EEFD9
:1053360029F0C188C18A120020EE05F01750D9263F
:105346001850DA22DFB4AAEF29F0ACEF29F0AFEF5C
:1053560029F0B192C1EF29F0B18220EE05F0175085
:10536600D9261850DA22DFB6BBEF29F0BDEF29F0B7
:10537600C0EF29F0B194C1EF29F0B184120020EEFC
:1053860005F01750D9261850DA22DFA2CDEF29F002
:10539600CFEF29F0D2EF29F0C08EE3EF29F020EE0F
:1053A60005F01750D9261850DA22DFB2DDEF29F0C2
:1053B600DFEF29F0E2EF29F0C09EE3EF29F0C08E7F
:1053C600120021502210D8A4EBEF29F0EDEF29F0BE
:1053D600F3EF29F0000E246E000E236EFFEF29F086
:1053E600020E2124176E000E2220186E92EC19F080
:1053F60017C023F018C024F023C021F024C022F0E7
:10540600120020EE05F01750D9261850DA22DFA632
:105416000FEF2AF011EF2AF014EF2AF0D58C22EFC5
:105426002AF020EE05F01750D9261850DA22DFB6FA
:105436001FEF2AF021EF2AF022EF2AF0D59C120066
:10544600F2945650D76E55C0D6FF0001BA51BB1123
:10545600D8A430EF2AF032EF2AF034EF2AF040EFEA
:105466002AF002D840EF2AF00500FA6EBA51FD6E16
:10547600BB51FE6EFF6AFA5012001200A1920101A2
:10548600A751B36EA6C1B2FFA851A911D8B44EEF69
:105496002AF050EF2AF05CEF2AF002D85CEF2AF0EF
:1054A6000500FA6EA851FD6EA951FE6EFF6AFA500C
:1054B600120012000001CB2B3C0ECB19D8A466EFCC
:1054C6002AF068EF2AF06BEF2AF0000ECB6FCA2B9A
:1054D6003C0ECA19D8A472EF2AF074EF2AF076EFC0
:1054E6002AF0000ECA6F1200F0920001BC51BD11E5
:1054F600D8A480EF2AF082EF2AF084EF2AF090EF0A
:105506002AF002D890EF2AF00500FA6EBC51FD6E23
:10551600BD51FE6EFF6AFA5012001200F0900001B3
:10552600BE51BF11D8A49AEF2AF09CEF2AF09EEF45
:105536002AF0AAEF2AF002D8AAEF2AF00500FA6E9E
:10554600BE51FD6EBF51FE6EFF6AFA501200120088
:10555600F2920001C051C111D8A4B4EF2AF0B6EFFF
:105566002AF0B8EF2AF0C4EF2AF002D8C4EF2AF0E6
:105576000500FA6EC051FD6EC151FE6EFF6AFA500B
:10558600120012009E9C0001C251C311D8A4CEEF96
:105596002AF0D0EF2AF0D2EF2AF0DEEF2AF002D876
:1055A600DEEF2AF00500FA6EC251FD6EC351FE6EA3
:1055B600FF6AFA5012001200DDC021F0DCC022F0B2
:1055C600DBC023F0210E176E000E186E92EC19F058
:1055D600220E176E000E186E92EC19F0230E176E3F
:1055E600000E186E92EC19F01200000E1A6E010EE3
:1055F600196E17501810D8A403EF2BF005EF2BF0F7
:105606000BEF2BF0000E1A6E000E196E0CEF2BF03E
:10561600C28219C017F01AC018F0120017501902EA
:10562600F3CF1BF0F4CF1CF017501A02F3501C26D0
:1056360018501902F3501C261BC017F01CC018F096
:10564600120017501810D8A42BEF2BF02DEF2BF0CB
:105656002FEF2BF033EF2BF017C0BCF018C0BDF0C6
:10566600120017501810D8A43BEF2BF03DEF2BF08B
:105676003FEF2BF043EF2BF017C0BEF018C0BFF082
:10568600120017501810D8A44BEF2BF04DEF2BF04B
:105696004FEF2BF053EF2BF017C0C0F018C0C1F03E
:1056A6001200016EF2900150D8A45CEF2BF05EEF71
:1056B6002BF060EF2BF060EF2BF01200016EF290F2
:1056C6000150D8A469EF2BF06BEF2BF06DEF2BF0A8
:1056D6006DEF2BF01200016EF2900150D8A476EF18
:1056E6002BF078EF2BF07AEF2BF07AEF2BF01200FD
:1056F600016EF2900150D8A483EF2BF085EF2BF0CA
:1057060087EF2BF087EF2BF0120001685A622A1AF6
:10571600622A333B232B320201032802332B100863
:1057260001010101130B3129211A5450CF6E53C0C8
:10573600CEFF12000001D62B12009D9812009E96F5
:105746001200A19612009E941200A19012009E943F
:0657560012001200120017
:020000040020DA
:08000000FFFFFFFFFFFFFFFF00
:020000040030CA
:0E000000FF02091EFF8181FF0FC00FE00F40BD
:00000001FF
