:0400000007EF00F016
:0A0008006982B2ED0DF0A7EF23F0BE
:10100000003738392F3435362A3132332D40303DD0
:051010002B2569000022
:101016006CEC1CF00001CB51D8A414EF08F016EFCD
:1010260008F024EF08F0740E206E010E216E000EFB
:10103600226E05EC29F020C0FBF121C0FCF138EF4F
:1010460008F0CB05D8A42AEF08F02CEF08F038EF0B
:1010560008F0740E206E010E216E010E226E05EC54
:1010660029F020C0FBF121C0FCF1F60E0001846FCF
:10107600280E856F9C0E866F400E876FCEC117F0C7
:10108600CFC118F0196A1A6A000E48EC16F017C09C
:1010960080F018C081F019C082F01AC083F0D5EC38
:1010A6000FF080C095F081C096F082C097F083C0A3
:1010B60098F0FDEC1CF095C0B8F096C0B9F0F60EAD
:1010C6000001846F280E856F9C0E866F400E876F19
:1010D600CCC117F0CDC118F0196A1A6A000E48EC97
:1010E60016F017C080F018C081F019C082F01AC03F
:1010F60083F0D5EC0FF080C095F081C096F082C0E9
:1011060097F083C098F0FDEC1CF095C0B6F096C041
:10111600B7F0B8C01DF0B9C01EF0000E206E0A0E62
:101126001F6E87EC26F01DC0B8F01EC0B9F0B6C021
:101136001DF0B7C01EF0000E206E0A0E1F6E87EC63
:1011460026F01DC0B6F01EC0B7F0B6C017F0B7C087
:1011560018F0000E1A6E640E196EC2EC2AF017C053
:101166001DF018C01EF0010E206EF40E1F6E87ECE7
:1011760026F01DC0B6F01EC0B7F0DCEF08F0000E7A
:101186000001B56FC70EB525176E186A010E182235
:10119600010EDEEC28F017C0FBF118C0FCF10001CF
:1011A600B52B040EB565DAEF08F0DCEF08F0C5EFF5
:1011B60008F00101CB51D8B4E3EF08F0E5EF08F0F1
:1011C600C2EF08F0C7C1D3F0C8C1D2F0C9C1D1F08F
:1011D600CAC1D0F0CBC1CFF00001D305D8A4F6EF39
:1011E60008F0F8EF08F00DEF08F0D205D8A4FEEFEE
:1011F60008F000EF09F018EF09F01E0EB619B71146
:10120600D8A408EF09F00AEF09F018EF09F0010E6B
:10121600CD6FDD0E226E000E236ECAEC27F022C0C3
:10122600FBF123C0FCF14CEF09F0020ED219D8A451
:101236001FEF09F021EF09F02DEF09F0410EB61965
:10124600B711D8A429EF09F02BEF09F02DEF09F01B
:101256000AEF09F0030ED219D8A434EF09F036EFDD
:1012660009F042EF09F0620EB619B711D8A43EEFA5
:1012760009F040EF09F042EF09F00AEF09F0DD0E40
:10128600226E000E236E66EC27F022C0FBF123C00F
:10129600FCF10001CF05D8A453EF09F055EF09F092
:1012A60063EF09F0140EB819B911D8A45DEF09F06F
:1012B6005FEF09F063EF09F0010ECC6F8DEF09F0D7
:1012C600020ECF19D8A46AEF09F06CEF09F078EF97
:1012D60009F01E0EB819B911D8A474EF09F076EF0B
:1012E60009F078EF09F05FEF09F0030ECF19D8A4E3
:1012F6007FEF09F081EF09F08DEF09F0280EB8199C
:10130600B911D8A489EF09F08BEF09F08DEF09F038
:101316005FEF09F0CC05D8A493EF09F095EF09F03B
:101326000DEF08F0CD05D8A49BEF09F09DEF09F06D
:101336000DEF08F0D005D8A4A3EF09F0A5EF09F04A
:10134600A9EF09F0030EC66FABEF09F0060EC66FE4
:10135600D105D8A4B1EF09F0B3EF09F0B7EF09F062
:10136600040EC76FD1EF09F0020ED119D8A4BEEF53
:1013760009F0C0EF09F0C4EF09F0080EC76FD1EF0E
:1013860009F0030ED119D8A4CBEF09F0CDEF09F07F
:10139600D1EF09F00C0EC76FD1EF09F0C751C62582
:1013A600C86FC8C057F0000ECA6F000EC96F680E2E
:1013B6001A6E010E1B6E1EEC21F01AC0FBF11BC04B
:1013C600FCF1550E00019F6F010EA06F000EA16F7C
:1013D600000EA26F480EA36F420EA46F22EC17F008
:1013E6009FC0FBF1A0C0FCF1550E176E010E186EE2
:1013F6004DEC26F017C0FBF118C0FCF171EF0AF0B6
:10140600E20E226E000E236E15EC23F022C0FBF1D5
:1014160023C0FCF1DF0E226E000E236E66EC27F071
:1014260022C0FBF123C0FCF1E40E0001B46F440EB0
:10143600E82EFED7B42FFCD700F0DF0E226E000E8A
:10144600236ECAEC27F022C0FBF123C0FCF1720E1A
:101456000001B46FA10EE82EFED7B42FFCD700D042
:10146600DF0E226E000E236E98EC27F022C0FBF1F1
:1014760023C0FCF1720E0001B46FA10EE82EFED758
:10148600B42FFCD700D05EEF0AF0DF0E226E000EFE
:10149600236ECAEC27F022C0FBF123C0FCF1E20E5A
:1014A600206E000E216E7CEC24F020C0FBF121C0E2
:1014B600FCF13DEF0AF00001D5A164EF0AF066EFFA
:1014C6000AF048EF0AF0C951C45DD8B06DEF0AF0D2
:1014D6006FEF0AF071EF0AF05706C42B0001C751EF
:1014E600C95DD8A079EF0AF07BEF0AF003EF0AF0A6
:1014F600000ECA6F000EC96F550E9F6F010EA06FCA
:10150600000EA16F000EA26FC80EA36F420EA46F4D
:1015160022EC17F09FC0FBF1A0C0FCF1550E176E30
:10152600010E186E4DEC26F017C0FBF118C0FCF149
:10153600E30E0001AF6F000EB06F5A0EB16FB8EC3C
:1015460013F0EEEF0AF0DF0E226E000E236E66EC4D
:1015560027F022C0FBF123C0FCF1E20E226E000E42
:10156600236E15EC23F022C0FBF123C0FCF1D9EF6A
:101576000AF0DF0E226E000E236ECAEC27F022C0A0
:10158600FBF123C0FCF1E20E206E000E216E7CEC16
:1015960024F020C0FBF121C0FCF1720E0001B46FF3
:1015A600A10EE82EFED7B42FFCD700D00001D5A19E
:1015B600DFEF0AF0E1EF0AF0BCEF0AF0010EC56FAB
:1015C600C951C45DD8B0EAEF0AF0ECEF0AF0EEEFCD
:1015D6000AF05706C42B0001C651C95DD8A0F6EF24
:1015E6000AF0F8EF0AF0A6EF0AF0C505D8A4FEEF58
:1015F6000AF000EF0BF00DEF08F0DF0E226E000E82
:10160600236ECAEC27F022C0FBF123C0FCF1E20EE8
:10161600226E000E236E5EEC23F022C0FBF123C087
:10162600FCF1000E0001CA6F46EF0BF0E10E176EDB
:10163600000E186E010E196EEEEC19F017C0FBF1D4
:1016460018C0FCF1720E0001B46FA10EE82EFED791
:10165600B42FFCD700D0E10E176E000E186E000EE8
:10166600196EEEEC19F017C0FBF118C0FCF1720E02
:101676000001B46FA10EE82EFED7B42FFCD700D020
:10168600000E0001D36F070ECA654CEF0BF04EEF4C
:101696000BF019EF0BF00DEF08F007EF00F04150DB
:1016A600800B4A6E415041244C6E40AE5DEF0BF00C
:1016B6005FEF0BF060EF0BF04C804C50D8B466EF48
:1016C6000BF068EF0BF07DEF0BF04C28D8A46EEF13
:1016D6000BF070EF0BF078EF0BF0000E3E6E000E85
:1016E6003F6E000E406E000E416E408E000E416E43
:1016F60085EF0BF0000E3E6E000E3F6E000E406E44
:10170600000E416E4550800B4B6E4A504B18D8B4B4
:101716008FEF0BF091EF0BF092EF0BF04A8C4550E8
:1017260045244B6E44AE9AEF0BF09CEF0BF09DEF09
:101736000BF04B804B50D8B4A3EF0BF0A5EF0BF09A
:10174600BAEF0BF04B28D8A4ABEF0BF0ADEF0BF0D4
:10175600B5EF0BF0000E426E000E436E000E446EA7
:10176600000E456E448E000E456EC2EF0BF0000E65
:10177600426E000E436E000E446E000E456E4C50D7
:101786004B5CD8B0C9EF0BF0CBEF0BF0F2EF0BF0E0
:101796004AACD0EF0BF0D2EF0BF0D4EF0BF0800E8B
:1017A6004A1A4CC04DF04BC04CF04DC04BF03EC0F9
:1017B6004DF042C03EF04DC042F03FC04DF043C038
:1017C6003FF04DC043F040C04DF044C040F04DC026
:1017D60044F041C04DF045C041F04DC045F0000E0B
:1017E6004D6E4C504BC046F0476A465E000E475A57
:1017F60047BE07EF0CF0475009E11A0E465CD8A029
:1018060007EF0CF009EF0CF040EF0CF03E503F10E4
:1018160040104110D8A412EF0CF015EF0CF0010E99
:1018260016EF0CF0000E4D6E000E3E6E000E3F6E73
:10183600000E406E000E416E4BC04CF049EF0CF0AE
:101846004DA028EF0CF02AEF0CF030EF0CF0D890FA
:101856004D3001094D6E32EF0CF0D8904D323EA05E
:1018660037EF0CF039EF0CF03AEF0CF04D8E4134B7
:10187600413240323F323E324C2A4B504C5CD8A06B
:1018860047EF0CF049EF0CF023EF0CF04ABC4EEF9B
:101896000CF050EF0CF090EF0CF04C50D8A456EF33
:1018A6000CF058EF0CF062EF0CF0000E3E6E000EDE
:1018B6003F6E000E406E000E416EB1EF0DF04250CD
:1018C6003E2643503F22445040224550412241A0EB
:1018D6006FEF0CF071EF0CF01DEF0DF04DA076EFF1
:1018E6000CF078EF0CF07EEF0CF0D8904D3001093B
:1018F6004D6E80EF0CF0D8904D323EA085EF0CF087
:1019060087EF0CF088EF0CF04D8E413441324032B7
:101916003F323E324C2A1DEF0DF042503E5C4350A2
:101926003F58445040584150800A466E4550800A00
:101936004658D8B0A1EF0CF0A3EF0CF0CEEF0CF0A8
:101946003E50425C466E3F504358476E40504458A6
:10195600486E41504558496EFF0E46243E6EFF0EB6
:1019660047203F6EFF0E4820406EFF0E4920416E15
:10197600800E4A1A4D6C4D50D8A4C4EF0CF0C6EF39
:101986000CF0D6EF0CF0010E3E26000E3F22402250
:101996004122D6EF0CF042503E5E43503F5A44502F
:1019A600405A4550415A3E503F1040104110D8A46D
:1019B600DFEF0CF0E1EF0CF016EF0DF04D50D8A470
:1019C600E7EF0CF0E9EF0CF016EF0DF0000E3E6EAF
:1019D600000E3F6E000E406E000E416EB1EF0DF030
:1019E600D8903E363F36403641364DAEFDEF0CF0D0
:1019F600FFEF0CF000EF0DF03E804DA005EF0DF06F
:101A060007EF0DF00BEF0DF0D8804D360DEF0DF012
:101A1600D8904D364C50D8B413EF0DF015EF0DF0AD
:101A260016EF0DF04C0640AE1BEF0DF01DEF0DF05E
:101A3600F3EF0CF0000E4B6E4DAE24EF0DF026EFDB
:101A46000DF03EEF0DF04DC046F07F0E4616D8B4B1
:101A56002FEF0DF031EF0DF035EF0DF0010E4B6E5F
:101A66003EEF0DF03EA03AEF0DF03CEF0DF03EEFED
:101A76000DF031EF0DF04B50D8B444EF0DF046EFBA
:101A86000DF071EF0DF0010E3E26000E3F224022B2
:101A9600412241A051EF0DF053EF0DF071EF0DF023
:101AA6003EC046F03FC047F040C048F041C049F054
:101AB6004934493248324732463246C03EF047C082
:101AC6003FF048C040F049C041F04C28D8B46EEF12
:101AD6000DF070EF0DF071EF0DF04C2A4C28D8B4D4
:101AE60077EF0DF079EF0DF081EF0DF04C50D8A4A3
:101AF6007FEF0DF081EF0DF093EF0DF0000E3E6ECF
:101B0600000E3F6E000E406E000E416E4C50D8A483
:101B16008FEF0DF091EF0DF093EF0DF0000E4A6E82
:101B26004CA098EF0DF09AEF0DF09DEF0DF0408E62
:101B36009EEF0DF0409ED8904C30416E4AAEA6EF17
:101B46000DF0A8EF0DF0A9EF0DF0418E3EC03EF06E
:101B56003FC03FF040C040F041C041F012000600D7
:101B6600FACF11F0FBCF12F0D9CF13F0DACF14F081
:101B7600F3CF15F0F4CF16F0F2A8C4EF0DF0C6EFD0
:101B86000DF0CFEF0DF0F2A2CBEF0DF0CDEF0DF093
:101B9600CFEF0DF05CEC2AF0F0A6D4EF0DF0D6EF07
:101BA6000DF0DFEF0DF0F0A0DBEF0DF0DDEF0DF047
:101BB600DFEF0DF042EC2AF0F0A8E4EF0DF0E6EFCF
:101BC6000DF0EFEF0DF0F0A2EBEF0DF0EDEF0DF0F5
:101BD600EFEF0DF028EC2AF0F2A6F4EF0DF0F6EF99
:101BE6000DF011EF0EF0F2A0FBEF0DF0FDEF0DF092
:101BF60011EF0EF081A802EF0EF004EF0EF011EFD8
:101C06000EF06204D8A40AEF0EF00CEF0EF011EFFE
:101C16000EF0000E626E000E2CEC2BF0F2A616EF04
:101C26000EF018EF0EF033EF0EF0F2A01DEF0EF0EF
:101C36001FEF0EF033EF0EF081BA24EF0EF026EF11
:101C46000EF033EF0EF06250D8A42CEF0EF02EEF0C
:101C56000EF033EF0EF0010E626E010E2CEC2BF03F
:101C6600F2A638EF0EF03AEF0EF055EF0EF0F2A0B6
:101C76003FEF0EF041EF0EF055EF0EF081AA46EF62
:101C86000EF048EF0EF055EF0EF06104D8A44EEFBB
:101C96000EF050EF0EF055EF0EF0000E616E000ED6
:101CA6001FEC2BF0F2A65AEF0EF05CEF0EF077EF7A
:101CB6000EF0F2A061EF0EF063EF0EF077EF0EF08C
:101CC60081BA68EF0EF06AEF0EF077EF0EF0615012
:101CD600D8A470EF0EF072EF0EF077EF0EF0010E53
:101CE600616E010E1FEC2BF0F2A67CEF0EF07EEF7C
:101CF6000EF099EF0EF0F2A083EF0EF085EF0EF0E6
:101D060099EF0EF081AC8AEF0EF08CEF0EF099EFA2
:101D16000EF06004D8A492EF0EF094EF0EF099EF57
:101D26000EF0000E606E000E12EC2BF0F2A69EEF87
:101D36000EF0A0EF0EF0BBEF0EF0F2A0A5EF0EF046
:101D4600A7EF0EF0BBEF0EF081BCACEF0EF0AEEFDE
:101D56000EF0BBEF0EF06050D8A4B4EF0EF0B6EF65
:101D66000EF0BBEF0EF0010E606E010E12EC2BF0C2
:101D7600F2A6C0EF0EF0C2EF0EF0DDEF0EF0F2A00D
:101D8600C7EF0EF0C9EF0EF0DDEF0EF081AECEEF2D
:101D96000EF0D0EF0EF0DDEF0EF05F04D8A4D6EF14
:101DA6000EF0D8EF0EF0DDEF0EF0000E5F6E000EB7
:101DB60005EC2BF0F2A6E2EF0EF0E4EF0EF0FFEFEB
:101DC6000EF0F2A0E9EF0EF0EBEF0EF0FFEF0EF0E3
:101DD60081BEF0EF0EF0F2EF0EF0FFEF0EF05F5067
:101DE600D8A4F8EF0EF0FAEF0EF0FFEF0EF0010EAA
:101DF6005F6E010E05EC2BF09DAC04EF0FF006EFC5
:101E06000FF00FEF0FF09EAC0BEF0FF00DEF0FF092
:101E16000FEF0FF076EC2AF0F2AA14EF0FF016EFA0
:101E26000FF01FEF0FF0F2A41BEF0FF01DEF0FF0F6
:101E36001FEF0FF0D4EC29F09DA024EF0FF026EF52
:101E46000FF02FEF0FF09EA02BEF0FF02DEF0FF0FE
:101E56002FEF0FF049EC2BF09DA234EF0FF036EF89
:101E66000FF03FEF0FF09EA23BEF0FF03DEF0FF0AC
:101E76003FEF0FF05EEC2BF0A0A244EF0FF046EF21
:101E86000FF04FEF0FF0A1A24BEF0FF04DEF0FF059
:101E96004FEF0FF0F2EC29F09DA454EF0FF056EF40
:101EA6000FF05FEF0FF09EA45BEF0FF05DEF0FF00A
:101EB6005FEF0FF05BEC2BF0A0A064EF0FF066EF86
:101EC6000FF06FEF0FF0A1A06BEF0FF06DEF0FF0BB
:101ED6006FEF0FF059EC2BF09DA474EF0FF076EF37
:101EE6000FF07FEF0FF09EA47BEF0FF07DEF0FF06A
:101EF6007FEF0FF057EC2BF09DA884EF0FF086EFE5
:101F06000FF08FEF0FF09EA88BEF0FF08DEF0FF015
:101F16008FEF0FF051EC2BF09DAA94EF0FF096EF98
:101F26000FF09FEF0FF09EAA9BEF0FF09DEF0FF0C3
:101F36009FEF0FF05DEC2BF09DA6A4EF0FF0A6EF40
:101F46000FF0A7EF0FF09E509DA6ACEF0FF0AEEF8F
:101F56000FF0B7EF0FF09EA6B3EF0FF0B5EF0FF04F
:101F6600B7EF0FF053EC2BF0A0A6BCEF0FF0BEEFCF
:101F76000FF0C7EF0FF0A1A6C3EF0FF0C5EF0FF0FC
:101F8600C7EF0FF055EC2BF016C0F4FF15C0F3FFAA
:101F960014C0DAFF13C0D9FF12C0FBFF11C0FAFF4D
:101FA6006992110000018351800B886F835183254C
:101FB6008E6F82AFE1EF0FF0E3EF0FF0E4EF0FF07B
:101FC6008E818E51D8B4EAEF0FF0ECEF0FF0FFEFF1
:101FD6000FF08E29D8A4F2EF0FF0F4EF0FF0FCEF1C
:101FE6000FF0000E806F000E816F000E826F000EE4
:101FF600836F828F07EF10F0000E806F000E816FE7
:10200600000E826F000E836F8751800B881B8751ED
:102016008725896F86AF12EF10F014EF10F015EFD9
:1020260010F089818951D8B41BEF10F01DEF10F024
:1020360030EF10F08929D8A423EF10F025EF10F027
:102046002DEF10F0000E846F000E856F000E866F68
:10205600000E876F868F38EF10F0000E846F000E2B
:10206600856F000E866F000E876F8951D8B43EEFDC
:1020760010F040EF10F048EF10F08E51D8A446EF64
:1020860010F048EF10F052EF10F0000E806F000EC7
:10209600816F000E826F000E836FEAEF11F086519A
:1020A6008003F3CF93F0F4CF94F093518A6F8B6B48
:1020B6008C6B8D6B94518F6F906B916B926B85517E
:1020C6008103F3CF93F0F4CF94F093518A27000E57
:1020D6008B238C238D2394518F27000E90239123DD
:1020E600922384518203F3CF93F0F4CF94F093516B
:1020F6008A27000E8B238C238D2394518F27000E65
:102106009023912392238CC08DF08BC08CF08AC0D3
:102116008BF08A6B84518103F3CF93F0F4CF94F064
:1021260093518A2794518B23000E8C23000E8D2306
:1021360085518003F3CF93F0F4CF94F093518A271F
:1021460094518B23000E8C23000E8D238CC08DF0B2
:102156008BC08CF08AC08BF08A6B84518003F3CFDE
:1021660093F0F4CF94F093518A2794518B23000E69
:102176008C23000E8D2386518103F3CF93F0F4CF89
:1021860094F093518F2794519023000E9123000EC3
:10219600922385518203F3CF93F0F4CF94F09351B9
:1021A6008F2794519023000E9123000E922386517F
:1021B6008203F3CF93F0F4CF94F093514E6E945183
:1021C6004F6E506A516A50C051F04FC050F04EC029
:1021D6004FF04E6A4E508F274F5090235050912308
:1021E600515092238AC04EF08BC04FF08CC050F0F5
:1021F6008DC051F0190E05EF11F0D89051325032C2
:102206004F324E32E82E00EF11F04E508F274F50CE
:10221600902350509123515092238CC08DF08BC047
:102226008CF08AC08BF08A6B89518EC04EF04F6A53
:102236004E26000E4F22820E4E24936FFF0E4F2025
:10224600946F3BEF11F0D8908F37903791379237D4
:102256008DAF30EF11F032EF11F033EF11F08F81C7
:10226600D8908A378B378C378D379307D8A0940749
:1022760091AF40EF11F042EF11F026EF11F0000E92
:10228600896F8DAF49EF11F04BEF11F06FEF11F041
:10229600FF0E8A154E6EFF0E8B154F6EFF0E8C15B8
:1022A600506E7F0E8D15516E4E504F1050105110BE
:1022B600D8B460EF11F062EF11F066EF11F0010E85
:1022C600896F6FEF11F08FA16BEF11F06DEF11F0C9
:1022D6006FEF11F062EF11F08951D8B475EF11F07C
:1022E60077EF11F09BEF11F0010E8F27000E902370
:1022F6009123922392A182EF11F084EF11F09BEFCC
:1023060011F08FC04EF090C04FF091C050F092C0C7
:1023160051F05134513250324F324E324EC08FF05E
:102326004FC090F050C091F051C092F0934B942B57
:1023360094BFA6EF11F0945108E19329D8A0A6EF17
:1023460011F0A8EF11F0B2EF11F0000E8F6F000E32
:10235600906F800E916F7F0E926FE0EF11F094BF39
:10236600BFEF11F0945106E19305D8B0BDEF11F01F
:10237600BFEF11F0CBEF11F0000E8F6F000E906FD4
:10238600000E916F000E926F000E886FE0EF11F055
:1023960093C08EF0FF0E8F17FF0E90177F0E9117CA
:1023A600000E92178EA1DAEF11F0DCEF11F0DDEFDF
:1023B60011F0918FD8908E31926F885192138FC001
:1023C60080F090C081F091C082F092C083F012003C
:1023D6002850800B356E285028243C6E27AEF6EF29
:1023E60011F0F8EF11F0F9EF11F03C803C50D8B441
:1023F600FFEF11F001EF12F016EF12F03C28D8A40F
:1024060007EF12F009EF12F011EF12F0000E256E31
:10241600000E266E000E276E000E286E278E000E0A
:10242600286E1EEF12F0000E256E000E266E000EB0
:10243600276E000E286E2C50800B351A2C502C243B
:102446003D6E2BAE29EF12F02BEF12F02CEF12F0AF
:102456003D803D50D8B432EF12F034EF12F049EF20
:1024660012F03D28D8A43AEF12F03CEF12F044EFF8
:1024760012F0000E296E000E2A6E000E2B6E000E54
:102486002C6E2B8E000E2C6E51EF12F0000E296E64
:10249600000E2A6E000E2B6E000E2C6E29502A108E
:1024A6002B102C10D8A45AEF12F05CEF12F074EF38
:1024B60012F0000E256E000E266E000E276E000E20
:1024C600286E800E27127F0E28123550281225C03E
:1024D60025F026C026F027C027F028C028F0B7EF41
:1024E60013F03C50D8A47AEF12F07CEF12F086EF8E
:1024F60012F0000E256E000E266E000E276E000EE0
:10250600286EB7EF13F03D503CC02DF02E6A2D5EBD
:10251600000E2E5A7F0E2D24366E000E2E20376E9C
:1025260025C031F026C032F027C033F028C034F081
:10253600000E256E000E266E000E276E000E286E0B
:10254600000E386E000E396E000E3A6E000E3B6EAF
:10255600000E3D6EE7EF12F03D50D8B4B5EF12F025
:10256600B7EF12F0CEEF12F0D8903136323633365E
:102576003436D89025362636273628363BAEC6EF73
:1025860012F0C8EF12F0C9EF12F02580D890383655
:1025960039363A363B362950315C2A5032582B5060
:1025A60033582C503458D8A0DBEF12F0DDEF12F080
:1025B600E6EF12F03B8C2950315E2A50325A2B50EE
:1025C600335A2C50345A3D2A190E3D64EDEF12F061
:1025D600EFEF12F0AFEF12F031503210331034102B
:1025E600D8B4F8EF12F0FAEF12F012EF13F03880C9
:1025F60012EF13F0D89025362636273628363BAE0E
:1026060007EF13F009EF13F00AEF13F02580D890C7
:10261600383639363A363B363606D8A0370627AE30
:1026260017EF13F019EF13F0FDEF12F0000E3D6EE9
:102636003BAE20EF13F022EF13F046EF13F0FF0E40
:1026460038142D6EFF0E39142E6EFF0E3A142F6EAF
:102656007F0E3B14306E2D502E102F103010D8B434
:1026660037EF13F039EF13F03DEF13F0010E3D6E27
:1026760046EF13F025A042EF13F044EF13F046EFB8
:1026860013F039EF13F03D50D8B44CEF13F04EEF82
:1026960013F072EF13F0010E2526000E26222722D4
:1026A600282228A059EF13F05BEF13F072EF13F016
:1026B60025C02DF026C02EF027C02FF028C030F000
:1026C600303430322F322E322D322DC025F02EC02E
:1026D60026F02FC027F030C028F0364A372A37BEFA
:1026E6007DEF13F0375008E13628D8A07DEF13F0C0
:1026F6007FEF13F08AEF13F0000E376E3668000E88
:10270600256E000E266E000E276E000E286E37BE52
:1027160097EF13F0375006E13604D8B095EF13F073
:1027260097EF13F0A5EF13F0000E376E000E366E1E
:10273600000E256E000E266E000E276E000E286E09
:10274600000E356E36C03CF03CA0ACEF13F0AEEF99
:1027560013F0B1EF13F0278EB2EF13F0279ED89047
:102766003C30286E68EF12F01200000E0101D56FA2
:10277600000ED66F000ED76F000ED86FB40ED46F52
:10278600000ED06F000ED16F800ED26F3F0ED36F4A
:10279600000ED96F000EDA6F000EDB6F000EDC6FD5
:1027A600000EDD6F000EDE6F000EDF6F000EE06FB5
:1027B6000001AF51B011D8A4E3EF13F0E5EF13F029
:1027C600E7EF13F057EF15F0AFC0D9FFB0C0DAFF4F
:1027D600DF50D8A4F1EF13F0F3EF13F0A6EF14F0E7
:1027E60021EE0DF011EEE1F00C0EDBCFE3FFE80673
:1027F600FCE2B1C0B2F0B36BB2BFB3075F0EB22753
:10280600000EB323B2C017F0B3C018F0000E18BE06
:10281600FF0E196E1A6E010E48EC16F017C025F061
:1028260018C026F019C027F01AC028F0B40E176E8B
:10283600000E186E000E196E000E1A6E000E48EC91
:1028460016F017C029F018C02AF019C02BF01AC0CC
:102856002CF0EBEC11F025C0D9F126C0DAF127C037
:10286600DBF128C0DCF1D0C129F0D1C12AF0D2C1F8
:102876002BF0D3C12CF0D9C125F0DAC126F0DBC18B
:1028860027F0DCC128F0EBEC11F025C03EF026C0A5
:102896003FF027C040F028C041F0000E426E000E07
:1028A600436E800E446E3F0E456E52EC0BF03EC0FA
:1028B600DDF13FC0DEF140C0DFF141C0E0F1000EC6
:1028C600296E000E2A6EA00E2B6E410E2C6EDDC1F7
:1028D60025F0DEC126F0DFC127F0E0C128F0EBECE1
:1028E60011F025C080F026C081F027C082F028C0F4
:1028F60083F0000E0001846F000E856FC80E866F90
:10290600420E876FD5EC0FF080C0D5F181C0D6F1AD
:1029160082C0D7F183C0D8F1E10E00019F6F010E8E
:10292600A06FD5C1A1F0D6C1A2F0D7C1A3F0D8C17E
:10293600A4F022EC17F0E10E176E010E186E4DECA6
:1029460026F057EF15F021EE00F011EEEEF00C0E2A
:10295600DBCFE3FFE806FCE2B1C0B2F0B36BB2BF77
:10296600B3075A0EB227000EB323B2C017F0B3C096
:1029760018F0000E18BEFF0E196E1A6E010E48EC06
:1029860016F017C025F018C026F019C027F01AC097
:1029960028F0B40E176E000E186E000E196E000E9B
:1029A6001A6E000E48EC16F017C029F018C02AF06F
:1029B60019C02BF01AC02CF0EBEC11F025C0D9F1A0
:1029C60026C0DAF127C0DBF128C0DCF1D0C129F03E
:1029D600D1C12AF0D2C12BF0D3C12CF0D9C125F038
:1029E600DAC126F0DBC127F0DCC128F0EBEC11F0F0
:1029F60025C03EF026C03FF027C040F028C041F079
:102A0600000E426E000E436E800E446E3F0E456E03
:102A160052EC0BF03EC0DDF13FC0DEF140C0DFF10D
:102A260041C0E0F1000E296E000E2A6EA00E2B6E3C
:102A3600410E2C6EDDC125F0DEC126F0DFC127F088
:102A4600E0C128F0EBEC11F025C080F026C081F043
:102A560027C082F028C083F0000E0001846F000EAC
:102A6600856FC80E866F420E876FD5EC0FF080C05B
:102A7600D5F181C0D6F182C0D7F183C0D8F1EE0E70
:102A860000019F6F010EA06FD5C1A1F0D6C1A2F0C3
:102A9600D7C1A3F0D8C1A4F022EC17F0EE0E176E42
:102AA600010E186E4DEC26F012009FC0D9FFA0C093
:102AB600DAFFDF50D8A462EF15F064EF15F07AEF75
:102AC60015F0000120EE02F09F51D926A051DA221E
:102AD6000C0EDE18D8A472EF15F074EF15F09AEF0D
:102AE60015F0BD50F00B0C09BD6E9AEF15F09FC0A6
:102AF600D9FFA0C0DAFFDE04D8A484EF15F086EF74
:102B060015F09AEF15F0000120EE02F09F51D9263C
:102B1600A051DA220C0EDE18D8A494EF15F096EF29
:102B260015F09AEF15F0BA50F00B0C09BA6E000EBC
:102B36000001846F000E856F800E866F400E876FD2
:102B460020EE05F09F51D926A051DA22DECFA1F062
:102B5600DDCFA2F0A1C017F0A2C018F0196A1A6A58
:102B6600000E48EC16F017C080F018C081F019C0AE
:102B760082F01AC083F0D5EC0FF080C0A3F081C0BC
:102B8600A4F082C0A5F083C0A6F0000120EE07F0F5
:102B96009F51D926A051DA22DF50A16FA151176E9D
:102BA600186A196A1A6A000E48EC16F017C084F003
:102BB60018C085F019C086F01AC087F0A3C080F04F
:102BC600A4C081F0A5C082F0A6C083F0D5EC0FF0BA
:102BD60080C0A7F081C0A8F082C0A9F083C0AAF087
:102BE600000E426E000E436E800E446EBF0E456EA2
:102BF600000120EE08F09F51D926A051DA22DF50BD
:102C0600A16FA151176E186A196A1A6A000E48EC6C
:102C160016F017C084F018C085F019C086F01AC0E7
:102C260087F0A7C080F0A8C081F0A9C082F0AAC032
:102C360083F0D5EC0FF080C029F081C02AF082C065
:102C46002BF083C02CF0000E256EE60E266E2A0EA3
:102C5600276E490E286EEBEC11F025C03EF026C01B
:102C66003FF027C040F028C041F052EC0BF03EC0C8
:102C760095F03FC096F040C097F041C098F0FDEC4B
:102C86001CF000019551CB6E12001F6E1F50D8B478
:102C96004FEF16F051EF16F073EF16F01ABE58EF1D
:102CA60016F056EF16F073EF16F017C01BF018C0AB
:102CB6001CF019C01DF01AC01EF01B1E1C1E1D1E86
:102CC6001E1E1B2A000E1C221D221E221BC021F0C6
:102CD6001CC022F01DC023F01EC024F07BEF16F0AE
:102CE60017C021F018C022F019C023F01AC024F032
:102CF6001750181019101A10D8A484EF16F086EF82
:102D060016F090EF16F0000E176E000E186E000EFD
:102D1600196E000E1A6E21EF17F0960E206E9AEFBE
:102D260016F0202AD8902432233222322132000E85
:102D360021141B6E000E22141C6E000E23141D6E31
:102D4600FE0E24141E6E1B501C101D101E10D8A43F
:102D5600AFEF16F0B1EF16F094EF16F0BFEF16F0E6
:102D6600202A010E2126000E222223222422D89078
:102D76002432233222322132000E21141B6E000E21
:102D860022141C6E000E23141D6EFF0E24141E6EDC
:102D96001B501C101D101E10D8A4D4EF16F0D6EF31
:102DA60016F0B3EF16F0DEEF16F02006D8902136B7
:102DB60022362336243623BEE3EF16F0E5EF16F06F
:102DC600EDEF16F0020E2060EBEF16F0EDEF16F0C9
:102DD600D8EF16F020B0F2EF16F0F4EF16F0F5EF9C
:102DE60016F0239ED890203220C01BF01C6A1D6A64
:102DF6001E6A1BC01EF01D6A1C6A1B6A1B5021122C
:102E06001C5022121D5023121E5024121F50D8B4DB
:102E16000FEF17F011EF17F019EF17F01ABE18EFB2
:102E260017F016EF17F019EF17F0248E21C017F0E0
:102E360022C018F023C019F024C01AF01200000EA8
:102E46000001AC6F010EAB6F9F51A011D8A42EEFFD
:102E560017F030EF17F036EF17F0000EAC6F000EDC
:102E6600AB6FE4EF17F0000E846F000E856F800ED7
:102E7600866F400E876F000E426E000E436E800E08
:102E8600446E3F0E456ECB50176E186A196A1A6A61
:102E9600000E48EC16F017C03EF018C03FF019C0FF
:102EA60040F01AC041F052EC0BF03EC080F03FC03B
:102EB60081F040C082F041C083F0D5EC0FF080C0B5
:102EC600A7F081C0A8F082C0A9F083C0AAF0000EC6
:102ED600296E000E2A6EC80E2B6E420E2C6EA1C0F5
:102EE60025F0A2C026F0A3C027F0A4C028F0EBEC82
:102EF60011F025C084F026C085F027C086F028C0D2
:102F060087F0A7C080F0A8C081F0A9C082F0AAC04F
:102F160083F0D5EC0FF080C095F081C096F082C0AA
:102F260097F083C098F0FDEC1CF095C0ADF096C00C
:102F3600AEF09FC0D9FFA0C0DAFFDF50D8A4A6EF3D
:102F460017F0A8EF17F0C1EF17F0ADC0A5F0030E0C
:102F56000001A517A53BBD50A519CF0BA519BD6E40
:102F6600ADC0A5F0AEC0A6F0D890A633A533D890D4
:102F7600A633A533A551BE6EE4EF17F09FC0D9FF67
:102F8600A0C0DAFFDE04D8A4CBEF17F0CDEF17F020
:102F9600E4EF17F0ADC0A5F0030E0001A517A53BA1
:102FA600BA50A519CF0BA519BA6EADC0A5F0AEC023
:102FB600A6F0D890A633A533D890A633A533A5514D
:102FC600BB6EABC09FF0ACC0A0F01200000E2C6E22
:102FD600010E2B6E28502910D8A4F4EF17F0F6EF47
:102FE60017F0FCEF17F0000E2C6E000E2B6E93EF11
:102FF60018F0C69A28C0D9FF29C0DAFFDF502A6E1A
:10300600C6502A18F00B2A18C66E28C0D9FF29C048
:10301600DAFFDF50D8B412EF18F014EF18F03AEFD9
:1030260018F028C0D9FF29C0DAFFDE04D8B41EEF95
:1030360018F020EF18F03AEF18F028C0D9FF29C091
:10304600DAFF020EDE18D8B42BEF18F02DEF18F0C9
:103056003AEF18F028C0D9FF29C0DAFF030EDE18B0
:10306600D8A438EF18F03AEF18F04FEF18F090ECBC
:103076002AF020EE01F02850D9262950DA22DF3036
:10308600E832030B2A6E2A322A32C7502A187F0BDF
:103096002A18C76E70EF18F028C0D9FF29C0DAFFCA
:1030A600040EDE18D8B45AEF18F05CEF18F069EF8A
:1030B60018F028C0D9FF29C0DAFF050EDE18D8A4FB
:1030C60067EF18F069EF18F070EF18F028C021F0DC
:1030D60029C022F02CEC28F0C79E20EE01F02850E3
:1030E600D9262950DA22DF50030B2A6E2A3AC65017
:1030F6002A18EF0B2A18C66E20EE01F02850D926A2
:103106002950DA22DF38030B2A6E2A3A2A462A4643
:10311600C7502A18BF0B2A18C76EC69EC69CC68AF9
:103126002BC028F02CC029F012001AC0D9FF1BC0F2
:10313600DAFFDF50D8A4A2EF18F0A4EF18F0EBEFF7
:1031460018F0C4EF18F0BD50F00B0809BD6E3EEF45
:1031560019F0BD50F00B0909BD6E3EEF19F0BD50D8
:10316600F00B0209BD6E3EEF19F0BD50F00B0A09D7
:10317600BD6E3EEF19F0BD50F00B0B09BD6E3EEF74
:1031860019F020EE02F01A50D9261B50DA22DF5031
:103196001C6E1D6A1D50000AD8B4D4EF18F03EEF1D
:1031A60019F01C50020AD8B4B2EF18F00A0AD8B4C3
:1031B600A6EF18F0010AD8B4ACEF18F0030AD8B499
:1031C600B8EF18F0010AD8B4BEEF18F03EEF19F0C8
:1031D6001AC0D9FF1BC0DAFFDE04D8A4F5EF18F039
:1031E600F7EF18F03EEF19F017EF19F0BA50F00BA1
:1031F6000809BA6E3EEF19F0BA50F00B0909BA6E1B
:103206003EEF19F0BA50F00B0209BA6E3EEF19F014
:10321600BA50F00B0A09BA6E3EEF19F0BA50F00B2D
:103226000B09BA6E3EEF19F020EE02F01A50D926BD
:103236001B50DA22DF501C6E1D6A1D50000AD8B4DE
:1032460027EF19F03EEF19F01C50020AD8B405EF2B
:1032560019F00A0AD8B4F9EF18F0010AD8B4FFEF4A
:1032660018F0030AD8B40BEF19F0010AD8B411EF1D
:1032760019F03EEF19F01AC017F01BC018F0C1EC98
:1032860026F01200000E206E010E1F6E1750181049
:10329600D8B450EF19F052EF19F063EF19F017C0D8
:1032A600D9FF18C0DAFFDF30E832E832070B196EB3
:1032B600070E196461EF19F063EF19F0C8EF19F002
:1032C600000E206E000E1F6EE9EF19F017C0D9FF31
:1032D60018C0DAFFDF30E832E832070B196E010E4C
:1032E6001A6E192A79EF19F0D8901A36192E77EF37
:1032F60019F01A50FF0A1B6E17C0D9FF18C0DAFF63
:10330600DF50070B1C6E1C50020D480EF324D96EBD
:10331600010EF420DA6EDECF1DF0DDCF1EF01DC0EB
:10332600D9FF1EC0DAFF1B50DF16E9EF19F017C0F0
:10333600D9FF18C0DAFFDF30E832E832070B196E22
:10334600010E1A6E192AAAEF19F0D8901A36192EFC
:10335600A8EF19F017C0D9FF18C0DAFFDF50070B26
:103366001B6E1B50020D480EF324D96E010EF4207D
:10337600DA6EDECF1CF0DDCF1DF01CC0D9FF1DC0FC
:10338600DAFF1A50DF12E9EF19F017C0D9FF18C09B
:10339600DAFFDFBCD1EF19F0D4EF19F0010ED5EF4B
:1033A60019F0000E196E1A6A1A50000AD8B4DEEF28
:1033B60019F063EF19F01950000AD8B469EF19F043
:1033C600010AD8B49AEF19F063EF19F01FC017F08D
:1033D60020C018F01200000E216E000E206E17504D
:1033E6001810D8B4F9EF19F0FBEF19F00CEF1AF03A
:1033F60017C0D9FF18C0DAFFDF30E832E832070B12
:103406001A6E070E1A640AEF1AF00CEF1AF077EF2D
:103416001AF0000E216E010E206E8CEF1AF017C006
:10342600D9FF18C0DAFFDF30E832E832070B1A6E30
:10343600010E1B6E1A2A22EF1AF0D8901B361A2E8E
:1034460020EF1AF01B50FF0A1C6E17C0D9FF18C0D8
:10345600DAFFDF50070B1D6E1D50020D3E0EF324E2
:10346600D96E010EF420DA6EDECF1EF0DDCF1FF02E
:103476001EC0D9FF1FC0DAFF1C50DF168CEF1AF0F2
:1034860017C0D9FF18C0DAFFDF30E832E832070B81
:103496001A6E010E1B6E1A2A53EF1AF0D8901B36BD
:1034A6001A2E51EF1AF017C0D9FF18C0DAFFDF50F5
:1034B600070B1C6E1C50020D3E0EF324D96E010E36
:1034C600F420DA6EDECF1DF0DDCF1EF01DC0D9FF71
:1034D6001EC0DAFF1B50DF128CEF1AF0000E216EB1
:1034E600000E206E8CEF1AF019501A6E1B6A1B50D4
:1034F600000AD8B481EF1AF071EF1AF01A50000AD8
:10350600D8B412EF1AF0010AD8B443EF1AF071EFEB
:103516001AF020C017F021C018F01200000E0B6E32
:10352600000E0A6E01500210D8B49CEF1AF09EEFFE
:103536001AF0AFEF1AF001C0D9FF02C0DAFFDF3090
:10354600E832E832070B046E070E0464ADEF1AF09A
:10355600AFEF1AF01AEF1BF0000E0B6E010E0A6E9B
:103566002FEF1BF001C0D9FF02C0DAFFDF30E832CF
:10357600E832070B046E010E056E042AC5EF1AF039
:10358600D8900536042EC3EF1AF00550FF0A066ED2
:1035960001C0D9FF02C0DAFFDF50070B076E0750E4
:1035A600020D3E0EF324D96E010EF420DA6EDECF44
:1035B60008F0DDCF09F008C0D9FF09C0DAFF0650D0
:1035C600DF162FEF1BF001C0D9FF02C0DAFFDF3094
:1035D600E832E832070B046E010E056E042AF6EF98
:1035E6001AF0D8900536042EF4EF1AF001C0D9FF70
:1035F60002C0DAFFDF50070B066E0650020D3E0EC4
:10360600F324D96E010EF420DA6EDECF07F0DDCF9B
:1036160008F007C0D9FF08C0DAFF0550DF122FEF08
:103626001BF0000E0B6E000E0A6E2FEF1BF0035000
:10363600046E056A0550000AD8B424EF1BF014EF97
:103646001BF00450000AD8B4B5EF1AF0010AD8B43A
:10365600E6EF1AF014EF1BF00AC001F00BC002F0FF
:103666001200000E1C6E010E1B6E17501810D8A407
:103676003FEF1BF041EF1BF0AFEF1BF0000E1C6E8F
:10368600000E1B6ECEEF1BF020EE04F01750D9266D
:103696001850DA22DF50D8A453EF1BF055EF1BF079
:1036A60058EF1BF0F19CCEEF1BF020EE04F0175004
:1036B600D9261850DA22DE04D8A464EF1BF066EF90
:1036C6001BF069EF1BF0F18CCEEF1BF0CEEF1BF079
:1036D60020EE04F01750D9261850DA22DF50D8A46D
:1036E60077EF1BF079EF1BF07CEF1BF0F19CCEEF30
:1036F6001BF020EE04F01750D9261850DA22DE040B
:10370600D8A488EF1BF08AEF1BF0CEEF1BF0F18CEC
:10371600CEEF1BF020EE04F01750D9261850DA220F
:10372600DF50D8A499EF1BF09BEF1BF09EEF1BF028
:10373600F19CCEEF1BF020EE04F01750D92618505E
:10374600DA22DE04D8A4AAEF1BF0ACEF1BF0CEEF12
:103756001BF0F18CCEEF1BF020EE03F01750D926AC
:103766001850DA22DF50196E1A6A1A50000AD8B4B5
:10377600BFEF1BF041EF1BF01950000AD8B447EF1A
:103786001BF0010AD8B46BEF1BF0030AD8B48DEF17
:103796001BF041EF1BF01BC017F01CC018F0120005
:1037A6001AC0D9FF1BC0DAFFDF50D8A4DDEF1BF02B
:1037B600DFEF1BF01CEF1CF0F9EF1BF0BD50F00B18
:1037C6000409BD6E65EF1CF0BD50F00B0509BD6E1A
:1037D60065EF1CF0BD50F00B0609BD6E65EF1CF0E1
:1037E600BD50F00B0709BD6E65EF1CF020EE02F030
:1037F6001A50D9261B50DA22DF501C6E1D6A1D5046
:10380600000AD8B409EF1CF065EF1CF01C50040A3E
:10381600D8B4E1EF1BF0010AD8B4E7EF1BF0030AB6
:10382600D8B4EDEF1BF0010AD8B4F3EF1BF065EF47
:103836001CF01AC0D9FF1BC0DAFFDE04D8A426EF9D
:103846001CF028EF1CF065EF1CF042EF1CF0BA509C
:10385600F00B0409BA6E65EF1CF0BA50F00B0509BF
:10386600BA6E65EF1CF0BA50F00B0609BA6E65EF3A
:103876001CF0BA50F00B0709BA6E65EF1CF020EE8B
:1038860002F01A50D9261B50DA22DF501C6E1D6A30
:103896001D50000AD8B452EF1CF065EF1CF01C5006
:1038A600040AD8B42AEF1CF0010AD8B430EF1CF091
:1038B600030AD8B436EF1CF0010AD8B43CEF1CF06A
:1038C60065EF1CF01AC017F01BC018F0C1EC26F00B
:1038D6001200CCEC22F0840E286E010E296EE9EC63
:1038E60017F028C0FBF129C0FCF1740E1A6E010E08
:1038F6001B6EDEEC1EF01AC0FBF11BC0FCF1620E63
:10390600256E010E266E7CEC22F025C0FBF126C04A
:10391600FCF16E0E196E010E1A6E0CEC20F019C039
:10392600FBF11AC0FCF1E30E0001AF6F000EB06FA1
:1039360077EC21F0AFC0FBF1B0C0FCF1DF0E266ED4
:10394600000E276E5AEC28F026C0FBF127C0FCF1CA
:10395600DD0E266E000E276E5AEC28F026C0FBF10F
:1039660027C0FCF1550E0001AB6F010EAC6F81EC68
:103976001DF0ABC0FBF1ACC0FCF1640E226E000E74
:10398600236EFCEC27F022C0FBF123C0FCF1630E92
:10399600226E000E236EFCEC27F022C0FBF123C042
:1039A600FCF1E10E226E000E236EFCEC27F022C025
:1039B600FBF123C0FCF17F0E266E010E276E4CEC48
:1039C60025F026C0FBF127C0FCF17A0E266E010E0B
:1039D600276E4CEC25F026C0FBF127C0FCF1E20E69
:1039E600266E000E276E35EC24F026C0FBF127C0AC
:1039F600FCF112000001973598359E6F9E51D8A4B0
:103A060007EF1DF009EF1DF013EF1DF0000E956F87
:103A1600000E966F000E976F000E986F80EF1DF0E8
:103A260095C099F096C09AF097C09BF098C09CF00C
:103A3600200E23EF1DF0D8909C339B339A33993395
:103A4600E82E1EEF1DF099519D6F978FFF0E95176B
:103A5600FF0E9617FF0E9717000E9817960E9E5F8D
:103A66009EBF3AEF1DF038EF1DF050EF1DF09E514E
:103A7600800A970FD8B042EF1DF044EF1DF046EFD5
:103A86001DF009EF1DF0D890983397339633953390
:103A96009E3F46EF1DF068EF1DF01F0E9E6556EF28
:103AA6001DF058EF1DF060EF1DF009EF1DF0D890E6
:103AB60095379637973798379E079E51D8A466EF65
:103AC6001DF068EF1DF05AEF1DF09D51D8B46EEF52
:103AD6001DF070EF1DF078EF1DF0981F971F961FD1
:103AE600956D000E96239723982395C095F096C062
:103AF60096F097C097F098C098F012000001AB516D
:103B0600AC11D8A489EF1DF08BEF1DF091EF1DF0DD
:103B1600000EAE6F000EAD6FF9EF1DF0ABC0D9FF12
:103B2600ACC0DAFFDF50D8A49BEF1DF09DEF1DF06F
:103B3600A1EF1DF0F00EBD16A3EF1DF0F00EBA16A4
:103B460020EE01F0AB51D926AC51DA22DF50D8A4D1
:103B5600AFEF1DF0B1EF1DF0B9EF1DF0ABC01AF0DD
:103B6600ACC01BF0D3EC1BF0E6EF1DF020EE01F02D
:103B7600AB51D926AC51DA22DE04D8A4C5EF1DF02C
:103B8600C7EF1DF0CFEF1DF0ABC01AF0ACC01BF0B5
:103B960098EC18F0E6EF1DF020EE01F0AB51D926B7
:103BA600AC51DA22020EDE18D8A4DCEF1DF0DEEFEF
:103BB6001DF0E6EF1DF0ABC09FF0ACC0A0F058ECD6
:103BC60015F0E6EF1DF0030E0001AB25226E000E88
:103BD600AC21236EFCEC27F022C0ADF023C0AEF082
:103BE600ABC017F0ACC018F0F9EC26F0ADC0ABF0E6
:103BF600AEC0ACF01200000E096E010E086E015048
:103C06000210D8B409EF1EF00BEF1EF014EF1EF0F1
:103C160003500410D8A412EF1EF014EF1EF01AEF92
:103C26001EF0000E096E000E086E70EF1EF020EEFC
:103C360005F00150D9260250DA22DFA225EF1EF048
:103C460027EF1EF03BEF1EF0C350C4CF05F0066A07
:103C560005C006F0056A0526000E062203C0D9FF38
:103C660004C0DAFF05C0DEFF06C0DDFF70EF1EF000
:103C760020EE05F00150D9260250DA22DFB246EFD7
:103C86001EF048EF1EF064EF1EF0C350C4CF05F0DF
:103C9600066A05C006F0056A0526000E0622060E0F
:103CA600076E063406320532072E54EF1EF003C0A7
:103CB600D9FF04C0DAFF05C0DEFF06C0DDFF70EFE6
:103CC6001EF0C450C350056E066A03C0D9FF04C077
:103CD600DAFF05C0DEFF06C0DDFF08C001F009C03F
:103CE60002F01200196E9CEF1EF09282DDEF1EF0BC
:103CF6009284DDEF1EF09286DDEF1EF0928ADDEFF4
:103D06001EF09680DDEF1EF09682DDEF1EF09684A3
:103D1600DDEF1EF09384DDEF1EF09386DDEF1EF0DF
:103D26009382DDEF1EF09388DDEF1EF09380DDEFCA
:103D36001EF01950176E186A1850000AD8B4A6EF6C
:103D46001EF0DDEF1EF01750000AD8B478EF1EF013
:103D5600010AD8B478EF1EF0030AD8B47BEF1EF040
:103D6600010AD8B47EEF1EF0070AD8B481EF1EF020
:103D7600010AD8B484EF1EF0030AD8B487EF1EF008
:103D8600010AD8B48AEF1EF00F0AD8B48DEF1EF0E0
:103D9600010AD8B490EF1EF0030AD8B493EF1EF0D0
:103DA600010AD8B496EF1EF0070AD8B499EF1EF0B0
:103DB600DDEF1EF01200000E1E6E010E1D6E1A5073
:103DC6001B10D8A4E9EF1EF0EBEF1EF0F1EF1EF08A
:103DD600000E1E6E000E1D6E40EF1FF0C29020EE0C
:103DE60004F01A50D9261B50DA22DF501C6E1C46EE
:103DF6001C461C46C0501C18C70B1C18C06E20EE73
:103E060003F01A50D9261B50DA22DF501C6EC05020
:103E16001C18F80B1C18C06E20EE02F01A50D9269A
:103E26001B50DA22DF501C6E1C461C46C2501C1862
:103E3600C30B1C18C26E20EE02F01A50D9261B5076
:103E4600DA22DF5075EC1EF09D8C9E9CF28EF28C71
:103E56001AC0D9FF1BC0DAFFDECFC2F0DDCFC3F038
:103E66001AC017F01BC018F073EC29F01AC017F02F
:103E76001BC018F02BEC29F0C2801DC01AF01EC022
:103E86001BF01200090E57644BEF1FF04DEF1FF0A9
:103E960091EF1FF0640E016E000E026E010E036EAE
:103EA60091EC1AF001C0FBF102C0FCF17F0E0C6E22
:103EB600010E0D6E57C001F0026A000E046E0A0E66
:103EC600036EAAEC1FF001500E6EC3EC20F00CC07E
:103ED600FBF10DC0FCF1630E016E000E026E010EC9
:103EE600036E91EC1AF001C0FBF102C0FCF17A0EF0
:103EF6000C6E010E0D6E57C001F0026A000E046EC4
:103F06000A0E036ECFEC21F001500E6EC3EC20F0CA
:103F16000CC0FBF10DC0FCF1A9EF1FF0640E016EA1
:103F2600000E026E010E036E91EC1AF001C0FBF159
:103F360002C0FCF17F0E0C6E010E0D6E57C00EF026
:103F4600C3EC20F00CC0FBF10DC0FCF11200000E1A
:103F5600066E04BEB3EF1FF0B1EF1FF0B9EF1FF00E
:103F6600036C041ED8B0042A010E066E02BEC0EF12
:103F76001FF0BEEF1FF0C6EF1FF0016C021ED8B097
:103F8600022A010E061A000E086E000E076E035076
:103F96000410D8B4D1EF1FF0D3EF1FF0FBEF1FF0E2
:103FA600010E056EDBEF1FF0D89003360436052AA6
:103FB60004AEE0EF1FF0E2EF1FF0D7EF1FF0D8904E
:103FC600073608360350015C04500258D8A0EEEFBD
:103FD6001FF0F0EF1FF0F5EF1FF00350015E0450E5
:103FE600025A0780D89004320332052EE2EF1FF002
:103FF6000650D8B401EF20F003EF20F007EF20F0D1
:10400600076C081ED8B0082A07C001F008C002F0E5
:104016001200000E1E6E010E1D6E19501A10D8A445
:1040260017EF20F019EF20F01FEF20F0000E1E6EA4
:10403600000E1D6E63EF20F0B19020EE05F01950D2
:10404600D9261A50DA22DF50030B1B6E1B3AB150E9
:104056001B18CF0B1B18B16E19C017F01AC018F039
:1040660050EC29F020EE03F01950D9261A50DA2226
:10407600DECF1BF0DDCF1CF01CC01BF01C6A1B50F2
:10408600B36E20EE03F01950D9261A50DA22DF500B
:10409600B26E20EE03F01950D9261A50DA22DECF7E
:1040A600A3F1DDCFA4F1A082A19219C0D9FF1AC055
:1040B600DAFFDECFA5F1DDCFA6F1F28EF28CB1806C
:1040C6001DC019F01EC01AF01200000E1E6E010E61
:1040D6001D6E19501A10D8A473EF20F075EF20F05A
:1040E6009FEF20F0000E1E6E000E1D6EBEEF20F03C
:1040F60019C0D9FF1AC0DAFFDECF17F0DDCF18F0EE
:10410600F5EC2AF0BEEF20F019C0D9FF1AC0DAFF8D
:10411600DECF17F0DDCF18F0E5EC2AF0BEEF20F089
:1041260019C0D9FF1AC0DAFFDECF17F0DDCF18F0BD
:10413600D5EC2AF0BEEF20F020EE03F01950D92678
:104146001A50DA22DF501B6E1C6A1C50000AD8B4C3
:10415600AFEF20F075EF20F01B50000AD8B47BEFCC
:1041660020F0010AD8B487EF20F0030AD8B493EF01
:1041760020F075EF20F01DC019F01EC01AF01200D5
:104186000C500D10D8B4CAEF20F0CCEF20F0D4EFCD
:1041960020F0090E0E64D2EF20F0D4EF20F0DAEF13
:1041A60020F0000E106E000E0F6E19EF21F00CC0FD
:1041B60001F00DC002F00E50010B036E91EC1AF0E7
:1041C60001C00FF002C010F0010E0C24016E000EAB
:1041D6000D20026ED8900E30010B036E91EC1AF092
:1041E60001C00FF002C010F0020E0C24016E000E8A
:1041F6000D20026E0E40E8423F0B010B036E91EC60
:104206001AF001C00FF002C010F0030E0C24016E6C
:10421600000E0D20026E0E38E8461F0B010B036ED2
:1042260091EC1AF001C00FF002C010F00FC00CF0B4
:1042360010C00DF01200000E1F6E010E1E6E1A50F9
:104246001B10D8A429EF21F02BEF21F031EF21F03C
:10425600000E1F6E000E1E6E72EF21F0D59E1AC064
:1042660017F01BC018F088EC28F01AC017F01BC016
:1042760018F00EEC26F01AC017F01BC018F0B5ECBB
:1042860029F020EE03F01A50D9261B50DA22DECF91
:104296001CF0DDCF1DF01DC01CF01D6A1C50D76E32
:1042A60020EE03F01A50D9261B50DA22DF50D66EC4
:1042B60020EE03F01A50D9261B50DA22DECF55F035
:1042C600DDCF56F0F28AF2941AC0D9FF1BC0DAFF8E
:1042D600DECFBAF0DDCFBBF0F28EF28CD58E1EC0EB
:1042E6001AF01FC01BF012000001AF51B011D8A484
:1042F6007FEF21F081EF21F088EF21F0000E010120
:10430600D46F000ED36FCAEF21F052C1D0F153C162
:10431600D1F154C1D2F1D00E176E010E186EEEEC2B
:1043260023F0AFC0D9FFB0C0DAFFDF50D8A49EEFAC
:1043360021F0A0EF21F0B6EF21F021EE27F011EEEB
:10434600D5F00C0EDBCFE3FFE806FCE2D50E00014C
:10435600AB6F010EAC6F81EC1DF0ABC0D3F1ACC0FE
:10436600D4F1CAEF21F021EE1AF011EEE2F00C0EB4
:10437600DBCFE3FFE806FCE2E20E0001AB6F010EC5
:10438600AC6F81EC1DF0ABC0D3F1ACC0D4F1D3C19E
:10439600AFF0D4C1B0F01200000E066E02BED8EF28
:1043A60021F0D6EF21F0DEEF21F0016C021ED8B02D
:1043B600022A010E066E04BEE5EF21F0E3EF21F0BE
:1043C600E9EF21F0036C041ED8B0042A0350041050
:1043D600D8B4F0EF21F0F2EF21F016EF22F0010E43
:1043E600056EFAEF21F0D89003360436052A04AE9E
:1043F600FFEF21F001EF22F0F6EF21F00350015C10
:1044060004500258D8A00AEF22F00CEF22F010EF69
:1044160022F00350015E0450025AD890043203324F
:10442600052E01EF22F00650D8B41CEF22F01EEF45
:1044360022F022EF22F0016C021ED8B0022A01C03F
:1044460001F002C002F01200000E1F6E010E1E6E79
:1044560017501810D8B432EF22F034EF22F045EF9F
:1044660022F017C0D9FF18C0DAFFDF30E832E83291
:10447600070B196E070E196443EF22F045EF22F081
:104486004BEF22F0000E1F6E000E1E6E77EF22F02D
:1044960017C0D9FF18C0DAFFDF30E832E832070B61
:1044A600196E010E1A6E192A5BEF22F0D8901A3691
:1044B600192E59EF22F017C0D9FF18C0DAFFDF50C6
:1044C600070B1B6E1B50020D3E0EF324D96E010E18
:1044D600F420DA6EDECF1CF0DDCF1DF01CC0D9FF54
:1044E6001DC0DAFF1A50DF1A1EC017F01FC018F0E1
:1044F600120025502610D8A483EF22F085EF22F073
:104506008BEF22F0000E286E000E276EC7EF22F00A
:1045160025C017F026C018F08EEC25F017C027F03E
:1045260018C028F025C017F026C018F0CEEC25F0EC
:10453600175027121850281225C017F026C018F059
:1045460034EC1BF0175027121850281225C021F002
:1045560026C022F095EC29F021502712225028126D
:1045660025C019F026C01AF068EC20F01950271261
:104576001A50281225C017F026C018F0C3EC24F0F4
:10458600175027121850281227C025F028C026F0E9
:104596001200680E266E000E276E35EC24F0670EAC
:1045A600266E000E276E35EC24F0660E266E000E83
:1045B600276E35EC24F0650E266E000E276E35EC60
:1045C60024F0D40E266E000E276E35EC24F0EA0E8B
:1045D600266E000E276E35EC24F0E90E266E000ED0
:1045E600276E35EC24F0E80E266E000E276E35ECAD
:1045F60024F0E70E266E000E276E35EC24F0E60E4C
:10460600266E000E276E35EC24F0E50E266E000EA3
:10461600276E35EC24F0E40E266E000E276E35EC80
:1046260024F0120022502310D8A41CEF23F01EEF12
:1046360023F024EF23F0000E266E000E256E59EFB0
:1046460023F05DC027F022C0D9FF23C0DAFFDF5078
:10465600070B246E27502418F80B2418276E22C047
:10466600D9FF23C0DAFFDF30E832E832070B246EC9
:1046760024462446244627502418C70B2418276EA0
:10468600279C22C0D9FF23C0DAFFDFAC02D0278ED9
:1046960001D0279E270E176E000E186E010E196E9A
:1046A600EEEC19F017C025F018C026F025C022F050
:1046B60026C023F0120022502310D8A465EF23F061
:1046C60067EF23F06DEF23F0000E266E000E256EC9
:1046D600A2EF23F05CC027F022C0D9FF23C0DAFF87
:1046E600DF50070B246E27502418F80B2418276E6A
:1046F60022C0D9FF23C0DAFFDF30E832E832070BE9
:10470600246E24462446244627502418C70B241812
:10471600276E279C22C0D9FF23C0DAFFDFAC02D068
:10472600278E01D0279E270E176E000E186E000EDC
:10473600196EEEEC19F017C025F018C026F025C04A
:1047460022F026C023F01200120EF66E4A0EF76E05
:10475600000EF86E01EE00F010EE86F00900F5CFBF
:10476600EEFFE550E150FAE1720EF66E560EF76E68
:10477600000EF86E00EED5F010EE16F00900F5CF3B
:10478600EEFFE550E150FAE1880EF66E560EF76E32
:10479600000EF86E00EE5FF010EE0AF00900F5CF9D
:1047A600EEFFE550E150FAE101EE86F04A0EEE6AC0
:1047B600E806FDE100EEB6F01F0EEE6AE806FDE142
:1047C60000EE53F00C0EEE6AE806FDE16990699280
:1047D60000010BEF08F0000E1B6E010E1A6E17504B
:1047E6001810D8A4F9EF23F0FBEF23F001EF24F023
:1047F600000E1B6E000E1A6E30EF24F0CA9420EEE7
:1048060002F01750D9261850DA22DF50196ECA5016
:104816001918FC0B1918CA6E20EE01F01750D9268C
:104826001850DA22DF50196E194619461946CA5031
:104836001918870B1918CA6E17C0D9FF18C0DAFFE6
:10484600DF50CC6E17C0D9FF18C0DAFFDF50196EE3
:1048560019500101A76FA86BCA841AC017F01BC0B4
:1048660018F0120026502710D8A43CEF24F03EEF93
:1048760024F044EF24F0000E2A6E000E296E77EF26
:1048860024F05EC02BF026C0D9FF27C0DAFFDF5028
:10489600070B286E2B502818F80B28182B6E26C0ED
:1048A600D9FF27C0DAFFDF30E832E832070B286E7F
:1048B6002846284628462B502818C70B28182B6E42
:1048C6002B9C26C0D9FF27C0DAFFDFAC02D02B8E87
:1048D60001D02B9E2B0E226E000E236EFCEC27F0D1
:1048E60022C029F023C02AF029C026F02AC027F0CA
:1048F600120020502110D8A483EF24F085EF24F075
:104906008BEF24F0000E246E000E236EBEEF24F013
:104916005BC025F020C0D9FF21C0DAFFDF50070BAE
:10492600226E25502218F80B2218256E20C0D9FFBA
:1049360021C0DAFFDF30E832E832070B226E22466A
:104946002246224625502218C70B2218256E259C82
:1049560020C0D9FF21C0DAFFDFAC02D0258E01D0FE
:10496600259E250E176E000E186E27EC22F017C036
:1049760023F018C024F023C020F024C021F0120038
:10498600000E1C6E010E1B6E17501810D8A4CEEF29
:1049960024F0D0EF24F0E5EF24F0000E1C6E000E9C
:1049A6001B6E04EF25F0F28EF28CF28804EF25F0F0
:1049B600F28EF28CF08604EF25F0F28EF28CF088FF
:1049C60004EF25F020EE03F01750D9261850DA220E
:1049D600DF50196E1A6A1A50000AD8B4F5EF24F09F
:1049E600D0EF24F01950000AD8B4D6EF24F0010A0B
:1049F600D8B4DBEF24F0030AD8B4E0EF24F0D0EF0C
:104A060024F01BC017F01CC018F0120001020C0A9B
:104A160000320001100000000000020C12003200FB
:104A260001100000000001020C0A00320001100013
:104A360000000000020C120032000110000000000D
:104A4600800F810F820F830F840F890F8A0F8B0FC0
:104A56008C0F8D0F920F930F940F950F960F0000EA
:104A66000200020C1200C8000401000000009C565F
:104A7600490101008A3E00A4BB001C54001A5502DD
:104A8600604E01000502101820030021293139006B
:104A9600041126502710D8A453EF25F055EF25F022
:104AA6005BEF25F0000E296E000E286E89EF25F0CB
:104AB60026C022F027C023F0FCEC27F022C028F005
:104AC60023C029F0010E2624226E000E2720236E15
:104AD600FCEC27F022C028F023C029F0020E262481
:104AE600226E000E2720236EFCEC27F022C028F051
:104AF60023C029F0030E2624226E000E2720236EE3
:104B0600FCEC27F022C028F023C029F028C026F0AC
:104B160029C027F01200000E1C6E010E1B6E1750E6
:104B26001810D8A499EF25F09BEF25F0AAEF25F0F1
:104B3600000E1C6E000E1B6EC9EF25F0F298C9EF31
:104B460025F0F096C9EF25F0F098C9EF25F020EE94
:104B560003F01750D9261850DA22DF50196E1A6A58
:104B66001A50000AD8B4BAEF25F09BEF25F0195079
:104B7600000AD8B4A1EF25F0010AD8B4A4EF25F0B5
:104B8600030AD8B4A7EF25F09BEF25F01BC017F05A
:104B96001CC018F01200000E1C6E010E1B6E175082
:104BA6001810D8A4D9EF25F0DBEF25F0EAEF25F0B1
:104BB600000E1C6E000E1B6E09EF26F0F29209EF36
:104BC60026F0F09009EF26F0F09209EF26F020EE9D
:104BD60003F01750D9261850DA22DF50196E1A6AD8
:104BE6001A50000AD8B4FAEF25F0DBEF25F0195079
:104BF600000AD8B4E1EF25F0010AD8B4E4EF25F0B5
:104C0600030AD8B4E7EF25F0DBEF25F01BC017F059
:104C16001CC018F0120020EE05F01750D9261850C7
:104C2600DA22DFB419EF26F01BEF26F01EEF26F08E
:104C3600D59A4CEF26F020EE05F01750D9261850DD
:104C4600DA22DFA429EF26F02BEF26F04CEF26F030
:104C5600D58A20EE05F01750D9261850DA22DFA2A1
:104C660037EF26F039EF26F03CEF26F0D5884CEFEB
:104C760026F020EE05F01750D9261850DA22DFB2BA
:104C860047EF26F049EF26F04CEF26F0D5984CEF8B
:104C960026F01200000E1B6E010E1A6E1750181029
:104CA600D8A458EF26F05AEF26F060EF26F0000E53
:104CB6001B6E000E1A6E82EF26F017C0D9FF18C0C1
:104CC600DAFFDF50D8A46AEF26F06CEF26F072EF19
:104CD60026F0BD50F00B0C09BD6E82EF26F017C012
:104CE600D9FF18C0DAFFDE04D8A47CEF26F07EEFE9
:104CF60026F082EF26F0BA50F00B0C09BA6E1AC0F5
:104D060017F01BC018F01200000E226E000E216E66
:104D16001F502010D8B492EF26F094EF26F0BCEF87
:104D260026F0010E236E9CEF26F0D8901F36203613
:104D3600232A20AEA1EF26F0A3EF26F098EF26F067
:104D4600D890213622361F501D5C20501E58D8A000
:104D5600AFEF26F0B1EF26F0B6EF26F01F501D5E3E
:104D660020501E5A2180D89020321F32232EA3EFC6
:104D760026F021C01DF022C01EF0120020EE04F025
:104D86001750D9261850DA22DF50D8A4CDEF26F0D6
:104D9600CFEF26F0D3EF26F0B196B18CF8EF26F0E0
:104DA60020EE04F01750D9261850DA22DE04D8A4D3
:104DB600DFEF26F0E1EF26F0E5EF26F0B186B19CB5
:104DC600F8EF26F020EE04F01750D9261850DA2214
:104DD600020EDE18D8A4F2EF26F0F4EF26F0F8EF74
:104DE60026F0B196B19CF8EF26F0120017C0D9FF55
:104DF60018C0DAFFDF50D8A403EF27F005EF27F03D
:104E060015EF27F09D849E9420EE09F01750D926C1
:104E16001850DA22DECFC5F1DDCFC6F1F28EF28C64
:104E26002FEF27F017C0D9FF18C0DAFFDE04D8A489
:104E36001FEF27F021EF27F02FEF27F0A0809E9499
:104E460020EE0BF01750D9261850DA22DECFC3F128
:104E5600DDCFC4F1F28EF28C12000001CB51D8A442
:104E660037EF27F039EF27F04CEF27F0740E016E7D
:104E7600010E026ECE0E036E010E046EFEEC1DF0E8
:104E860001C0FBF102C0FCF1010E0001CB6F65EF22
:104E960027F0CB05D8A452EF27F054EF27F065EFA3
:104EA60027F0740E016E010E026ECC0E036E010E1B
:104EB600046EFEEC1DF001C0FBF102C0FCF1000E19
:104EC6000001CB6F120022502310D8A46DEF27F0FB
:104ED6006FEF27F075EF27F0000E256E000E246E9B
:104EE60093EF27F022C017F023C018F0010E196EB9
:104EF600EEEC19F017C024F018C025F0010E22249C
:104F0600176E000E2320186E000E196EEEEC19F0C7
:104F160017C024F018C025F0000E256E010E246E71
:104F260024C022F025C023F0120022502310D8A45A
:104F36009FEF27F0A1EF27F0A7EF27F0000E256ED1
:104F4600000E246EC5EF27F022C017F023C018F01C
:104F5600000E196EEEEC19F017C024F018C025F0FB
:104F6600010E2224176E000E2320186E010E196EF4
:104F7600EEEC19F017C024F018C025F0000E256ECF
:104F8600010E246E24C022F025C023F01200225008
:104F96002310D8A4D1EF27F0D3EF27F0D9EF27F0CD
:104FA600000E256E000E246EF7EF27F022C017F0D4
:104FB60023C018F0000E196EEEEC19F017C024F09D
:104FC60018C025F0010E2224176E000E2320186E3D
:104FD600000E196EEEEC19F017C024F018C025F07B
:104FE600000E256E010E246E24C022F025C023F08B
:104FF600120022502310D8A403EF28F005EF28F062
:105006000BEF28F0000E256E000E246E27EF28F019
:1050160022C017F023C018F045EC19F017C024F091
:1050260018C025F022C017F023C018F022C0D9FFFF
:1050360023C0DAFF000EDFBE010E196EEEEC19F08A
:1050460017C024F018C025F024C022F025C023F094
:105056001200D9C024F0D8C025F0D7C026F0D6C09B
:1050660027F0240E176E000E186E45EC19F0250E6B
:10507600176E000E186E45EC19F0260E176E000E10
:10508600186E45EC19F021C0D9FF22C0DAFF040ED4
:10509600DE18D8A451EF28F053EF28F059EF28F086
:1050A600270E176E000E186E45EC19F012002650EA
:1050B6002710D8A461EF28F063EF28F069EF28F0F5
:1050C600000E296E000E286E83EF28F026C022F00F
:1050D60027C023F0FCEC27F022C028F023C029F0DB
:1050E600010E2624226E000E2720236EFCEC27F0EC
:1050F60022C028F023C029F0000E296E010E286E6A
:1051060028C026F029C027F0120020EE05F017501F
:10511600D9261850DA22DFB093EF28F095EF28F061
:10512600A5EF28F0D59620EE02F01750D926185094
:10513600DA22DF50196ED5501918F80B1918D56EEA
:10514600B3EF28F020EE05F01750D9261850DA22D2
:10515600DFA0B0EF28F0B2EF28F0B3EF28F0D58645
:105166001200000E1F6E010E1E6E1A501B10D8A4E0
:10517600BFEF28F0C1EF28F0C7EF28F0000E1F6E32
:10518600000E1E6ED9EF28F01CC01DF01D461D46F0
:10519600C2501D18C30B1D18C26E20EE02F01A5025
:1051A600D9261B50DA22DF5075EC1EF01EC01AF00D
:1051B6001FC01BF01200196E000E1B6E000E1A6E39
:1051C60017501810D8B4EAEF28F0ECEF28F000EFEB
:1051D60029F0000E1B6E010E1A6E19C0C9FF9EA69D
:1051E600F7EF28F0F9EF28F0F2EF28F09E9617C0B7
:1051F600D9FF18C0DAFFC9CFDFFF1AC017F01BC0EE
:1052060018F0120020502110D8A40CEF29F00EEF50
:1052160029F014EF29F0000E246E000E236E26EFFF
:1052260029F020C01AF021C01BF022C01CF0B4ECFB
:1052360028F020C017F021C018F0A9EC2AF017C0FA
:1052460023F018C024F023C020F024C021F012005F
:1052560020EE05F01750D9261850DA22DFA036EFD7
:1052660029F038EF29F03CEF29F0C188C18A4FEFC9
:1052760029F020EE05F01750D9261850DA22DFB0B3
:1052860047EF29F049EF29F04DEF29F0C198C19A6F
:105296004FEF29F0C188C18A120020EE05F01750A1
:1052A600D9261850DA22DFB45BEF29F05DEF29F03A
:1052B60060EF29F0B19272EF29F0B18220EE05F08D
:1052C6001750D9261850DA22DFB66CEF29F06EEFA8
:1052D60029F071EF29F0B19472EF29F0B184120030
:1052E60020EE05F01750D9261850DA22DFA27EEFFD
:1052F60029F080EF29F083EF29F0C08E94EF29F092
:1053060020EE05F01750D9261850DA22DFB28EEFBC
:1053160029F090EF29F093EF29F0C09E94EF29F041
:10532600C08E120021502210D8A49CEF29F09EEFC7
:1053360029F0A4EF29F0000E246E000E236EB0EFC4
:1053460029F0020E2124176E000E2220186E45EC5D
:1053560019F017C023F018C024F023C021F024C090
:1053660022F0120020EE05F01750D9261850DA2246
:10537600DFA6C0EF29F0C2EF29F0C5EF29F0D58CE2
:10538600D3EF29F020EE05F01750D9261850DA226F
:10539600DFB6D0EF29F0D2EF29F0D3EF29F0D59C74
:1053A6001200F2945650D76E55C0D6FF0001BA517E
:1053B600BB11D8A4E1EF29F0E3EF29F0E5EF29F0DE
:1053C600F1EF29F002D8F1EF29F00500FA6EBA5193
:1053D600FD6EBB51FE6EFF6AFA5012001200A192DA
:1053E6000101A451B36EA3C1B2FFA551A611D8B451
:1053F600FFEF29F001EF2AF00DEF2AF002D80DEFAA
:105406002AF00500FA6EA551FD6EA651FE6EFF6AE2
:10541600FA50120012000001CA2B3C0ECA19D8A479
:1054260017EF2AF019EF2AF01CEF2AF0000ECA6FC8
:10543600C92B3C0EC919D8A423EF2AF025EF2AF070
:1054460027EF2AF0000EC96F1200F0920001BC513E
:10545600BD11D8A431EF2AF033EF2AF035EF2AF048
:1054660041EF2AF002D841EF2AF00500FA6EBC514E
:10547600FD6EBD51FE6EFF6AFA5012001200F090EA
:105486000001BE51BF11D8A44BEF2AF04DEF2AF010
:105496004FEF2AF05BEF2AF002D85BEF2AF0050007
:1054A600FA6EBE51FD6EBF51FE6EFF6AFA501200D3
:1054B6001200F2920001C051C111D8A465EF2AF082
:1054C60067EF2AF069EF2AF075EF2AF002D875EF38
:1054D6002AF00500FA6EC051FD6EC151FE6EFF6ADC
:1054E600FA50120012009E9C0001C251C311D8A4AA
:1054F6007FEF2AF081EF2AF083EF2AF08FEF2AF070
:1055060002D88FEF2AF00500FA6EC251FD6EC35124
:10551600FE6EFF6AFA5012001200DCC021F0DBC0FA
:1055260022F0DAC023F0210E176E000E186E45EC3D
:1055360019F0220E176E000E186E45EC19F0230EA8
:10554600176E000E186E45EC19F01200000E1A6E5A
:10555600010E196E17501810D8A4B4EF2AF0B6EF42
:105566002AF0BCEF2AF0000E1A6E000E196EBDEF7F
:105576002AF0C28219C017F01AC018F0120017508C
:105586001902F3CF1BF0F4CF1CF017501A02F35098
:105596001C2618501902F3501C261BC017F01CC0FD
:1055A60018F0120017501810D8A4DCEF2AF0DEEF1E
:1055B6002AF0E0EF2AF0E4EF2AF017C0BCF018C09A
:1055C600BDF0120017501810D8A4ECEF2AF0EEEF39
:1055D6002AF0F0EF2AF0F4EF2AF017C0BEF018C058
:1055E600BFF0120017501810D8A4FCEF2AF0FEEFF7
:1055F6002AF000EF2BF004EF2BF017C0C0F018C014
:10560600C1F01200016EF2900150D8A40DEF2BF0FC
:105616000FEF2BF011EF2BF011EF2BF01200016EB4
:10562600F2900150D8A41AEF2BF01CEF2BF01EEFCE
:105636002BF01EEF2BF01200016EF2900150D8A451
:1056460027EF2BF029EF2BF02BEF2BF02BEF2BF086
:105656001200016EF2900150D8A434EF2BF036EF11
:105666002BF038EF2BF038EF2BF0120001685A625E
:105676002A1A622A333B232B320201032802332BD8
:10568600100801010101130B3129211A5450CF6E64
:1056960053C0CEFF12000001D52B12009D981200B8
:1056A6009E961200A19612009E941200A1901200DE
:0856B6009E9412001200120084
:020000040020DA
:08000000FFFFFFFFFFFFFFFF00
:020000040030CA
:0E000000FF02091EFF8181FF0FC00FE00F40BD
:00000001FF
